:020000040800F2
:10000000B0080020F51E0008CD1E0008CF1E000815
:10001000D11E0008D31E0008D51E000800000000F5
:10002000000000000000000000000000D71E0008D3
:10003000D91E000800000000DB1E0008DD1E0008BD
:100040001D1F0008211F0008251F0008291F000888
:100050002D1F0008311F0008351F0008391F000838
:100060003D1F0008411F0008451F0008491F0008E8
:100070004D1F0008511F0008551F0008591F000898
:100080005D1F0008611F0008651F0008691F000848
:100090006D1F0008711F0008751F0008791F0008F8
:1000A0007D1F0008811F0008851F0008891F0008A8
:1000B0008D1F0008911F0008951F0008991F000858
:1000C0009D1F0008A11F0008A51F0008A91F000808
:1000D000AD1F0008B11F0008B51F0008B91F0008B8
:1000E000BD1F0008C11F0008C51F0008C91F000868
:1000F000CD1F0008D11F0008D51F0008D91F000818
:10010000DD1F0008E11F0008E51F0008E91F0008C7
:10011000ED1F0008F11F0008F51F0008F91F000877
:10012000FD1F000801200008052000080920000824
:100130000D200008112000081520000819200008D3
:100140001D20000821200008252000082920000883
:100150002D20000831200008352000083920000833
:100160003D200008412000084520000849200008E3
:100170004D20000851200008552000085920000893
:100180005D20000861200008652000086920000843
:100190006D200008712000087520000879200008F3
:1001A0007D200008812000088520000889200008A3
:1001B0008D20000891200008952000089920000853
:1001C0009D200008A12000087CB50400012600F055
:1001D000FBFB0500002C01D101205AE0206A4028D9
:1001E00094F84000012801D1022052E0012084F857
:1001F000400094F8410000280AD1002084F8400013
:10020000200000F0E0FB41F28831200000F0B4FA59
:100210002068006830F4F850A168491E50EA0120B7
:1002200021680860A06C00902B0000222021200093
:1002300000F0A4FA0100C9B2002926D121680A6899
:1002400014490A40616852EA0162E1680A43E169BF
:100250000A43216A0A4321680A6021684A680E49F4
:100260000A40216952EA014261690A43A1690A43CD
:1002700021684A602168096851F001012268116013
:1002800000216164012184F84110002184F84010AC
:10029000C0B276BD2FFFFF00FEF8E0FF10B50400EE
:1002A000002C01D101201AE094F84000012801D16E
:1002B000022014E0012084F8400020680068400813
:1002C000400021680860200000F084FB002060648A
:1002D000002084F84100002084F84000002010BD78
:1002E0002DE9F84304000D0016005FF0010800F04E
:1002F0006BFB0700A8690028E8690028286A002825
:1003000094F84000012801D102203DE0012084F84A
:10031000400094F8410001282FD1002060640220A1
:1003200084F8410000963B0000222021200000F0CC
:1003300025FA81464846C0B2002820D10022290073
:10034000200000F044FA686A002812D100963B00B1
:1003500001220221200000F011FA81464846C0B275
:1003600000280CD102202168C860012084F84100D7
:1003700005E0012084F8410001E05FF0020900205F
:1003800084F840004846C0B2BDE8F2832DE9F84346
:1003900005000C001600002700F016FB80462868B8
:1003A00010F1200995F84000012801D102205EE0FB
:1003B000012085F8400095F84100012850D1002027
:1003C0006864002C45D0122085F841002868006937
:1003D000401CE86228680069401CA8626C622868BA
:1003E000406930F0406029684861E86A002815D00B
:1003F0000096434601220421280000F0BFF90700BF
:100400003800C0B2002809D1686A411C69620078CE
:1004100089F80000E86A401EE862E6E73800C0B2EA
:10042000002812D10096434601220221280000F044
:10043000A5F907003800C0B2002806D102202968BB
:10044000C860280000F04CF90700012085F8410041
:1004500008E0686C50F0080068640120070001E0C3
:1004600002200700002085F840003800C0B2BDE837
:10047000F2832DE9FC4705000C001600002700F070
:10048000A3FA80462868D0F81890286810F1200A4E
:1004900095F84000012801D1022063E0012085F891
:1004A000400095F84100012855D100206864002CD7
:1004B0004AD0222085F8410028680069401CA863C2
:1004C00028680069401C68632C632868406930F024
:1004D000406050F08060296848612868C0F8189032
:1004E000A86B002815D0009643460122062128005B
:1004F00000F044F907003800C0B2002809D1286B89
:10050000411C29639AF800100170A86B401EA86373
:10051000E6E73800C0B2002812D100964346012217
:100520000221280000F02AF907003800C0B2002894
:1005300006D102202968C860280000F0D1F8070021
:10054000012085F8410008E0686C50F008006864FC
:100550000120070001E002200700002085F840008C
:100560003800C0B2BDE8F6872DE9FC4704000D0055
:1005700016001F005FF0010800F026FA8146A86906
:100580000028E8690028286A002894F8400001281B
:1005900001D102204CE0012084F8400094F8410091
:1005A00001283ED100206064422084F84100009779
:1005B0004B4600222021200000F0E0F88246504601
:1005C000C0B200282FD13068216888627068216825
:1005D0004862B0682168C8622068016831F440014F
:1005E0003069014351F4800120680160F068A8621D
:1005F0005FF000622900200000F0E9F800974B4608
:1006000001220821200000F0B9F882465046C0B20D
:10061000002808D108202168C860012084F8410022
:1006200001E05FF0020A002084F840005046C0B2AA
:10063000BDE8F6872DE9F84304000D0016005FF0D1
:10064000010800F0C1F90700A8690028E86900283E
:10065000286A002894F84000012801D102203DE0DA
:10066000012084F8400094F8410001282FD1002097
:100670006064822084F84100A06C00903B0000225E
:100680002021200000F07AF881464846C0B20028B8
:100690001FD12068016831F00801706801432068AB
:1006A0000160706808280BD1306821680863102049
:1006B0002168C8602068006850F4801021680860D4
:1006C0005FF040622900200000F081F801E05FF057
:1006D0000209002084F840004846C0B2BDE8F28319
:1006E0007CB50400002500F06FF9060094F8410085
:1006F00080073ED5002084F840002068006840074D
:1007000011D52068006830F0040021680860E06BB3
:1007100000F07EF905002800C0B2002803D0606C0C
:1007200050F0040060642068006850F00200216806
:100730000860A06C0090330001220221200000F02C
:100740001DF805002800C0B200280BD10220216846
:10075000C860A06C0090330000222021200000F02F
:100760000DF805002800C0B2002802D1012084F84D
:1007700041002800C0B276BD816470472DE9F04188
:1007800005000E0090461F00069C286880683042D5
:1007900001D0012000E000204146C0B2C9B2884229
:1007A00012D014F1010FF0D0002C04D000F00CF99D
:1007B000C01B8442E9D2042085F84100686C50F0E7
:1007C00001006864012000E00020BDE8F08110B461
:1007D0004B6A002B06D0B2F1406F03D08B6A5B1ED0
:1007E000046823618B69002B79D00B6A002B3ED003
:1007F0008B680468E361CB69002B20D0CC6A0B6B5B
:100800001C434B6B1C434B6A1C434B6954EA8344A7
:100810000B691C430B6A1C43CB681C43CB691C430C
:100820008B691C430B681C43144303685C61B2F181
:10083000406F00F0C6804B680468A361C1E0CC6AD9
:100840000B6B1C434B6B1C434B6A1C434B6954EAB8
:1008500083440B691C430B6A1C43CB691C438B69A3
:100860001C430B681C43144303685C61A9E0CB691B
:10087000002B1ED0CC6A0B6B1C434B6B1C434B6A8A
:100880001C434B6954EA83440B6A1C43CB681C43EA
:10089000CB691C438B691C430B681C4314430368DE
:1008A0005C61B2F1406F00F08C804B680468A3611A
:1008B00087E0CC6A0B6B1C434B6B1C434B6A1C439D
:1008C0004B6954EA83440B6A1C43CB691C438B6914
:1008D0001C430B681C43144303685C6171E00B6AA2
:1008E000002B39D08B680468E361CB69002B1DD0E5
:1008F000CC6A0B6B1C434B6B1C434B6A1C434B6910
:1009000054EA83440B691C430B6A1C43CB681C43A9
:10091000CB691C438B691C43144303685C61B2F1CF
:10092000406F4ED04B680468A3614AE0CC6A0B6B01
:100930001C434B6B1C434B6A1C434B6954EA834476
:100940000B691C430B6A1C43CB691C438B691C431A
:10095000144303685C6134E0CB69002B1BD0CC6A84
:100960000B6B1C434B6B1C434B6A1C434B6954EA97
:1009700083440B6A1C43CB681C43CB691C438B69C3
:100980001C43144303685C61B2F1406F19D04B689B
:100990000468A36115E04B6A002B12D0CC6A0B6B84
:1009A0001C434B6B1C434B6A1C434B6954EA834406
:1009B0000B6A1C43CB691C438B691C4314430368BB
:1009C0005C6110BC7047704701480068704700BF09
:1009D000AC000020704730B4002513E050F8042B21
:1009E000D30744BFA9F101039A18091F042942F84B
:1009F000045BFAD213468C0744BF15809B1CC907C1
:100A000048BF1D7050F8041B0029E7D130BC704767
:100A100070B50400A56DFFF7D7FF060094F8350008
:100A2000022806D080206065002084F83400012070
:100A30003BE02068006830F01600216808602068FC
:100A4000406930F0800021684861206C002802D1A4
:100A5000A06C002805D02068006830F008002168EC
:100A6000086020680068400840002168086020682D
:100A70000068C0070ED5FFF7A7FF801B0628F6D336
:100A800020206065002084F83400032084F83500BD
:100A900003200AE03F21E06D8140A960002084F836
:100AA0003400012084F83500002070BD2DE9FC41A0
:100AB00004000026002C01D10120D8E12078C007D5
:100AC0006DD5DFF89405016811F00C01042909D0F7
:100AD000006810F00C0008280ED1DFF880050068CF
:100AE000400209D5DFF86C050068800357D56068BF
:100AF000002854D10120BAE16068B0F5803F06D1EA
:100B0000DFF85005016851F48031016026E060682B
:100B100000280AD1DFF83C05016831F4803101601A
:100B2000016831F48021016018E06068B0F5A02F01
:100B30000AD1DFF82005016851F4802101600168C5
:100B400051F48031016009E0DFF80805016831F4F3
:100B500080310160016831F4802101606068002803
:100B60000ED0FFF731FF0500DFF8E80400688003CE
:100B700015D4FFF729FF401B6528F5D3032076E144
:100B8000FFF722FF0500DFF8CC040068800306D5DC
:100B9000FFF71AFF401B6528F5D3032067E1207893
:100BA000800752D5DFF8B004016811F00C0F09D0AE
:100BB000006810F00C00082816D1DFF8A0040068C7
:100BC000400211D4DFF88C040168890704D5E1687C
:100BD000012901D001204AE1016831F0F8012269C0
:100BE00051EAC201016030E0E06800281AD0DFF865
:100BF0006474386850F001003860FFF7E5FE0500C6
:100C00003868800706D4FFF7DFFE401B0328F7D3C0
:100C100003202CE1386830F0F800216950EAC10067
:100C2000386012E0DFF82C74386840084000386003
:100C3000FFF7CAFE05003868800706D5FFF7C4FE37
:100C4000401B0328F7D3032011E12078000728D5A3
:100C50006069002812D0DFF80874386850F001008D
:100C60003860FFF7B1FE05003868800719D4FFF738
:100C7000ABFE401B0328F7D30320F8E0DFF8E07356
:100C80003868400840003860FFF79EFE050038686D
:100C9000800706D5FFF798FE401B0328F7D30320F3
:100CA000E5E02078400740F18780DFF8C0733868BE
:100CB000C0000AD4386850F080503860386810F0AE
:100CC00080500090009801200600DFF8A483D8F837
:100CD0000000C00513D4D8F8000050F48070C8F8A4
:100CE0000000FFF771FE0500D8F80000C00506D42B
:100CF000FFF76AFE401B6528F6D30320B7E0A06823
:100D0000012806D1DFF86C03016851F00101016090
:100D100025E0A06800280AD1DFF8580301684908D7
:100D200049000160016831F00401016017E0A0682A
:100D300005280AD1DFF83C03016851F00401016085
:100D4000016851F00101016009E0DFF82803016842
:100D5000490849000160016831F004010160A068A0
:100D6000002810D0FFF730FE0500DFF80803006808
:100D7000800719D4FFF728FE401B41F289318842D1
:100D8000F3D3032073E0FFF71FFE0500DFF8E40252
:100D90000068800708D5FFF717FE401B41F2893134
:100DA0008842F3D3032062E03000C0B2012803D1AF
:100DB000386830F080503860A069002856D0DFF8DD
:100DC0009802006810F00C0008284DD0A069022895
:100DD00037D1DFF88072386830F080703860FFF704
:100DE000F3FD80463868800107D5FFF7EDFDB0EBD5
:100DF00008000328F6D3032039E0E169206A0143A3
:100E0000606A51EA8011A06A4008401E51EA004120
:100E1000E06A51EA006151F00051DFF840020160E0
:100E2000386850F080703860FFF7CEFD05003868F4
:100E300080011BD4FFF7C8FD401B0328F7D3032014
:100E400015E0DFF81072386830F080703860FFF716
:100E5000BBFD05003868800108D5FFF7B5FD401BD4
:100E60000328F7D3032002E0012000E00020BDE8C2
:100E7000F6812DE9F04104000D000026002C01D17F
:100E800001209FE0DFF8F071386810F00F00A842F1
:100E90000BD238680009000128433860386810F028
:100EA0000F00A84201D001208CE02078800719D5DE
:100EB0002078400705D5DFF8A001016851F4E05122
:100EC00001602078000705D5DFF88C01016851F436
:100ED00060410160DFF880110A6832F0F002A0681A
:100EE00002430A602078C00737D56068012806D120
:100EF000DFF860010068800311D4012062E06068BF
:100F0000022806D1DFF84C010068800107D40120D7
:100F100058E050480068800701D4012052E0DFF813
:100F20003881D8F800108908890060680143C8F842
:100F30000010FFF749FD0600D8F8000010F00C0083
:100F40006168B0EB810F08D0FFF73EFD801B41F2D6
:100F500089318842F0D3032034E0386810F00F0064
:100F600085420BD238680009000128433860386890
:100F700010F00F00A84201D0012023E020784007A4
:100F800006D535490A6832F4E052E06802430A6047
:100F90002078000707D53048016831F460412269A4
:100FA00051EAC201016000F00FF834492A4A126880
:100FB000C2F30312895CC8402B4908600F2000F07F
:100FC00061F80020BDE8F0812DE9F0410024002502
:100FD000002600272048006810F00C00002804D0EC
:100FE000042804D0082804D031E01E4830E024480A
:100FF0002EE0DFF86880D8F8000010F03F00040011
:10100000D8F8000040020CD5D8F80000C0F38810D2
:101010001B49A1FB00012200002300F059F8050044
:101020000BE0D8F80000C0F388100E49A1FB0001C6
:101030002200002300F04CF80500D8F80000C0F3AF
:101040000140401C40000600B5FBF6F000E00548FA
:10105000BDE8F08100380240083802400438024000
:10106000743802400024F40004000020403802409C
:101070000070004070380240003C0240E41E00084E
:1010800040787D0110B504004FF47A700D4909785D
:10109000B0FBF1F00C490968B1FBF0F000F0B0F9D9
:1010A000002801D001200CE0102C09D200222100E0
:1010B0005FF0FF3000F08FF904480460002000E08A
:1010C000012010BD080000200400002000000020C6
:1010D000BBBBE1B1B2F5803F80F07E80022A1ED911
:1010E0008C46B1FBF2F102FB11C31B0443EA10432F
:1010F000B3FBF2FC02FB1C3380B240EA0343B3FBB8
:10110000F2F002FB103240EA0C4000237047022A42
:1011100005D98446B0FBF2F002FB10C270474AB119
:1011200005D100F0010249085FEA30007047002253
:101130000023704700F078B90B0002000021002066
:101140007047904271EB030CF6D3B3F5803F2FD27A
:10115000F0B5B3FA83F7B1FA81F4A7F10F0E3D1B96
:101160005340CEF1200602FA0EF2F3415340B5F19E
:101170000F0746D80F3C2C444140C4F12006A04044
:10118000F1414140B1FBF3F603FB1611A2FB06450A
:10119000001BA94102D2761E8018594180EA010243
:1011A00021FA0EF362FA0EF200215A403046F0BDE9
:1011B00030B4B1FBF3FC03FB1C11A2FB0C45001B7C
:1011C000A94103D2ACF1010C8018594130BC024650
:1011D0000B46604600217047B2F1807F65D3F0B5C1
:1011E000B2FA82F7B1FA81F4C7F10F063D1B22FA79
:1011F00006F307F1110EF24120355A40B5F10F0701
:10120000B8D94140C4F12006A040F1414140B1FBB2
:10121000F3FC03FB1C11A2FB0C45001BA94103D2EC
:10122000BCF1010C801859410F2F12D30F3FC90395
:1012300041EA5041B1FBF3F603FB1611A2FB064550
:10124000D4EBC030A94102D2761E8018594146EA3B
:10125000CC3C07B34140C7F12006B840F1414140C2
:10126000B1FBF3F603FB1611A2FB0645001BA941D7
:1012700002D2761E8018594180EA010221FA0EF34B
:10128000C7F1200462FA0EF20CFA07F05A402CFA69
:1012900004F13043F0BD80EA010221FA0EF300218F
:1012A00062FA0EF260465A40F0BD8C46B1FBF2F194
:1012B00002FB11C31B0243EA1063B3FBF2FC02FB07
:1012C0001C331B024CEA002043EA1063B3FBF2FC20
:1012D00002FB1C331B024CEA002043EA1063B3FB01
:1012E000F2FC02FB1C331B024CEA002043EA1063B1
:1012F000B3FBF2FC02FB1C324CEA002000237047D7
:1013000010B410F00703DFF8044122684FF6FF0124
:101310000A40DFF8FC1051EA03210A43226010BCA6
:101320007047DFF8E8000068C0F30220704710B48F
:10133000020052B2002A05D40A01364B040064B2FE
:101340001A5508E00A01344B040064B214F00F048B
:10135000234403F8042C10BC704770B4030013F04E
:101360000704D4F10700052801D3042001E0D4F1DB
:101370000700251D072D01D2002500E0E51E0126EE
:1013800016FA00F0401E0140A94016FA05F56D1E40
:101390002A401143080070BC704710B50400601E5D
:1013A000B0F1807F01D301200EE0601E1B49086070
:1013B0000F215FF0FF30FFF7BAFF002018490860E7
:1013C000072018490860002010BD10B50400200057
:1013D000FFF796FF10BD2DE9F04104000D00160047
:1013E0000027FFF79EFF8046320029004046FFF7A6
:1013F000B4FF0100200040B2FFF799FFBDE8F08183
:1014000010B504002000FFF7C8FF10BD0CED00E090
:101410000000FA0500E400E018ED00E014E000E050
:1014200018E000E010E000E07047000010B5CC4C80
:10143000CC4820602000FEF731FF002801D00120B9
:1014400055E000F095F9C8480021C1610021016212
:1014500000214162002141610021C162002101633C
:10146000002141634FF40051C160C0480021016177
:101470000121C160102181605FF480014161012080
:1014800060600420A0601020E0608020B0FA80F04E
:10149000401E20614FF4A06060610020A061002028
:1014A000E061002020622000FEF78EFE002801D0BF
:1014B00001201CE0200000F01BF8002801D00120D2
:1014C00015E0200000F0ACF8002801D001200EE06B
:1014D000200000F04DF8002801D0012007E0200096
:1014E00000F028F8002801D0012000E0002010BD05
:1014F00070B504009C4D4FF48070A8616620286090
:101500000020686241F28836320029002000FEF790
:10151000E7FE002801D001200BE09920286032006E
:1015200029002000FEF7DCFE002801D0012000E0A9
:10153000002070BD1CB504008B494FF440708861D9
:10154000EB2008604FF44060C8615FF04070486273
:101550000A20486100200190002000906A46200087
:10156000FFF768F8002801D0012000E0002016BD38
:1015700030B58FB004004FF4807007908520019043
:1015800000200890002009905FF080700A900020F1
:10159000069001200B9000200C9000200D90002060
:1015A0000E9041F288352A0001A92000FEF798FE2E
:1015B000002801D0012031E02A0069462000FEF712
:1015C00058FF002801D0012028E0200000F09EF8FC
:1015D000002801D0012021E0812001909DF8001019
:1015E00011F00F010A225FF07060B0FA80F08240C3
:1015F00011438DF800102A0001A92000FEF770FEAB
:10160000002801D0012009E02A0069462000FEF7E9
:10161000BDFE002801D0012000E000200FB030BD49
:10162000F0B595B004004FF4807007900020099049
:101630000020069000200C9000200D9000200E90BD
:1016400010201190002013905FF48000149065200A
:101650000190002008905FF080750A9501200B90A2
:101660003F4E41F288373A0001A93000FEF738FEBC
:10167000002801D0012047E03A0069463000FEF71B
:10168000F8FE002801D001203EE006200190002055
:101690000A903A0001A93000FEF722FE002801D08E
:1016A000012031E002200F900220109001201290C2
:1016B000052001900A953B000FAA01A93000FEF712
:1016C00053FF002801D001201EE06120019001207D
:1016D0000B909DF8000010F03F0050F040008DF896
:1016E00000003A0001A93000FEF7FAFD002801D001
:1016F000012009E03A0069463000FEF747FE002865
:1017000001D0012000E0002015B0F0BD70B504004C
:10171000154D4FF44070A8610620286000206862D3
:1017200041F28836320029002000FEF7D9FD00285A
:1017300001D0012013E00D4A022010600220506009
:10174000052028605FF040706862330029002000A7
:10175000FEF70AFF002801D0012000E0002070BD44
:101760000C000020001000A0580000209000002075
:1017700010B586B03648016851F00201016000687A
:1017800010F00200059005983248016851F00201FE
:101790000160016831F0020101602F48016851F0D9
:1017A00002010160016811F00201059105990168CB
:1017B00051F008010160016811F0080105910599D7
:1017C000016851F010010160006810F010000590F0
:1017D0000598402000900A200490022001900120EA
:1017E0000290022003901D4C6946200000F03CF856
:1017F00004200090092004900020029069462000F7
:1018000000F032F84FF40060009009200490144C6E
:101810006946200000F028F84FF48050009009201D
:1018200004906946200000F01FF804200090092071
:10183000049069460B4800F017F84FF400500090F0
:10184000092004906946200000F00EF806B010BD93
:101850003838024018380240303802400004024054
:10186000000C0240001002402DE9F8410022002344
:10187000002400260025102D80F00B81012717FA87
:1018800005F213000A681A4014009C4240F0FF80E1
:101890004A68022A02D04A68122A1FD12A00D208B6
:1018A00000EB8202D2F820C05FF00F0E15F00702A5
:1018B000D2B292001EFA02FE3CEA0E0CD1F810E001
:1018C00015F00702D2B292001EFA02FE5EEA0C0C7C
:1018D00066462A00D20800EB82021662D0F800C0E9
:1018E0005FF0030E2A00D2B252001EFA02F23CEA66
:1018F000020C91F8048018F003082A00D2B25200BA
:1019000018FA02F858EA0C0CC0F800C04A68012A1C
:1019100008D04A68022A05D04A68112A02D04A68CB
:10192000122A1BD186682A00D2B252001EFA02F295
:101930009643D1F80C802A00D2B2520018FA02F86D
:1019400058EA060686604268AF40BA434F68C7F35C
:101950000017AF403A439446C0F804C0C6682A0056
:10196000D2B252001EFA02FE36EA0E068F682A0034
:10197000D2B2520097403E43C6604A68D20040F15E
:101980008680DFF81421176857F4804717601268C3
:1019900012F480420092009ADFF800C12A009208F7
:1019A0005CF822705FF00F0E15F00302D2B29200C5
:1019B0001EFA02FE37EA0E07DFF8E420904201D15A
:1019C000002631E0DFF8DC20904201D101262BE037
:1019D000DFF8D420904201D1022625E0DFF8CC20A8
:1019E000904201D103261FE0DFF8C420904201D1CC
:1019F000042619E02F4A904201D1052614E02E4A10
:101A0000904201D106260FE02C4A904201D10726D0
:101A10000AE02B4A904201D1082605E0294A90426B
:101A200001D1092600E00A26F6B215F00302D2B26F
:101A30009200964037432A0092084CF82270224EBA
:101A40003268A243D1F804C05FEACC3C00D52243FF
:101A500032601E4F3E68A643D1F804C05FEA8C3C5A
:101A600000D526433E601A4F3A68A243D1F804C01D
:101A70005FEACC2C00D522433A60164F3E68A6435D
:101A8000D1F804C05FEA8C2C00D526433E606D1C63
:101A9000F1E6BDE8F1810000443802400838014019
:101AA000000002400004024000080240000C024016
:101AB000001002400014024000180240001C0240C6
:101AC0000020024000240240003C0140043C014050
:101AD000083C01400C3C0140BFF34F8FBFF36F8FB8
:101AE000002049490860BFF34F8FBFF36F8F47480D
:101AF000016851F400310160BFF34F8FBFF36F8F66
:101B00007047BFF34F8FBFF36F8F4048016831F4C8
:101B10000031016000203C490860BFF34F8FBFF3E4
:101B20006F8F704710B4002039490860BFF34F8FA2
:101B300038480168C1F34E32C1F3C900030043F6CF
:101B4000E07010EA421050EA8370334C20601800B5
:101B5000431E0028F3D11000421E0028ECD1BFF331
:101B60004F8F2A48046854F480340460BFF34F8FC9
:101B7000BFF36F8F10BC704710B400202449086079
:101B8000BFF34F8F2148016831F480310160BFF30A
:101B90004F8F20480168C1F34E32C1F3C9000300E2
:101BA00043F6E07010EA421050EA83701B4C20604C
:101BB0001800431E0028F3D11000421E0028ECD16B
:101BC000BFF34F8FBFF36F8F10BC704780B500F02D
:101BD00072F800F07DF800F030F800F027F80028E7
:101BE00001D000F029F800F06CF800200C490860E2
:101BF0000C480D49096801605FF01041096881F3E4
:101C0000088800688047FEE750EF00E014ED00E030
:101C100084ED00E080ED00E060EF00E074EF00E0B4
:101C200010E000E0A80000200400009010B500249F
:101C3000FFF7FCFB204310BDFEE730B591B0002458
:101C4000012005905FF48030069002200B905FF435
:101C500080000C9019200D904FF4D8700E90022047
:101C60000F900820109005A8FEF720FF050028001F
:101C7000C0B2002800D0FEE700F03EF804002000CB
:101C8000C0B2002800D0FEE70F2000900220019093
:101C9000002002904FF4A05003904FF48050049025
:101CA00006216846FFF7E5F80100C9B2002900D017
:101CB000FEE711B030BD80B5FFF70EFFFFF732FF32
:101CC00001BD80B5FFF71DFFFFF756FF01BD000006
:101CD00080B50748016851F4807101600320FFF767
:101CE00074FB0F20FFF7CEF900F004F8002002BDCE
:101CF000003C0240704700007CB500241B4801688E
:101D000051F080510160006810F080500090009800
:101D1000154E306850F480303060FEF755FE0500F7
:101D2000104C2068C00308D4FEF74EFE401B40F262
:101D3000E9318842F4D3032013E0306850F40030D6
:101D40003060FEF741FE06002068800308D4FEF7ED
:101D50003BFE801B40F2E9318842F5D3032000E0CE
:101D6000002076BD04700040007000404038024002
:101D70000F48016851F4700101600E49086850F085
:101D80000100086000200C4A10600A680B480240FD
:101D90000A600B480B4A1060086830F48020086025
:101DA0000020094908605FF000600849086070473A
:101DB00088ED00E00038024008380240FFFFF6FEE0
:101DC00010300024043802400C38024008ED00E0D6
:101DD00030B450F8041B79B10268436802440830FB
:101DE000DC0744BFA9F10104E31852F8045B43F88F
:101DF000045B091FF9D1ECE730BC704710B5074907
:101E000079441831064C7C44163404E00A68081DF5
:101E1000114488470146A142F8D110BD2C000000B2
:101E20004C0000004EF68851CEF20001086840F4E4
:101E300070000860BFF34F8FBFF36F8F4FF00070DB
:101E4000E1EE100A704700008FEBFFFFA4000000D6
:101E50000C0000200000000079FFFFFF0C000000D4
:101E6000B0000000000000200000000000F00DF8AD
:101E7000002801D0FFF7C2FFAFF300800020AFF3CE
:101E80000080FFF7A3FE00F002F80120704700F089
:101E900001B800000746384600F002F8FBE70000F2
:101EA00080B5AFF30080024A11001820ABBEFBE7FB
:101EB0002600020003480168034A1278891801606D
:101EC000704700BFAC000020080000207047FEE70C
:101ED000FEE7FEE7FEE770477047704780B5FFF703
:101EE000E9FF01BD00000000000000000102030442
:101EF000060708090148804701480047711D00088E
:101F0000051F0008AFF30080FFF78CFFFFF7AEFF5F
:101F1000100000000024F40001000000FFF7FEBFE5
:101F2000FFF7FEBFFFF7FEBFFFF7FEBFFFF7FEBFE5
:101F3000FFF7FEBFFFF7FEBFFFF7FEBFFFF7FEBFD5
:101F4000FFF7FEBFFFF7FEBFFFF7FEBFFFF7FEBFC5
:101F5000FFF7FEBFFFF7FEBFFFF7FEBFFFF7FEBFB5
:101F6000FFF7FEBFFFF7FEBFFFF7FEBFFFF7FEBFA5
:101F7000FFF7FEBFFFF7FEBFFFF7FEBFFFF7FEBF95
:101F8000FFF7FEBFFFF7FEBFFFF7FEBFFFF7FEBF85
:101F9000FFF7FEBFFFF7FEBFFFF7FEBFFFF7FEBF75
:101FA000FFF7FEBFFFF7FEBFFFF7FEBFFFF7FEBF65
:101FB000FFF7FEBFFFF7FEBFFFF7FEBFFFF7FEBF55
:101FC000FFF7FEBFFFF7FEBFFFF7FEBFFFF7FEBF45
:101FD000FFF7FEBFFFF7FEBFFFF7FEBFFFF7FEBF35
:101FE000FFF7FEBFFFF7FEBFFFF7FEBFFFF7FEBF25
:101FF000FFF7FEBFFFF7FEBFFFF7FEBFFFF7FEBF15
:10200000FFF7FEBFFFF7FEBFFFF7FEBFFFF7FEBF04
:10201000FFF7FEBFFFF7FEBFFFF7FEBFFFF7FEBFF4
:10202000FFF7FEBFFFF7FEBFFFF7FEBFFFF7FEBFE4
:10203000FFF7FEBFFFF7FEBFFFF7FEBFFFF7FEBFD4
:10204000FFF7FEBFFFF7FEBFFFF7FEBFFFF7FEBFC4
:10205000FFF7FEBFFFF7FEBFFFF7FEBFFFF7FEBFB4
:10206000FFF7FEBFFFF7FEBFFFF7FEBFFFF7FEBFA4
:10207000FFF7FEBFFFF7FEBFFFF7FEBFFFF7FEBF94
:10208000FFF7FEBFFFF7FEBFFFF7FEBFFFF7FEBF84
:10209000FFF7FEBFFFF7FEBFFFF7FEBFFFF7FEBF74
:0420A000FFF7FEBF89
:0200000490006A
:100000000000052055060090312200903322009018
:100010003522009037220090392200900000000025
:10002000000000000000000000000000218A009095
:100030003B22009000000000C18A0090258B0090B8
:10004000A5060090A5060090A5060090A5060090C4
:10005000A5060090A5060090A5060090A5060090B4
:10006000A5060090A5060090A5060090A5060090A4
:10007000A5060090A5060090A5060090A506009094
:10008000A5060090A5060090A50600903D220090D0
:1000900049220090A5060090A5060090A5060090B4
:1000A000A5060090A5060090A5060090A506009064
:1000B0004D220090A5060090A5060090A506009090
:1000C000A5060090A5060090A5060090A506009044
:1000D000A5060090A5060090A5060090A506009034
:1000E00059220090A5060090A5060090A506009054
:1000F000A5060090A5060090A5060090A506009014
:10010000A5060090A5060090A5060090A506009003
:10011000A5060090A506009085220090A5060090F7
:10012000A506009091220090A5060090A5060090DB
:10013000A5060090A5060090A5060090A5060090D3
:10014000A5060090A5060090A5060090A5060090C3
:10015000A5060090A5060090A5060090A5060090B3
:10016000A5060090A5060090A5060090A5060090A3
:10017000A5060090A5060090A5060090A506009093
:10018000A5060090A5060090A5060090A506009083
:10019000A5060090A5060090A5060090A506009073
:1001A0009D220090A5060090A9220090A50600902F
:1001B000A5060090A5060090A5060090A506009053
:0801C000A5060090A5060090C1
:1001D00010B5054C237833B9044B13B10448AFF381
:1001E00000800123237010BD4C010020000000009E
:1001F0003027029008B5034B1BB103490348AFF306
:10020000008008BD0000000050010020302702904F
:1002100001F0FF01102A2BDB10F0070F08D010F8B7
:10022000013B013A8B422DD010F0070F42B3F6D1BB
:10023000F0B441EA012141EA014122F007047FF0D4
:1002400000070023F0E80256083C85EA010586EA2B
:10025000010685FA47F5A3FA87F586FA47F6A5FA67
:1002600087F68EB9EED1F0BC01F0FF0102F0070273
:1002700032B110F8013B013A83EA010313B1F8D11E
:100280000020704701387047002D06BF35460338FF
:10029000073815F0010F07D1013015F4807F02BF38
:1002A000013015F4C03F0130F0BC0138704700BF89
:1002B0007BB972B90029BEBF00204FF0004106E0B3
:1002C00008BF00281CBF6FF000414FF0FF3000F066
:1002D000BFB9ADF1080C6DE904CE002909DB002B94
:1002E0001ADB00F04DF8DDF804E0DDE9022304B08C
:1002F0007047404261EB4101002B1BDB00F040F8EE
:10030000DDF804E0DDE9022304B0404261EB410185
:10031000524263EB43037047524263EB430300F0E6
:100320002FF8DDF804E0DDE9022304B0404261EB80
:1003300041017047524263EB430300F021F8DDF8BE
:1003400004E0DDE9022304B0524263EB430370474B
:1003500053B94AB9002908BF00281CBF4FF0FF312C
:100360004FF0FF3000F074B9ADF1080C6DE904CE28
:1003700000F006F8DDF804E0DDE9022304B0704780
:100380002DE9F047089D04468E46002B4DD18A4248
:10039000944669D9B2FA82F252B101FA02F3C2F17B
:1003A000200120FA01F10CFA02FC41EA030E94400C
:1003B0004FEA1C48210CBEFBF8F61FFA8CF708FB2D
:1003C00016E341EA034306FB07F199420AD91CEB05
:1003D000030306F1FF3080F01F81994240F21C8137
:1003E000023E63445B1AA4B2B3FBF8F008FB10337F
:1003F00044EA034400FB07F7A7420AD91CEB0404B4
:1004000000F1FF3380F00A81A74240F20781644483
:10041000023840EA0640E41B00261DB1D440002308
:10042000C5E900433146BDE8F0878B4209D9002D6C
:1004300000F0EF800026C5E9000130463146BDE8F6
:10044000F087B3FA83F6002E4AD18B4202D3824260
:1004500000F2F980841A61EB030301209E46002D0F
:10046000E0D0C5E9004EDDE702B9FFDEB2FA82F264
:10047000002A40F09280A1EB0C014FEA1C471FFAC2
:100480008CFE0126200CB1FBF7F307FB131140EAA9
:1004900001410EFB03F0884208D91CEB010103F176
:1004A000FF3802D2884200F2CB804346091AA4B238
:1004B000B1FBF7F007FB101144EA01440EFB00FE0C
:1004C000A64508D91CEB040400F1FF3102D2A64571
:1004D00000F2BB800846A4EB0E0440EA03409CE710
:1004E000C6F12007B34022FA07FC4CEA030C20FABD
:1004F00007F401FA06F31C43F9404FEA1C4900FADD
:1005000006F3B1FBF9F8200C1FFA8CFE09FB181159
:1005100040EA014108FB0EF0884202FA06F20BD9CC
:100520001CEB010108F1FF3A80F08880884240F21C
:100530008580A8F102086144091AA4B2B1FBF9F060
:1005400009FB101144EA014100FB0EFE8E4508D95B
:100550001CEB010100F1FF346CD28E456AD90238E0
:10056000614440EA0840A0FB0294A1EB0E01A142C5
:10057000C846A64656D353D05DB1B3EB080261EB33
:100580000E0101FA07F722FA06F3F1401F43C5E90D
:10059000007100263146BDE8F087C2F12003D84043
:1005A0000CFA02FC21FA03F3914001434FEA1C4785
:1005B0001FFA8CFEB3FBF7F007FB10360B0C43EA77
:1005C000064300FB0EF69E4204FA02F408D91CEB27
:1005D000030300F1FF382FD29E422DD90238634425
:1005E0009B1B89B2B3FBF7F607FB163341EA0341C5
:1005F00006FB0EF38B4208D91CEB010106F1FF3814
:1006000016D28B4214D9023E6144C91A46EA00460A
:1006100038E72E46284605E70646E3E61846F8E69C
:100620004B45A9D2B9EB020864EB0C0E0138A3E7E5
:100630004646EAE7204694E74046D1E7D0467BE7C6
:10064000023B614432E7304609E76444023842E73E
:10065000704700BFDFF834D0002103E00C4B5B583B
:10066000435004310B480C4B42189A42F6D30B4AC4
:1006700002E0002342F8043B094B9A42F9D304F00C
:1006800011F920F0EFFF01F093FC70470000052006
:1006900068600290000000204C0100204C01002006
:1006A0005C4E0120FEE7704708B500F08FFDBDE805
:1006B000084000F017BD00F08BBD406870474160F6
:1006C000704700004FF0E022D2F8FC3D43F0807309
:1006D000C2F8FC3D054B064AD3F8B01F0A43C3F8E5
:1006E000B02F1A6842F001021A607047001000E053
:1006F00055CEACC5511A01EB5301B1FBF3F0704775
:10070000014B5868704700BF001000E0704710B5FB
:1007100004460C211FF0F3FF204610BD036810B5FE
:100720001B69044631B19847A26863689B1A184454
:10073000606010BD9847A060FBE7704730B58DB092
:100740000D46144600212C2201A820F0CDFF01A85F
:1007500003F0EAFF9DF8040030B1BDF80630012037
:100760002B60BDF8103023600DB030BD10B50446CD
:1007700004211FF0C4FF204610BD000008B54FF44F
:1007800088714FF4F07003F079FF28B1034B2021FA
:10079000034A044820F01CFF08BD00BFB0270290A8
:1007A000D1270290FB270290032823D8DFE800F02E
:1007B000020B131A104B102110481A68B2FA82F279
:1007C000520905F0C1B80C4B40215A68B2FA82F2C6
:1007D00052090B48F5E7084B80219A68B2FA82F279
:1007E0005209F6E7044B40210648DA68B2FA82F271
:1007F0005209E6E7704700BF68010020000402408C
:100800000008024000180240032823D8DFE800F067
:10081000020B131A104B102110481A68003A18BF27
:10082000012205F091B80C4B40215A68003A18BFDC
:1008300001220B48F5E7084B80219A68003A18BF5F
:100840000122F6E7044B40210648DA68003A18BF57
:100850000122E6E7704700BF680100200004024063
:10086000000802400018024003280FD8DFE800F01B
:100870000206090B1021064805F06BB84021054817
:10088000FAE78021FBE740210348F5E7704700BF06
:1008900000040240000802400018024008B5032886
:1008A00013D8DFE800F0020A0D0F1021084805F008
:1008B00045F8431E5842584108BD40210548F6E717
:1008C0008021FBE740210448F1E70020F1E700BF69
:1008D00000040240000802400018024070B5084DB4
:1008E00000240126E0B2FFF7D9FF18B12B68012BD5
:1008F00018BF2E6001340435052CF3D170BD00BF44
:1009000068010020012380F8741080F8753070476A
:100910000020704741640039024B18BF0121197053
:10092000704700BFAF4B012000207047836B0BB1B5
:100930000846184770474FF6FF70704740680368D5
:100940009B6918477047000038B50446FFF7C6FF9B
:10095000204600F073FD2368094A4FF04041D3F868
:1009600088502046074BA8470023074D84F84A309B
:100970002846FFF7A7FE0123256184F86C3038BDB7
:1009800000FC03C000F807C07801002008B5036828
:100990000446D3F880309847236820469B6F9847D9
:1009A00000F032F9236820461B6F98474FF48051BE
:1009B000064804F0CEFF0821054804F0CAFF00F005
:1009C00023F9236820461B6F9847F8E70020024070
:1009D0000028024010B504460AF0C4FE23682046F1
:1009E000D3F8AC30BDE81040184700F0E1BC00F08F
:1009F000E5BC000070B500F047FD10490023C1F8C8
:100A00008430BFF34F8FD1F8803043F6E074C3F3E6
:100A1000C900C3F34E335B0103EA0406024646EA0B
:100A20008275013AC1F87452F9D2203B13F1200FBC
:100A3000F2D1BFF34F8FBFF36F8F70BD00ED00E0B9
:100A400000F092BC00F02CBD00F034BD00F096BC6C
:100A50000AF0EEB810B504467C211FF050FE204687
:100A600010BD90F877301BB1406803681B681847C9
:100A70001846704790F834100D4B10B590F874403C
:100A80001A788C4209D03AB90A490B4A0888148866
:100A9000108001220C801A7010BD002AFCD0064A7A
:100AA0000449148808880C8010800022F3E700BFF6
:100AB000A84B0120A64B0120A44B012070B50D4688
:100AC000194635B9094B40F2D221094A094820F0AC
:100AD0007FFDC0E90F52003A074B18BF01221A7080
:100AE0000368BDE87040D3F88C301847682802903E
:100AF000A0280290EE280290AE4B012008B5094BC9
:100B00001B888B4203D8084B1B88934205D9074B9F
:100B10009E21074A074820F05BFD074B1980074BD1
:100B20001A8008BDA44B0120A64B01203329029056
:100B300096290290EE280290AA4B0120AC4B01208E
:100B4000014608B5034B186801B101210AF024FEE3
:100B5000012008BDB04B0120034B00225A609A606F
:100B6000024A1A60704700BF780100209027029067
:100B70000121002208B5084607F004FC0A4B186062
:100B800028B90A4B28210A4A0A4820F021FD0022F0
:100B90000421012007F0D4FC074B186018B9074B5B
:100BA0002C21034AF0E708BD88010020B42A0290F6
:100BB000FD2A02902C2B029084010020802B0290B1
:100BC000024B4FF0FF31186807F032BC880100205B
:100BD000014B186807F066BC88010020024B002119
:100BE000186807F025BC00BF88010020FFF7F0BFA0
:100BF0000023034803491A46006807F0E7BC00BF1A
:100C0000840100200400002013B50023074C01A933
:100C10001A46206807F01CFD4FF0FF33002201A99F
:100C2000206807F015FD02B010BD00BF8401002050
:100C300003685B6C18470120704703689B6A18477C
:100C40000D4B82B01A6B42F400021A631A6B02F465
:100C500000020192019A1A6942F400021A611A69AB
:100C600022F400021A61054B054A1A614FF08062B6
:100C7000044B9A6002B0704700380240DC36002016
:100C8000C90C009000E100E040F2EF307047000036
:100C9000054B4FF080620360044BC3F88820BFF31C
:100CA0004F8FBFF36F8F7047242D029000E100E05B
:100CB00010B504464FF45A61FFF7EAFF20461FF0D3
:100CC0001EFD204610BD0000024B1B6858680368DB
:100CD0005B691847B04B012070B504460A4B0C30D5
:100CE00000262546602260602672667245F8203B29
:100CF00029460AF0A5FE04F55A63EE602435AB429E
:100D0000FBD1204670BD00BF242D029008B50B29F1
:100D10000BD8DFE801F01206100A0A0A0A080808D0
:100D20000808012008BD0520FCE7054B6621054A9F
:100D3000054820F04DFC0020F4E70220F2E700BF58
:100D4000C22B0290DD2B0290272C029008B50A29B5
:100D500009D8DFE801F010060E08080808060606A4
:100D60000600012008BD054B8721054A054820F0F3
:100D70002FFC0020F6E70220F4E700BFC22B029010
:100D8000792C0290272C02902DE9F8434F7F0C46D6
:100D900081463946FFF7BAFF94F81E80054648465B
:100DA0004146FFF7B3FF414606464846FFF7CEFFF0
:100DB000A18A628B424B521A1A649A61228B521A90
:100DC0001A61E28A586342EA014220695A64626801
:100DD000D863DA60216894F81CC080294FEA0C625D
:100DE00026D010D8202945EA020462D0402960D0DC
:100DF00004295ED02A43324B474542F40032DA617F
:100E00005BD0304A40E0B1F5807F07D0B1F5007F7C
:100E1000F0D142F4003242F0090203E042F4003221
:100E200042F00A02DA61E2681A625E6258612AE000
:100E3000A4682A43211D42F40032D962DA61227883
:100E40005E62586142B1012A21D01F4B40F211115C
:100E50001E4A1F4820F0BCFBDA690120618822F499
:100E60007F42013922F0100242EA0122DA61144B7A
:100E7000DA6942F02002DA61DA699206FCD41022C3
:100E80009A600028BDD0134A1A60BDE8F8836288D2
:100E9000BCF1FF00D96902F1FF3418BF012021F431
:100EA0007F4222F0100242EA042242F01002DA618C
:100EB000DDE744F40034DC61B7E740F20122E3E708
:100EC00000B0024001020100C42C0290DE2C02900E
:100ED000272C02900102020070B50C46897FFFF7B3
:100EE00035FF174BA68AE18A628B41EA06412569E4
:100EF000921B58635964DD631A642668E168082E02
:100F00000DD19A611A6158620E4A207F42EA00624E
:100F1000DA610D4A19625D61DD601A6070BD002200
:100F2000D86148091A610A0A00F4FC60C1F3C401DF
:100F300002F4784202430A439A63044AEDE700BF91
:100F400000B002400900010001020200010203009A
:100F5000034B1A68D207FCD423229A60704700BF63
:100F600000B0024030B5104C2568ED07FCD42325B5
:100F70000904FF2BA56041F001014FF002056563F4
:100F80006164E0630AD00949656241EA0363E36191
:100F9000074B22626061E060236030BDE561039B26
:100FA000A363044BF8E700BF00B002400900010052
:100FB0000100020001000300012070470C2070476F
:100FC0000C2303FB0100083070470C2303FB0100D6
:100FD000083070470120704742F2A830704742F253
:100FE000A83303FB01000830704742F2A83303FB2B
:100FF000010008307047012070471020704700EB57
:1010000001100830704700EB0110083070470846A7
:1010100002F054BB034B10B50446036009F05FFBBC
:10102000204610BDDC2D029010B50446FFF7F2FFFC
:10103000142120461FF063FB204610BD034B10B562
:101040000446036009F04BFB204610BDA82D02901A
:1010500010B50446FFF7F2FF42F2B03120461FF010
:101060004EFB204610BD0000034B10B50446036044
:1010700009F035FB204610BD742D029010B50446D2
:10108000FFF7F2FF182120461FF039FB204610BD64
:10109000094B10B50446036000F50F501C30FFF7F4
:1010A000B9FF04F12C00FFF7C9FF04F11400FFF7AA
:1010B000DBFF204610BD00BF102E029008B502488D
:1010C000FFF7E6FF08BD00BF9001002010B5044601
:1010D000FFF7DEFF42F2505120461FF010FB204682
:1010E00010BD00002DE9F34101F0ECFA00240546A3
:1010F00001F0ECFA2346014622462846009412F0FD
:1011000091FF264B264A2046264D1A6002F080FCAD
:10111000254812F0EFFE2B78BFF35B8FDB0736D448
:1011200028461FF0EEFA90B3204C214F214B04F1DA
:10113000140007F1180604F12C0823606060C4F85D
:101140000880E760266109F0CBFA1B4B40466361DB
:1011500009F0C6FA194B3846E36209F0C1FA04F502
:101160000053174A03F57C70C3F8DC2302F00EFE2F
:10117000224607F11401304602F0FEFD304602F02F
:101180009DFA104820F042FA28461FF0C6FA0E4891
:1011900002B0BDE8F041FFF7D7BB00BF144C0120FF
:1011A000003500208C010020080000209001002064
:1011B0006C250020102E0290742D0290A82D029014
:1011C000DC2D0290BD100090843400207047000098
:1011D0000148FFF7DBBB00BF8434002070B5234E0D
:1011E000234B244C3046244D2360FFF775FD2846E1
:1011F00016F024F8214B00224FF4807120481A8603
:101200001A6683F86C201A67DC60C3E912121D4964
:10121000C3E919124FF080715967012183F87810E2
:1012200019490B604FF4F0710180184801804FF4A8
:1012300088711748C3E90422C3E90622C3E90822DA
:10124000C3E90A22C3E90E22C3E91022C3E914222A
:10125000C3E91622C3E9016501800E4883F83420F2
:1012600001800D490A700D4A1A6070BDE426002005
:1012700058280290E0260020043500208434002005
:10128000A44B012001000001B04B0120AA4B01201A
:10129000A64B0120AC4B0120A84B0120E429029071
:1012A0000148FFF7F5BC00BFE4260020002070478E
:1012B00081807047C18070470181704741817047CC
:1012C0007047704770477047704710B4C488036810
:1012D000121B84885B6D091B12B25DF8044B09B2C6
:1012E00018474FF6FF7383814FF0FF330362136893
:1012F000C3611060704790F825201AB190F824203F
:1013000002B118607047002070478B8883800120ED
:101310007047704780F82610704790F82600704795
:10132000002210B5B1F90840B1F90A1002804280DC
:101330008480C18010BD0022028042808280C280F1
:1013400070470171704780ED020A70470173704762
:101350004173704701207047803070477430704788
:101360006C30704770470000034B902283F85A237B
:1013700083F85823704700BF00E100E0094A0A499A
:10138000D3680A48C3F30A03013B9BB20B8011697F
:10139000C1F30A01013901801364536B43F0010367
:1013A0005363704700680140843500208235002077
:1013B000014BD3F8AC00704700680140024B01229A
:1013C000C3F8AC105A62704700680140124A536972
:1013D000DB0370B51ED50023C2F88430BFF34F8FF6
:1013E000D2F8803043F6E074C3F3C900C3F34E3340
:1013F0005B0103EA0406014646EA81750139C2F839
:101400007452F9D2203B13F1200FF2D1BFF34F8F6A
:10141000BFF36F8F70BD00BF00ED00E070477047F5
:1014200010B504462C211FF06AF9204610BD10B5F6
:101430000446A4211FF063F9204610BD70B5044690
:1014400009F04BFC23685D6E0FF0DCFA0146204684
:10145000A84723682046054AD3F888504FF04041FA
:101460000023AC46BDE87040604700BF00FC03C0ED
:1014700009F01ABC90F84B3013B1024B01221A70DC
:1014800009F01EBC8035002009F0D8BB09F033BD3F
:1014900090F8252012B103685B6918477047000077
:1014A000034B4FF080629A604FF080729A607047F1
:1014B00000E100E0084B4FF08062C3F88820BFF3E2
:1014C0004F8FBFF36F8F4FF08072C3F88820BFF348
:1014D0004F8FBFF36F8F704700E100E0002370B5BE
:1014E000124E05468380124B0360336893F87620D2
:1014F0000AB1D86C00B998680368DB6A984733680A
:10150000B0FA80F4D86C640930B10368DB6A98479C
:10151000002808BF44F001042CB9064B2C21064AD0
:10152000064820F055F8284670BD00BFB04B01209A
:10153000202F02901C2E02907A2E0290B32E029041
:1015400070B5214E3578BFF35B8F15F0010538D1AA
:1015500030461FF0D6F8002833D01C4C1C4B04F149
:101560001C00E58123602561A58210F04AFB04F18F
:1015700040000BF07BFE174B20462364164B40F8CF
:101580006C3BFFF7ABFF154B1548E3662433A567AB
:1015900063676423C4F88450C4F89050C4E92235CA
:1015A0000023C4F89430C4F89830C4F89C30C4F8D0
:1015B000A0300C4BC4F8803020F028F830461FF0E3
:1015C000ACF8024870BD00BF7C3500208835002093
:1015D0005C550290402F0290B82F02901055029057
:1015E00065130090F054029010B5144C236823B397
:1015F000134B144A1B6C11888B4213D1124B198860
:1016000004F080FE226892F86630013382F866307A
:10161000FFF7EEFA20680AF0A5F80020BDE81040B8
:10162000FFF7C2B804F06EFE206803681B6A984793
:101630000020BDE81040FFF7E7B810BDB04B012017
:1016400000680140843500208235002008B5194823
:101650000623DFF86CC04FF4403E4FF44012C0E95F
:1016600000C3002383618383C0E90233C0E904E23D
:1016700003F07EF908B100F06DFD0F490C23012243
:101680000C484B6100230A628B60C1E90333C1E956
:101690000033C1E9063203F0E7F908B100F05AFD62
:1016A000064B4FF4CC621A600022C3E902220422E6
:1016B0001A6108BD903600206836002050360020A0
:1016C0000064004010B588B004461422002103A82D
:1016D00020F00AF822681B4B9A4230D103F5EA3316
:1016E000032119481A6C42F000721A641A6C02F055
:1016F00000720192019A1A6B42F002021A634FF4CF
:1017000040721B6B03F002030293029B0223CDE99C
:1017100003230923CDE9061303A903F089FF00225F
:101720000521132003F0BAFB132003F0E9FB14207A
:101730000022052103F0B2FB142003F0E1FB08B006
:1017400010BD00BF006400400004024008B5064A16
:101750000021064B064803F00DFA18B1BDE8084019
:1017600000F0F8BC08BD00BF343600202C36002045
:101770009036002008B50848084B0360002383809A
:10178000C0E905330123036203F026FC18B1BDE86C
:10179000084000F0DFBC08BDB83600200030024031
:1017A000026882B0084B9A420BD1D3F8302803F577
:1017B000006342F480521A631B6B03F4805301935D
:1017C000019B02B0704700BF003002400A4B07B5D2
:1017D0001A6B0521392042F480021A6300221B6B28
:1017E00003F480030193019B03F058FB392003B0FD
:1017F0005DF804EB03F084BB0038024008B50D48E7
:1018000000230D4AC0E90A33C0E90C33C0E90023C4
:10181000C0E9023303F00CFE08B100F09BFC01218B
:10182000044803F0BDFE18B1BDE8084000F092BCCA
:1018300008BD00BFDC36002000B002400E4B07B5EB
:1018400002689A4215D1A3F5F04305215A201A6B7C
:1018500042F400021A6300221B6B03F4000301939D
:10186000019B03F01BFB5A2003B05DF804EB03F06F
:1018700047BB03B05DF804FB00B0024015480022EE
:10188000154B04214FF0400C00B5C0E90032102385
:1018900089B082600793C0E903138021C0E905C1C4
:1018A00001A9C0E90722C0E90922CDE90133CDE948
:1018B0000333CDE9053305F0CDFA08B100F04AFC59
:1018C00002F0C2FE02F074FE08B100F043FC09B061
:1018D0005DF804FB24370020400100A0F0B5002390
:1018E00087B003932A4B1E68002E4ED10122022797
:1018F00003250C241A6001A9264B27489A6B42F055
:1019000001029A639B6B03F001030093009B4FF667
:101910008373CDE90454CDE9013703F089FE48F221
:10192000331301A91D480594CDE90137CDE90365BD
:1019300003F07EFE4CF2037301A919480594CDE92A
:101940000137CDE9036503F073FE4FF63F0301A9AC
:1019500014480594CDE90137CDE9036503F068FE2D
:10196000242301A910480594CDE90137CDE9036589
:1019700003F05EFE04230D480DEB03010594CDE951
:101980000137CDE9036503F053FE07B0F0BD00BF9A
:1019900020370020003802400010024000180240AA
:1019A000000C024000140240001C024000080240EB
:1019B00008B5144B1A6822BB01224FF683711248F6
:1019C0001A60124A936B23F00103936303F014FF30
:1019D00048F233110E4803F00FFF4CF203710D482B
:1019E00003F00AFF4FF63F010B4803F005FF2421E7
:1019F0000A4803F001FF04210948BDE8084003F04C
:101A0000FBBE08BD1C370020001002400038024019
:101A100000180240000C024000140240001C02406A
:101A20000008024008B5012006F092FCFBE708B56B
:101A3000642006F08DFCFBE738B50023FF2100246D
:101A400042F210751A46184602F000FA0023FF21F0
:101A500001201A4602F0FAF90023FF2102201A465B
:101A600002F0F4F90023FF2103201A4602F0EEF9F8
:101A70000023FF2104201A4602F0E8F90023FF2189
:101A800005201A4602F0E2F90023FF2106201A463B
:101A900002F0DCF90023FF2107201A4602F0D6F9F4
:101AA00004F5FA74A4B22046AC4288BF002402F0C8
:101AB0000FFAFA2006F04CFCF2E700000149002082
:101AC00008F072B9410B009008B5124A01210420B8
:101AD00006F036FD104B114A00211860104806F040
:101AE000E1FB104B104A00211860104806F0DAFBA9
:101AF0000F4B104A002118600F4806F0D3FB0F4B24
:101B00000F4A002118600F4806F0CCFB0E4B1860FE
:101B100008BD00BF5C3002905C3700209830029016
:101B2000251A00906437002038300290B7060090E4
:101B300058370020743002902F1A00906037002030
:101B4000BC300290391A0090683700202DE9F04F20
:101B500091B014220021DFF8ACB10BA8DFF8A8A1E6
:101B60001FF0C2FD654B664F58461A6B1021DFF817
:101B70009C91002442F01002DFF894810125032695
:101B80001A631A6B02F010020092009A1A6B42F06C
:101B900002021A631A6B02F002020192019A1A6B96
:101BA00042F040021A631A6B02F040020292029A5B
:101BB0001A6B42F400721A631A6B02F400720392F9
:101BC000039A1A6B42F008021A631A6B02F00802B9
:101BD0000492049A1A6B42F480621A631A6B02F43C
:101BE00080620592059A1A6B42F020021A631A6B02
:101BF00002F020020692069A1A6B42F480721A636F
:101C00001A6B02F480720792079A1A6B42F0010273
:101C10001A631A6B02F001020892089A1A6B42F0DA
:101C200080021A631A6B02F080020992099A1A6BF9
:101C300042F004021A6300221B6B03F004030A93B0
:101C40000A9B03F081FE50460022082103F07CFE2F
:101C5000384600224FF4805103F076FE48460022B9
:101C6000C02103F071FE00224046402103F06CFECB
:101C700010230BA95846CDE90B35CDE90D4603F0ED
:101C8000D7FC08230BA95046CDE90B35CDE90D440F
:101C900003F0CEFC4FF480530BA93846CDE90B3549
:101CA000CDE90D4403F0C4FC4FF400624FF48813F7
:101CB0000BA93846CDE90B2302230D9303F0B8FCA2
:101CC000C0230BA94846CDE90B35CDE90D4603F0FD
:101CD000AFFC40230BA94046CDE90B35CDE90D46BD
:101CE00003F0A6FC22460521282003F0D7F828207F
:101CF00003F006F911B0BDE8F08F00BF00380240D4
:101D00000020024000040240002802400008024077
:101D10000018024010B58EB034220021002401A822
:101D20001FF0E2FC2348244B4FF0280C4FF0350EF7
:101D300040F2152240F235218486046180F8364055
:101D4000C0E900340923C0E905C30B23C0E907E358
:101D500040F21B13C0E9092340F21D13C0E90244FD
:101D6000C0E90B1304F0D6F908B100F0F3F94FF411
:101D7000887302214FF4F0724FF4806001940C9349
:101D8000ADF834408DF83640CDE90431FF21CDE97E
:101D900006140521CDE90224CDE90801CDE90A4266
:101DA00001A90022034804F080FA08B100F0D2F93A
:101DB0000EB010BD6C3700200068014070B5ACB0AB
:101DC00004461422002106A81FF08EFC8422002164
:101DD0000BA81FF089FC2268464B9A4240F088808D
:101DE000082305200B93642310930223CDE91130BF
:101DF00001230BA8159304F0A5FD08B100F0AAF982
:101E00003D4B022400250E265A6C06A93B4842F0A1
:101E100080625A645A6C02F080620092009A1A6BD7
:101E200042F010021A631A6B02F010020192019A3A
:101E30001A6B42F400721A631A6B02F40072029277
:101E4000029A1A6B42F480621A631A6B02F480627F
:101E50000392039A1A6B42F040021A631A6B02F063
:101E600040020492049A1A6B42F480721A631B6B4C
:101E700003F480730593059B1023CDE90634CDE967
:101E800008540A9603F0D4FB4EF6FF7306A91C48CB
:101E90000A96CDE90634CDE9085403F0C9FBF723CF
:101EA00006A918480A96CDE90634CDE9085403F08E
:101EB000BFFB4FF4805306A91348CDE9063409232C
:101EC000CDE908540A9303F0B3FB4FF4464306A947
:101ED0000E480A96CDE90634CDE9085403F0A8FB74
:101EE00058202A46052102F0D9FF582003F008F8AF
:101EF0002CB070BD00680140003802400010024064
:101F00000024024000280240001802400020024045
:101F100010B594B01022002102240AA81FF0E4FB9F
:101F20001422002103A81FF0DFFB1F4B0121192001
:101F30001A6C42F080521A641B6C03F080530193B8
:101F4000019B1A4B1A6842F440421A601B6803F462
:101F500040430293029B4FF48033CDE908134FF4C2
:101F60008003CDE90E434FF4D873CDE9100308A8E0
:101F7000CDE9124404F01CFA00B1FEE704F0E0F9E8
:101F800000B1FEE70F234FF4A0520590072103A8EC
:101F9000CDE903344FF48053CDE9062304F0F4FB7C
:101FA00000B1FEE714B010BD0038024000700040E0
:101FB0008FB500211022684601241FF095FB1C26D6
:101FC00002F0C0FF4FF00052554B6846ADF800409C
:101FD000032540F20117CDE90123524B039302F090
:101FE000CFFF4FF040438DF8014000246846019335
:101FF0008DF808608DF80B40ADF80E4002F0C0FF80
:10200000022368468DF80B508DF801301623ADF889
:102010000E708DF8083002F0B3FF4FF010436846A1
:102020008DF80860042601938DF801508DF80B405F
:10203000ADF80E4002F0A4FF172368468DF801604A
:102040008DF808308DF80B50ADF80E7002F098FF47
:10205000052368468DF80C408DF8013013238DF868
:10206000083002F08DFF304602F07AFFBFF34F8F49
:10207000BFF36F8F2C4AC2F85042BFF34F8FBFF3AC
:102080006F8F536943F400335361BFF34F8FBFF336
:102090006F8FC2F88440BFF34F8FD2F8803043F681
:1020A000E074C3F3C900C3F34E335B0103EA0406D3
:1020B000014646EA81750139C2F86052F9D2203BE7
:1020C00013F1200FF2D1BFF34F8F536943F48033E4
:1020D0005361BFF34F8FBFF36F8F02F013FCFFF715
:1020E00017FFFFF733FDFFF771FBFFF787FBFFF7E4
:1020F000C5FBFFF70FFE00F053FAFFF7A7FA00F059
:10210000DDF9FFF737FB00F027F9FEF7CDFAFEF710
:10211000CAFA06F08DF8FFF7D7FC06F0A3F8FEE741
:10212000120000030100010100ED00E00268084B0D
:102130009A4210B5044601D102F0F6FB2368B3F1D0
:10214000804F03D1BDE8104001F0E8BE10BD00BFD4
:1021500000100040FEE700000D4B82B00F216FF031
:1021600001001A6C42F080521A641A6C02F080521C
:102170000092009A5A6C42F480425A6400225B6CCE
:1021800003F480430193019B02B002F087BE00BFBD
:1021900000380240214B1A6C42F0100270B51A64EC
:1021A00088B01B6C054601A903A803F01003029335
:1021B000029B04F0A9FB069B4BBB04F085FB184E69
:1021C000184B336040F2E733F360174BB0FBF3F387
:1021D000013B3046736000233361B360B36105F0A7
:1021E00073F9044680B9304604F07EFF044658B9BE
:1021F000362002F085FE0F2D0DD8224629463620C6
:1022000002F04CFE094B1D60204608B070BD04F082
:102210005BFB4000D3E70124F6E700BF0038024033
:10222000143800200010004040420F0064000020DD
:102230007047FEE7FEE7FEE7FEE77047014802F061
:102240001CBD00BF90360020FFF7F8BF014804F026
:10225000F7BF00BF143900204FF4006010B503F041
:1022600083FB064906480B78006801330B70002396
:10227000BDE810401A4606F0A9B900BF603800203A
:102280005C370020014804F0DBBF00BF1438002099
:10229000014803F00FB800BF68380020014803F080
:1022A000A7BF00BF6C370020014803F0EFB800BFA4
:1022B000DC3600200120704708B51FF0BBF916235B
:1022C00003604FF0FF3008BD08B51FF0B3F91623C7
:1022D0000360FEE770B50D4614460E46731B9C4224
:1022E00001DC204670BDAFF3008006F8010BF5E776
:1022F00070B50D4614460E46731B9C4201DC204609
:1023000070BD16F8010BAFF30080F5E74FF0FF301A
:1023100070474FF4005300204B6070470120704716
:10232000002070470A4A116808B5034609B90949EF
:1023300011601068694603448B4206D91FF07AF990
:102340000C2303604FF0FF3008BD1360FCE700BFB3
:1023500064380020604E01201022002100B589B0B1
:102360000DEB02001FF0C0F916484FF47A724FF0DF
:1023700080410023C0E9001247F23052039383608A
:10238000CDE90133C0E903238023836105F09CF884
:1023900008B1FFF7DFFE4FF4805304A90948049306
:1023A00005F0B6F908B1FFF7D5FE002301A90548ED
:1023B0000193039305F0C6FB08B1FFF7CBFE09B00C
:1023C0005DF804FB1439002037B503680546234A3D
:1023D000934229D1224B4FF48060224C40215A6C09
:1023E00042F001025A645B6C1F4A03F00103009340
:1023F000009B4FF04063C4E900234FF400620023C8
:10240000C4E904024FF400522046C4E90213C4E9AF
:102410000623C4E9083302F053FE08B1FFF79AFE21
:102420006C62A56303B030BDB3F1804FFAD103F500
:102430000E3305211C201A6C42F001021A6400229E
:102440001B6C03F001030193019B02F027FD1C208C
:1024500003B0BDE8304002F053BD00BF00000140B2
:1024600000380240683800202864024010B586B069
:1024700004461422002101A81FF036F922680D4BF2
:102480009A4215D103F59C3301A90B481A6B42F00F
:1024900001021A634FF480721B6B03F00103009377
:1024A000009B0223CDE901230123059303F0C0F82B
:1024B00006B010BD000001400000024010B510221F
:1024C0009AB0002400210DEB02001FF00DF91C2230
:1024D000214608A80394CDE901441FF005F92C22F8
:1024E00021460FA81FF000F92B482C4B8460446153
:1024F000C0E900344FF48773C0E90334802383615B
:1025000004F0E2FF08B1FFF725FE4FF4805304A961
:102510002148049305F0FCF808B1FFF71BFE1E48A4
:1025200005F002F808B1FFF715FE002401A91A48CA
:102530000394CDE9014405F005FB08B1FFF70AFE5D
:102540006023002208A914480E94CDE90834CDE98F
:102550000A44CDE90C4405F04FF808B1FFF7FAFD45
:1025600000234FF400520FA90B48139316931993AD
:10257000CDE914234FF00072CDE90F33CDE91133CB
:10258000CDE9172305F028FB08B1FFF7E3FD02486A
:10259000FFF76CFF1AB010BDC838002000000140E2
:1025A00008B50C484FF4E1330B4AC0E9002300237F
:1025B0000C22C0E9023303614362C0E90523C0E98C
:1025C000073305F06AFD18B1BDE80840FFF7C2BD4A
:1025D00008BD00BF6039002000100140F0B5ABB06D
:1025E00004461422002104A81FF07EF88422002152
:1025F00009A81FF079F82268204B9A423CD1402369
:1026000009A8099304F09EF908B1FFF7A3FD1C4B3C
:102610000227002603255A6C072404A9194842F012
:1026200010025A645A6C02F010020192019A1A6B5D
:1026300042F002021A631A6B02F002020292029A3C
:102640001A6B42F001021A631B6B089403F001033A
:102650000393039B8023CDE90665CDE9043702F09F
:10266000E7FF4FF4007304A907480894CDE9043745
:10267000CDE9066502F0DCFF2BB0F0BD0010014093
:10268000003802400004024000000240704710B5CC
:10269000044604211EF033F8204610BD012908B578
:1026A00006D0022908D059B901F0FEF9006808BD2A
:1026B00001F0FAF94068FAE701F0F6F98068F6E708
:1026C0000020F4E700487047F43002900120704782
:1026D00013B5002451B1036801AA01948DF8034099
:1026E0009C680DF10303A04702B010BD0846FBE74C
:1026F000C0897047008A7047C088704780887047DB
:10270000807A00F07F007047807AC0097047704778
:102710007047704770477047704730B585B00368A1
:10272000044601816D460146D3F884303C34284686
:10273000984795E8070084E8070005B030BD30B53C
:1027400085B00368044641816D460146D3F8843064
:102750003C342846984795E8070084E8070005B010
:1027600030BD0022028042808280C280704780F8A3
:1027700036107047036870B504461B6B15469847C2
:102780002368204629465B6EBDE87040184700204C
:102790007047806C70477047704710B50446082139
:1027A0001DF0ADFF204610BD10B504464C211DF0B4
:1027B000A6FF204610BD0000034B10B50446036081
:1027C0000CF05CFC204610BD58330290074B07B557
:1027D000036001900CF052FC019842F2A8311DF008
:1027E0008EFF019803B05DF804FB00BF58330290E0
:1027F00008B5FEF74DFE08BD036870B55E6B044674
:10280000114B8DB21B682BB9104B6C21104A11482B
:102810001EF0DEFE1049828D0988914203D80F4BCD
:102820006D210B4AF3E713F812200D4B1B6853F888
:10283000220003681B6B9847281A334601B22046D2
:10284000BDE87040184700BF084C012008310290D5
:102850004A310290853102900C4C0120CC3102901B
:10286000104C0120036870B504461B6B1546984751
:102870002368204629465B6BBDE87040184770B559
:1028800004461D46BDF91060FFF7ECFF236829469A
:1028900020469B6B9847236831462046DB6BBDE89A
:1028A000704018470022C0E90122C0E90322C0E9B4
:1028B0000522C0E907224FF480728284014A026037
:1028C000704700BF5032029010B504462622002106
:1028D0001EF00AFF2046FFF7E5FF044B2046236069
:1028E000FF2384F826300023A36210BDB456029063
:1028F00000224FF0FF318260C0E90021704710B51F
:102900000446FFF7F5FF204610BD000038B5044629
:102910002622002100251EF0E7FE2046FFF7C2FF19
:102920000A4B04F13C0025872360094BA3624FF654
:10293000FF73A3854FF47F03C4E90C53FFF7D8FF5F
:10294000044B2046A564236038BD00BF2456029086
:10295000B8320290C832029010B5044626220021F7
:102960001EF0C2FE2046FFF79DFF084B2046236065
:102970004FF6FF73E3844FF07E53A362E3620023BC
:1029800023636363A363E363236410BD1C57029056
:102990002DE9F04F2DED108B8DB004460FF05AFC51
:1029A0000023A14604F16C0AE36304F19808724B1A
:1029B00004F1E40704F598764FF4887B49F8403B2E
:1029C0004846FFF781FF5046FFF77EFF4046FFF77E
:1029D0009DFF3846FFF79AFF3046FFF797FF04F553
:1029E000BE73251D184609EE903AFFF78FFF04F5D8
:1029F000E47318460AEE103AFFF788FF04F50573F2
:102A0000184608EE103AFFF781FF04F518731846D0
:102A100008EE903AFFF77AFF04F52B73184609EE9B
:102A2000103AFFF773FF04F53E7318460BEE103AA9
:102A3000FFF76CFF04F5517318460AEE903AFFF762
:102A400065FF04F5647318460BEE903AFFF75EFFDE
:102A500004F5777318460CEE103AFFF757FF04F5AC
:102A6000856318460CEE903AFFF750FF04F274436A
:102A700018460DEE103AFFF76FFF04F597631846FE
:102A80000DEE903AFFF768FF04F2FC4318460EEE95
:102A9000103AFFF761FF04F5A86318460EEE903A6E
:102AA000FFF75AFF04F2845318460FEE103AFFF76F
:102AB00053FF04F5B96318460FEE903AFFF74CFF49
:102AC0004FF4E15104F5F1600CF0CEFA00224846D3
:102AD0004FF4F0731146CDF800B0FFF7D0FE4FF081
:102AE0007F4349462846A3660DF1100907F00CFE06
:102AF000002250464FF4F0731146CDF800B0FFF7B6
:102B0000BEFE4FF0FF3351462846C4F8943004F21D
:102B10000C6A07F0F9FD25235F224FF4D27140467D
:102B200000933223DFF868B0FFF7A9FE4FF07F4330
:102B300041464846C4F8C8304FF00003A4F8CC30F2
:102B4000D4F89830D3F88430984704F1D40399E846
:102B5000070083E80700DBF800302BB9074B602142
:102B6000074A08481EF034FD074B1B88012B11D87B
:102B7000064B6121024AF4E7583302900831029073
:102B80000A320290853102900C4C0120CC31029027
:102B9000084C0120DC4B0121186800F075FFDB4A6E
:102BA00003460A21504610F0DFFFD94BC4F8E0A0DD
:102BB0004FF00F0A404609A90993ADF828A00AF082
:102BC000FBFE4146284607F09FFD642350224FF448
:102BD000B9713846CDF800A0FFF751FE4FF0020A58
:102BE0004FF07F42D4F8E43039464846D3F8843079
:102BF00004F5C468C4F81421A4F818A1984704F592
:102C0000907399E8070083E80700DBF80030002B99
:102C1000A4D0C04A13885345AAD9BB48514600687E
:102C200000F032FFB94A03461421404610F09CFFE1
:102C3000B74B384609A909931123C4F82C814FF0EA
:102C40000008ADF828300AF0B7FE3946284607F0EC
:102C50005BFD1E2323224FF4C371304600935023A3
:102C600004F5C967FFF70BFE4FF07F41D4F8303110
:102C70004846C4F860113146D3F88430A4F8648122
:102C8000984704F5B67399E8070083E80700DBF876
:102C90000030002B3FF462AF9E4A1388042B7FF66E
:102CA00067AF99480421006800F0EEFE974A03469A
:102CB0000A21384610F058FF954B304609A9099370
:102CC0001023C4F8787104F25C67ADF828300AF07C
:102CD00073FE31461226284607F016FD142264239F
:102CE0004FF4B97119EE900A0096FFF7C8FD4FF046
:102CF0007F41D4F87C314846C4F8AC1119EE901AE3
:102D0000D3F88430A4F8B0A1984704F5DC7399E8AF
:102D1000070083E80700DBF80030002B3FF41EAF0C
:102D20007C4A1388052B7FF623AF7748052100687E
:102D300000F0AAFE754A03461421384610F014FF2D
:102D4000C4F8C471724F09A919EE900AADF8286051
:102D500009970AF031FE19EE901A284607F0D4FCC4
:102D60002523D7220B211AEE100A0093552304F2D3
:102D70008466FFF784FD4FF07F431AEE101A484631
:102D8000C4F8F831D4F8C831A4F8FC81D3F8843001
:102D9000984704F5017399E8070083E80700DBF81A
:102DA0000030002B3FF4DAAE5A4A1388032B7FF62B
:102DB000DFAEDFF854B103214FF00209DFF858818C
:102DC000DBF8000000F060FE504A03460A2130465E
:102DD00010F0CAFEC4F8106209AE13231AEE100AEE
:102DE00009973146ADF828300AF0E6FD1AEE101AC0
:102DF000284604AF07F088FC1521C922642318EE89
:102E0000100A00910A21FFF73AFD4FF07F41D4F8F4
:102E100014323846C4F8441218EE101AD3F884302D
:102E2000A4F8489204F5D369984718EE101A01F1F6
:102E30003C0397E8070083E80700D8F80030002B30
:102E40003FF48CAEDFF8CCA0BAF80030062B7FF64A
:102E50008FAE0621DBF8000000F016FE2B4A034679
:102E60001421484610F080FE294B314618EE100A16
:102E700009931623C4F85C9204F5D869ADF828309C
:102E80000AF09AFD18EE101A284607F03DFC25219D
:102E90009B22552318EE900A00910A21FFF7EFFCC0
:102EA0004FF07F41D4F860323846C4F890124FF0AA
:102EB0000001D3F88430A4F8941218EE901A9847C1
:102EC00018EE901A01F13C0397E8070083E8070029
:102ED000D8F80030002B3FF441AEBAF80030072B91
:102EE0007FF646AE0721DBF8000000F0CDFD074A73
:102EF00003460A21484610F037FE054B314618EECE
:102F0000900A0993172309E0144C012042320290E1
:102F1000B83202900C4C0120084C0120C4F8A89251
:102F20004FF00209ADF828300AF046FD18EE901A6D
:102F3000284607F0E9FB15208B2264230A21009024
:102F400019EE100AFFF79BFC4FF07F40D4F8AC322B
:102F500019EE101AC4F8DC023846D3F88430A4F80D
:102F6000E092984719EE101A01F13C0397E8070028
:102F700083E80700D8F8003004F2D467002B3FF450
:102F8000EDADBAF80030082B7FF6F2AD0821DBF882
:102F9000000000F079FDDE4A03461421384610F0A7
:102FA000E3FD4FF01500DB4B3146C4F8F47204F238
:102FB000FC67ADF8280019EE100A09930AF0FCFC32
:102FC00019EE101A284607F09FFB252050235F2298
:102FD0000A2100901BEE100AFFF751FC4FF0000190
:102FE0004FF07F40A4F82C13C4F828033046FFF7B5
:102FF0007FFC04F54D7396E8070083E80700D8F8D6
:103000000030002B3FF4AAADBAF80030092B7FF650
:10301000AFAD0921DBF8000000F036FDBC4A0346E5
:103020000A21384610F0A0FD1823C4F84073314639
:10303000B84F1BEE100AADF8283009970AF0BCFC17
:103040001BEE101A284607F05FFB50220A211AEEE9
:10305000900AFFF707FC4FF07F433046A4F87893BF
:10306000C4F87433FFF744FC04F5607396E8070076
:1030700083E80700D8F8003004F5E266002B3FF43F
:103080006DADBAF800300A2B7FF672AD0A21DBF87D
:10309000000000F0F9FC9E4A0346142130464FF030
:1030A000140910F061FDC4F88C6309AE1AEE900AA1
:1030B0000AF062FC1AEE900A31460997ADF82890A2
:1030C0000AF07AFC1AEE901A284607F01DFB252319
:1030D00023220A211BEE900A009350230027FFF7BA
:1030E000CEFB4FF07F413046A4F8C473C4F8C01340
:1030F00004F5E76AFFF7FCFB04F5737396E8070035
:1031000083E80700D8F80030002B3FF427AD824A4F
:1031100013880B2B7FF62CAD0B21DBF8000000F0A1
:10312000B3FC7B4A03460A21504610F01DFD794B43
:1031300031461BEE900A09930E23C4F8D8A34FF032
:10314000020AADF828300AF037FC1BEE901A284628
:1031500007F0DAFA15234A460A211CEE100A0093FA
:103160006423FFF78CFB4FF07F413046A4F810A496
:10317000C4F80C14FFF7BCFB04F5836396E8070062
:1031800083E8070004F24C71D8F800300391002B5B
:103190003FF4E4AC604A13880C2B7FF6E9AC0C21B9
:1031A000DBF8000000F070FC594A034649460398DA
:1031B00004F2747910F0D8FC564B03991CEE100AF7
:1031C00009931923C4F824143146ADF828300AF0C5
:1031D000F3FB1CEE101A284607F096FA96231A22E3
:1031E000CA211CEE900A00934D23FFF748FB4FF0D5
:1031F0007F413046A4F85C74C4F85814FFF778FB9C
:1032000004F2644396E8070083E80700D8F800302A
:10321000002B3FF4A3AC404A1388002B3FF4A8AC2A
:103220003946DBF8000000F02FFC394A03460A213A
:103230004846DFF8008110F097FC364B31461CEE13
:10324000900A09930D23C4F870940026ADF8283035
:103250000AF0B2FB1CEE901A284607F055FA3946E0
:103260001DEE100ADFF8D0900AF0D4FC1F231DEEEB
:10327000100ABF220093A0213523284FFFF7FFFA41
:1032800004F27443264A1DEE101AC3F8289028460B
:103290005A63244ADF62DE631E649A631E6307F08A
:1032A00033FA1DEE900A01210AF0B4FC2A231DEE28
:1032B000900ABF22009340F211112F23FFF7DFFA8B
:1032C00004F59763184A1DEE901A9F6228465A63C8
:1032D0003727164AC3F82C90DE631E649A631E6378
:1032E00007F012FA1EEE100A04210AF093FC2823BC
:1032F0001EEE100A07220093A0231946FFF7BFFA1B
:1033000004F2FC430A4A1EEE101ADE63284615E05A
:1033100042320290B83202900C4C0120295C8F3D61
:103320000000B841000048410000D8410000F041D1
:10333000C3F5A83EEC51B83D0AD7A33D9A62354A81
:103340001E64DA62344A1E635A63344A9A6307F091
:10335000DBF951461EEE900A0AF05CFC1EEE900A64
:10336000342395224FF4BD710097FFF788FA04F5D6
:10337000A8632B4A1EEE901ADE6328469A62294AF9
:103380001E64DA62284A1E635A639A6307F0BCF926
:103390001FEE100A05210AF03DFC95221FEE100ACF
:1033A000232340F2B9110097FFF769FA04F284531E
:1033B0001FEE101A2846C3F82880C3F82C80DE635D
:1033C0001E645E639E631E6307F09EF91FEE900A03
:1033D00003210AF01FFCD4221FEE900A232340F29F
:1033E000B9110097FFF74BFA04F5B96328461FEEB1
:1033F000901AC3F82890C3F82C80DE631E645E63C5
:103400009E631E6307F080F920460DB0BDEC108B63
:10341000BDE8F08F85EBD13E0000A0420000A04146
:10342000CDCCCC3DAE47E13D0000C8417047704770
:1034300000F598730868496803C370477047704780
:103440004160704770470000064BC0F84801C0F863
:103450004C310023C0F8503100F5A273C0F8403160
:10346000704700BF09350090012303727047704711
:10347000704710B441680346C2689B68541001EB62
:103480006200D20748BF0A595DF8044B48BFD358C1
:10349000184743682BB183682BB9C06800F001005E
:1034A0007047184670470120704710B504460C213C
:1034B0001DF025F9204610BD10B5044610211DF061
:1034C0001EF9204610BD10B504464FF4AE711DF034
:1034D00016F9204610BD08B50DF094FABDE8084075
:1034E0000DF0DABE10B50446D0F8400158B10368BB
:1034F000DB68984738B1D4F8400103689B68984767
:103500000023C4F8403110BD2DE9F14FD0E9555AE0
:103510000746A86803681B6A984742F2A733984297
:1035200005D8464BA321464A46481EF051F8686824
:1035300003681B6A98470F2803D8434BA421404ACD
:10354000F2E7E86803681B6A98470B2803D83F4BEB
:10355000A5213B4AE8E7DFF8FC900DF053FA043070
:103560000DF075FAD9F8000010B10368DB689847D0
:10357000D9F8000010B103681B689847DFF8D880BD
:10358000D8F8000010B103685B699847D7F83C0190
:1035900010B103685B689847D8F8000010B1036861
:1035A0001B689847D7F83C0110B103689B6898479F
:1035B000E86800214FF0000B03685B6A9847244BD2
:1035C0000446C0F804B00360594680F808B0A86803
:1035D00003685B6A9847064600F00CFB686859462A
:1035E00003685B6A98470546314600F0DDFAC9F882
:1035F0000040C7F83C51C8F80060E5B12B1DCAF87F
:10360000003030463368C5F808A0DB68F56398479A
:103610002B6828461B689847214630460EF0C6FFA7
:10362000236820461B699847236820465B6901B0E0
:10363000BDE8F04F18472B46E1E700BF8433029006
:103640001234029020350290673502900A360290BB
:103650001C370290F84B0120F44B0120F8B50446CA
:1036600017460E460DF094FA104B00251C602946B3
:103670000F4BC4E955760F4E236030680E4BC4E9FA
:103680005355C4E951350368C4E94F559B689847C1
:10369000284600F0BDF9336893F876200AB1D86C5B
:1036A00000B9986815F0B1FB2046F8BD044C012024
:1036B000D0360290B04B0120B8360290064BC0F8CD
:1036C0004801C0F84C310023C0F8503100F5A27316
:1036D000C0F84031704700BF09350090406A70471C
:1036E000806A704770478B88C069DB0A0A6850F8A7
:1036F00023001044704710B5C2B1137BB3B1547BA3
:10370000D27A240204F4E0641443026A98B202EB11
:10371000840213888B4202D192F9020010BD05D8B1
:103720000138043280B20028F3D1F7E70020F5E732
:1037300010B504462C211CF0E2FF204610BD00000D
:1037400030B58BB00446BDF860500895BDF85C50AC
:1037500007959DF8505006959DF84C5005959DF89D
:10376000485004959DF8445003959DF840500295AB
:103770009DF83C500195BDF8385000950EF070FB57
:10378000064B20462360159BE361169B2362199B21
:1037900063621A9BA3620BB030BD00BF403702903A
:1037A0000048704798370290062070477047000025
:1037B00030B5184D8FB02C78BFF35B8F14F0010437
:1037C00024D128461CF09DFF00B33F23062201218F
:1037D00011480993114B0A940893114B079307233F
:1037E000CDE9053204235F22CDE9033196230D494B
:1037F0000093B623CDE90B44CDE90144FFF7A0FFC8
:1038000009481DF003FF28461CF087FF02480FB04F
:1038100030BD00BFE8390020EC390020286002905C
:1038200034600290B4871490AD3700907047000068
:1038300030B5174D8FB02C78BFF35B8F14F00104B7
:1038400022D128461CF05DFFF0B13F235F221149D1
:103850000993114B11480893114B0A9407930123C4
:1038600001940493CDE905330423CDE902430F23EA
:10387000CDE90B4400931223FFF762FF09481DF0C6
:10388000C5FE28461CF049FF04480FB030BD00BFFC
:10389000183A0020E88C14902C6002901C3A00200A
:1038A000386002902D3800907047000030B5174DF9
:1038B0008FB02C78BFF35B8F14F0010423D128461E
:1038C0001CF01FFFF8B13F23012211490993114B4E
:1038D00011480893114B0A9407930223CDE905334D
:1038E0000423CDE903321E235F2200932423CDE974
:1038F0000B44CDE90144FFF723FF09481DF086FE84
:1039000028461CF00AFF04480FB030BD483A00209A
:103910001C921490306002904C3A00203C6002905F
:10392000A938009000207047002070470EB403B5FE
:1039300003AB002153F8042B01930DF07DFF02B07F
:103940005DF804EB03B070470CB407B504AB53F853
:10395000042B01930DF070FF03B05DF804EB02B08F
:1039600070470000436C10B5044673B3038F2BB946
:10397000184BC521184A19481DF02AFEC38E00EBCA
:1039800043035B8C0BB30FF041FB238F012B03D858
:10399000134BCB21134AEEE7E28E40F63F10531C47
:1039A0009BB2092B194688BFA3F10A0104EB410120
:1039B000498C814209D10A2B04EB420228BF002323
:1039C000508C04EB4303588451842046BDE81040DA
:1039D0000FF01EBA8C500290955002904051029008
:1039E0008A510290985102900FF0DBB910B586B061
:1039F00002AC84E806001A460AAB214605930193FF
:103A0000099B0093089B0CF0BBFB06B010BD0000A7
:103A100038B518BB124B13481B681349B3B11A6869
:103A20009C681A441C4402605A681A440A600F4B8E
