:020000040800F2
:10000000B0080020F51E0008CD1E0008CF1E000815
:10001000D11E0008D31E0008D51E000800000000F5
:10002000000000000000000000000000D71E0008D3
:10003000D91E000800000000DB1E0008DD1E0008BD
:100040001D1F0008211F0008251F0008291F000888
:100050002D1F0008311F0008351F0008391F000838
:100060003D1F0008411F0008451F0008491F0008E8
:100070004D1F0008511F0008551F0008591F000898
:100080005D1F0008611F0008651F0008691F000848
:100090006D1F0008711F0008751F0008791F0008F8
:1000A0007D1F0008811F0008851F0008891F0008A8
:1000B0008D1F0008911F0008951F0008991F000858
:1000C0009D1F0008A11F0008A51F0008A91F000808
:1000D000AD1F0008B11F0008B51F0008B91F0008B8
:1000E000BD1F0008C11F0008C51F0008C91F000868
:1000F000CD1F0008D11F0008D51F0008D91F000818
:10010000DD1F0008E11F0008E51F0008E91F0008C7
:10011000ED1F0008F11F0008F51F0008F91F000877
:10012000FD1F000801200008052000080920000824
:100130000D200008112000081520000819200008D3
:100140001D20000821200008252000082920000883
:100150002D20000831200008352000083920000833
:100160003D200008412000084520000849200008E3
:100170004D20000851200008552000085920000893
:100180005D20000861200008652000086920000843
:100190006D200008712000087520000879200008F3
:1001A0007D200008812000088520000889200008A3
:1001B0008D20000891200008952000089920000853
:1001C0009D200008A12000087CB50400012600F055
:1001D000FBFB0500002C01D101205AE0206A4028D9
:1001E00094F84000012801D1022052E0012084F857
:1001F000400094F8410000280AD1002084F8400013
:10020000200000F0E0FB41F28831200000F0B4FA59
:100210002068006830F4F850A168491E50EA0120B7
:1002200021680860A06C00902B0000222021200093
:1002300000F0A4FA0100C9B2002926D121680A6899
:1002400014490A40616852EA0162E1680A43E169BF
:100250000A43216A0A4321680A6021684A680E49F4
:100260000A40216952EA014261690A43A1690A43CD
:1002700021684A602168096851F001012268116013
:1002800000216164012184F84110002184F84010AC
:10029000C0B276BD2FFFFF00FEF8E0FF10B50400EE
:1002A000002C01D101201AE094F84000012801D16E
:1002B000022014E0012084F8400020680068400813
:1002C000400021680860200000F084FB002060648A
:1002D000002084F84100002084F84000002010BD78
:1002E0002DE9F84304000D0016005FF0010800F04E
:1002F0006BFB0700A8690028E8690028286A002825
:1003000094F84000012801D102203DE0012084F84A
:10031000400094F8410001282FD1002060640220A1
:1003200084F8410000963B0000222021200000F0CC
:1003300025FA81464846C0B2002820D10022290073
:10034000200000F044FA686A002812D100963B00B1
:1003500001220221200000F011FA81464846C0B275
:1003600000280CD102202168C860012084F84100D7
:1003700005E0012084F8410001E05FF0020900205F
:1003800084F840004846C0B2BDE8F2832DE9F84346
:1003900005000C001600002700F016FB80462868B8
:1003A00010F1200995F84000012801D102205EE0FB
:1003B000012085F8400095F84100012850D1002027
:1003C0006864002C45D0122085F841002868006937
:1003D000401CE86228680069401CA8626C622868BA
:1003E000406930F0406029684861E86A002815D00B
:1003F0000096434601220421280000F0BFF90700BF
:100400003800C0B2002809D1686A411C69620078CE
:1004100089F80000E86A401EE862E6E73800C0B2EA
:10042000002812D10096434601220221280000F044
:10043000A5F907003800C0B2002806D102202968BB
:10044000C860280000F04CF90700012085F8410041
:1004500008E0686C50F0080068640120070001E0C3
:1004600002200700002085F840003800C0B2BDE837
:10047000F2832DE9FC4705000C001600002700F070
:10048000A3FA80462868D0F81890286810F1200A4E
:1004900095F84000012801D1022063E0012085F891
:1004A000400095F84100012855D100206864002CD7
:1004B0004AD0222085F8410028680069401CA863C2
:1004C00028680069401C68632C632868406930F024
:1004D000406050F08060296848612868C0F8189032
:1004E000A86B002815D0009643460122062128005B
:1004F00000F044F907003800C0B2002809D1286B89
:10050000411C29639AF800100170A86B401EA86373
:10051000E6E73800C0B2002812D100964346012217
:100520000221280000F02AF907003800C0B2002894
:1005300006D102202968C860280000F0D1F8070021
:10054000012085F8410008E0686C50F008006864FC
:100550000120070001E002200700002085F840008C
:100560003800C0B2BDE8F6872DE9FC4704000D0055
:1005700016001F005FF0010800F026FA8146A86906
:100580000028E8690028286A002894F8400001281B
:1005900001D102204CE0012084F8400094F8410091
:1005A00001283ED100206064422084F84100009779
:1005B0004B4600222021200000F0E0F88246504601
:1005C000C0B200282FD13068216888627068216825
:1005D0004862B0682168C8622068016831F440014F
:1005E0003069014351F4800120680160F068A8621D
:1005F0005FF000622900200000F0E9F800974B4608
:1006000001220821200000F0B9F882465046C0B20D
:10061000002808D108202168C860012084F8410022
:1006200001E05FF0020A002084F840005046C0B2AA
:10063000BDE8F6872DE9F84304000D0016005FF0D1
:10064000010800F0C1F90700A8690028E86900283E
:10065000286A002894F84000012801D102203DE0DA
:10066000012084F8400094F8410001282FD1002097
:100670006064822084F84100A06C00903B0000225E
:100680002021200000F07AF881464846C0B20028B8
:100690001FD12068016831F00801706801432068AB
:1006A0000160706808280BD1306821680863102049
:1006B0002168C8602068006850F4801021680860D4
:1006C0005FF040622900200000F081F801E05FF057
:1006D0000209002084F840004846C0B2BDE8F28319
:1006E0007CB50400002500F06FF9060094F8410085
:1006F00080073ED5002084F840002068006840074D
:1007000011D52068006830F0040021680860E06BB3
:1007100000F07EF905002800C0B2002803D0606C0C
:1007200050F0040060642068006850F00200216806
:100730000860A06C0090330001220221200000F02C
:100740001DF805002800C0B200280BD10220216846
:10075000C860A06C0090330000222021200000F02F
:100760000DF805002800C0B2002802D1012084F84D
:1007700041002800C0B276BD816470472DE9F04188
:1007800005000E0090461F00069C286880683042D5
:1007900001D0012000E000204146C0B2C9B2884229
:1007A00012D014F1010FF0D0002C04D000F00CF99D
:1007B000C01B8442E9D2042085F84100686C50F0E7
:1007C00001006864012000E00020BDE8F08110B461
:1007D0004B6A002B06D0B2F1406F03D08B6A5B1ED0
:1007E000046823618B69002B79D00B6A002B3ED003
:1007F0008B680468E361CB69002B20D0CC6A0B6B5B
:100800001C434B6B1C434B6A1C434B6954EA8344A7
:100810000B691C430B6A1C43CB681C43CB691C430C
:100820008B691C430B681C43144303685C61B2F181
:10083000406F00F0C6804B680468A361C1E0CC6AD9
:100840000B6B1C434B6B1C434B6A1C434B6954EAB8
:1008500083440B691C430B6A1C43CB691C438B69A3
:100860001C430B681C43144303685C61A9E0CB691B
:10087000002B1ED0CC6A0B6B1C434B6B1C434B6A8A
:100880001C434B6954EA83440B6A1C43CB681C43EA
:10089000CB691C438B691C430B681C4314430368DE
:1008A0005C61B2F1406F00F08C804B680468A3611A
:1008B00087E0CC6A0B6B1C434B6B1C434B6A1C439D
:1008C0004B6954EA83440B6A1C43CB691C438B6914
:1008D0001C430B681C43144303685C6171E00B6AA2
:1008E000002B39D08B680468E361CB69002B1DD0E5
:1008F000CC6A0B6B1C434B6B1C434B6A1C434B6910
:1009000054EA83440B691C430B6A1C43CB681C43A9
:10091000CB691C438B691C43144303685C61B2F1CF
:10092000406F4ED04B680468A3614AE0CC6A0B6B01
:100930001C434B6B1C434B6A1C434B6954EA834476
:100940000B691C430B6A1C43CB691C438B691C431A
:10095000144303685C6134E0CB69002B1BD0CC6A84
:100960000B6B1C434B6B1C434B6A1C434B6954EA97
:1009700083440B6A1C43CB681C43CB691C438B69C3
:100980001C43144303685C61B2F1406F19D04B689B
:100990000468A36115E04B6A002B12D0CC6A0B6B84
:1009A0001C434B6B1C434B6A1C434B6954EA834406
:1009B0000B6A1C43CB691C438B691C4314430368BB
:1009C0005C6110BC7047704701480068704700BF09
:1009D000AC000020704730B4002513E050F8042B21
:1009E000D30744BFA9F101039A18091F042942F84B
:1009F000045BFAD213468C0744BF15809B1CC907C1
:100A000048BF1D7050F8041B0029E7D130BC704767
:100A100070B50400A56DFFF7D7FF060094F8350008
:100A2000022806D080206065002084F83400012070
:100A30003BE02068006830F01600216808602068FC
:100A4000406930F0800021684861206C002802D1A4
:100A5000A06C002805D02068006830F008002168EC
:100A6000086020680068400840002168086020682D
:100A70000068C0070ED5FFF7A7FF801B0628F6D336
:100A800020206065002084F83400032084F83500BD
:100A900003200AE03F21E06D8140A960002084F836
:100AA0003400012084F83500002070BD2DE9FC41A0
:100AB00004000026002C01D10120D8E12078C007D5
:100AC0006DD5DFF89405016811F00C01042909D0F7
:100AD000006810F00C0008280ED1DFF880050068CF
:100AE000400209D5DFF86C050068800357D56068BF
:100AF000002854D10120BAE16068B0F5803F06D1EA
:100B0000DFF85005016851F48031016026E060682B
:100B100000280AD1DFF83C05016831F4803101601A
:100B2000016831F48021016018E06068B0F5A02F01
:100B30000AD1DFF82005016851F4802101600168C5
:100B400051F48031016009E0DFF80805016831F4F3
:100B500080310160016831F4802101606068002803
:100B60000ED0FFF731FF0500DFF8E80400688003CE
:100B700015D4FFF729FF401B6528F5D3032076E144
:100B8000FFF722FF0500DFF8CC040068800306D5DC
:100B9000FFF71AFF401B6528F5D3032067E1207893
:100BA000800752D5DFF8B004016811F00C0F09D0AE
:100BB000006810F00C00082816D1DFF8A0040068C7
:100BC000400211D4DFF88C040168890704D5E1687C
:100BD000012901D001204AE1016831F0F8012269C0
:100BE00051EAC201016030E0E06800281AD0DFF865
:100BF0006474386850F001003860FFF7E5FE0500C6
:100C00003868800706D4FFF7DFFE401B0328F7D3C0
:100C100003202CE1386830F0F800216950EAC10067
:100C2000386012E0DFF82C74386840084000386003
:100C3000FFF7CAFE05003868800706D5FFF7C4FE37
:100C4000401B0328F7D3032011E12078000728D5A3
:100C50006069002812D0DFF80874386850F001008D
:100C60003860FFF7B1FE05003868800719D4FFF738
:100C7000ABFE401B0328F7D30320F8E0DFF8E07356
:100C80003868400840003860FFF79EFE050038686D
:100C9000800706D5FFF798FE401B0328F7D30320F3
:100CA000E5E02078400740F18780DFF8C0733868BE
:100CB000C0000AD4386850F080503860386810F0AE
:100CC00080500090009801200600DFF8A483D8F837
:100CD0000000C00513D4D8F8000050F48070C8F8A4
:100CE0000000FFF771FE0500D8F80000C00506D42B
:100CF000FFF76AFE401B6528F6D30320B7E0A06823
:100D0000012806D1DFF86C03016851F00101016090
:100D100025E0A06800280AD1DFF8580301684908D7
:100D200049000160016831F00401016017E0A0682A
:100D300005280AD1DFF83C03016851F00401016085
:100D4000016851F00101016009E0DFF82803016842
:100D5000490849000160016831F004010160A068A0
:100D6000002810D0FFF730FE0500DFF80803006808
:100D7000800719D4FFF728FE401B41F289318842D1
:100D8000F3D3032073E0FFF71FFE0500DFF8E40252
:100D90000068800708D5FFF717FE401B41F2893134
:100DA0008842F3D3032062E03000C0B2012803D1AF
:100DB000386830F080503860A069002856D0DFF8DD
:100DC0009802006810F00C0008284DD0A069022895
:100DD00037D1DFF88072386830F080703860FFF704
:100DE000F3FD80463868800107D5FFF7EDFDB0EBD5
:100DF00008000328F6D3032039E0E169206A0143A3
:100E0000606A51EA8011A06A4008401E51EA004120
:100E1000E06A51EA006151F00051DFF840020160E0
:100E2000386850F080703860FFF7CEFD05003868F4
:100E300080011BD4FFF7C8FD401B0328F7D3032014
:100E400015E0DFF81072386830F080703860FFF716
:100E5000BBFD05003868800108D5FFF7B5FD401BD4
:100E60000328F7D3032002E0012000E00020BDE8C2
:100E7000F6812DE9F04104000D000026002C01D17F
:100E800001209FE0DFF8F071386810F00F00A842F1
:100E90000BD238680009000128433860386810F028
:100EA0000F00A84201D001208CE02078800719D5DE
:100EB0002078400705D5DFF8A001016851F4E05122
:100EC00001602078000705D5DFF88C01016851F436
:100ED00060410160DFF880110A6832F0F002A0681A
:100EE00002430A602078C00737D56068012806D120
:100EF000DFF860010068800311D4012062E06068BF
:100F0000022806D1DFF84C010068800107D40120D7
:100F100058E050480068800701D4012052E0DFF813
:100F20003881D8F800108908890060680143C8F842
:100F30000010FFF749FD0600D8F8000010F00C0083
:100F40006168B0EB810F08D0FFF73EFD801B41F2D6
:100F500089318842F0D3032034E0386810F00F0064
:100F600085420BD238680009000128433860386890
:100F700010F00F00A84201D0012023E020784007A4
:100F800006D535490A6832F4E052E06802430A6047
:100F90002078000707D53048016831F460412269A4
:100FA00051EAC201016000F00FF834492A4A126880
:100FB000C2F30312895CC8402B4908600F2000F07F
:100FC00061F80020BDE8F0812DE9F0410024002502
:100FD000002600272048006810F00C00002804D0EC
:100FE000042804D0082804D031E01E4830E024480A
:100FF0002EE0DFF86880D8F8000010F03F00040011
:10100000D8F8000040020CD5D8F80000C0F38810D2
:101010001B49A1FB00012200002300F059F8050044
:101020000BE0D8F80000C0F388100E49A1FB0001C6
:101030002200002300F04CF80500D8F80000C0F3AF
:101040000140401C40000600B5FBF6F000E00548FA
:10105000BDE8F08100380240083802400438024000
:10106000743802400024F40004000020403802409C
:101070000070004070380240003C0240E41E00084E
:1010800040787D0110B504004FF47A700D4909785D
:10109000B0FBF1F00C490968B1FBF0F000F0B0F9D9
:1010A000002801D001200CE0102C09D200222100E0
:1010B0005FF0FF3000F08FF904480460002000E08A
:1010C000012010BD080000200400002000000020C6
:1010D000BBBBE1B1B2F5803F80F07E80022A1ED911
:1010E0008C46B1FBF2F102FB11C31B0443EA10432F
:1010F000B3FBF2FC02FB1C3380B240EA0343B3FBB8
:10110000F2F002FB103240EA0C4000237047022A42
:1011100005D98446B0FBF2F002FB10C270474AB119
:1011200005D100F0010249085FEA30007047002253
:101130000023704700F078B90B0002000021002066
:101140007047904271EB030CF6D3B3F5803F2FD27A
:10115000F0B5B3FA83F7B1FA81F4A7F10F0E3D1B96
:101160005340CEF1200602FA0EF2F3415340B5F19E
:101170000F0746D80F3C2C444140C4F12006A04044
:10118000F1414140B1FBF3F603FB1611A2FB06450A
:10119000001BA94102D2761E8018594180EA010243
:1011A00021FA0EF362FA0EF200215A403046F0BDE9
:1011B00030B4B1FBF3FC03FB1C11A2FB0C45001B7C
:1011C000A94103D2ACF1010C8018594130BC024650
:1011D0000B46604600217047B2F1807F65D3F0B5C1
:1011E000B2FA82F7B1FA81F4C7F10F063D1B22FA79
:1011F00006F307F1110EF24120355A40B5F10F0701
:10120000B8D94140C4F12006A040F1414140B1FBB2
:10121000F3FC03FB1C11A2FB0C45001BA94103D2EC
:10122000BCF1010C801859410F2F12D30F3FC90395
:1012300041EA5041B1FBF3F603FB1611A2FB064550
:10124000D4EBC030A94102D2761E8018594146EA3B
:10125000CC3C07B34140C7F12006B840F1414140C2
:10126000B1FBF3F603FB1611A2FB0645001BA941D7
:1012700002D2761E8018594180EA010221FA0EF34B
:10128000C7F1200462FA0EF20CFA07F05A402CFA69
:1012900004F13043F0BD80EA010221FA0EF300218F
:1012A00062FA0EF260465A40F0BD8C46B1FBF2F194
:1012B00002FB11C31B0243EA1063B3FBF2FC02FB07
:1012C0001C331B024CEA002043EA1063B3FBF2FC20
:1012D00002FB1C331B024CEA002043EA1063B3FB01
:1012E000F2FC02FB1C331B024CEA002043EA1063B1
:1012F000B3FBF2FC02FB1C324CEA002000237047D7
:1013000010B410F00703DFF8044122684FF6FF0124
:101310000A40DFF8FC1051EA03210A43226010BCA6
:101320007047DFF8E8000068C0F30220704710B48F
:10133000020052B2002A05D40A01364B040064B2FE
:101340001A5508E00A01344B040064B214F00F048B
:10135000234403F8042C10BC704770B4030013F04E
:101360000704D4F10700052801D3042001E0D4F1DB
:101370000700251D072D01D2002500E0E51E0126EE
:1013800016FA00F0401E0140A94016FA05F56D1E40
:101390002A401143080070BC704710B50400601E5D
:1013A000B0F1807F01D301200EE0601E1B49086070
:1013B0000F215FF0FF30FFF7BAFF002018490860E7
:1013C000072018490860002010BD10B50400200057
:1013D000FFF796FF10BD2DE9F04104000D00160047
:1013E0000027FFF79EFF8046320029004046FFF7A6
:1013F000B4FF0100200040B2FFF799FFBDE8F08183
:1014000010B504002000FFF7C8FF10BD0CED00E090
:101410000000FA0500E400E018ED00E014E000E050
:1014200018E000E010E000E07047000010B5CC4C80
:10143000CC4820602000FEF731FF002801D00120B9
:1014400055E000F095F9C8480021C1610021016212
:1014500000214162002141610021C162002101633C
:10146000002141634FF40051C160C0480021016177
:101470000121C160102181605FF480014161012080
:1014800060600420A0601020E0608020B0FA80F04E
:10149000401E20614FF4A06060610020A061002028
:1014A000E061002020622000FEF78EFE002801D0BF
:1014B00001201CE0200000F01BF8002801D00120D2
:1014C00015E0200000F0ACF8002801D001200EE06B
:1014D000200000F04DF8002801D0012007E0200096
:1014E00000F028F8002801D0012000E0002010BD05
:1014F00070B504009C4D4FF48070A8616620286090
:101500000020686241F28836320029002000FEF790
:10151000E7FE002801D001200BE09920286032006E
:1015200029002000FEF7DCFE002801D0012000E0A9
:10153000002070BD1CB504008B494FF440708861D9
:10154000EB2008604FF44060C8615FF04070486273
:101550000A20486100200190002000906A46200087
:10156000FFF768F8002801D0012000E0002016BD38
:1015700030B58FB004004FF4807007908520019043
:1015800000200890002009905FF080700A900020F1
:10159000069001200B9000200C9000200D90002060
:1015A0000E9041F288352A0001A92000FEF798FE2E
:1015B000002801D0012031E02A0069462000FEF712
:1015C00058FF002801D0012028E0200000F09EF8FC
:1015D000002801D0012021E0812001909DF8001019
:1015E00011F00F010A225FF07060B0FA80F08240C3
:1015F00011438DF800102A0001A92000FEF770FEAB
:10160000002801D0012009E02A0069462000FEF7E9
:10161000BDFE002801D0012000E000200FB030BD49
:10162000F0B595B004004FF4807007900020099049
:101630000020069000200C9000200D9000200E90BD
:1016400010201190002013905FF48000149065200A
:101650000190002008905FF080750A9501200B90A2
:101660003F4E41F288373A0001A93000FEF738FEBC
:10167000002801D0012047E03A0069463000FEF71B
:10168000F8FE002801D001203EE006200190002055
:101690000A903A0001A93000FEF722FE002801D08E
:1016A000012031E002200F900220109001201290C2
:1016B000052001900A953B000FAA01A93000FEF712
:1016C00053FF002801D001201EE06120019001207D
:1016D0000B909DF8000010F03F0050F040008DF896
:1016E00000003A0001A93000FEF7FAFD002801D001
:1016F000012009E03A0069463000FEF747FE002865
:1017000001D0012000E0002015B0F0BD70B504004C
:10171000154D4FF44070A8610620286000206862D3
:1017200041F28836320029002000FEF7D9FD00285A
:1017300001D0012013E00D4A022010600220506009
:10174000052028605FF040706862330029002000A7
:10175000FEF70AFF002801D0012000E0002070BD44
:101760000C000020001000A0580000209000002075
:1017700010B586B03648016851F00201016000687A
:1017800010F00200059005983248016851F00201FE
:101790000160016831F0020101602F48016851F0D9
:1017A00002010160016811F00201059105990168CB
:1017B00051F008010160016811F0080105910599D7
:1017C000016851F010010160006810F010000590F0
:1017D0000598402000900A200490022001900120EA
:1017E0000290022003901D4C6946200000F03CF856
:1017F00004200090092004900020029069462000F7
:1018000000F032F84FF40060009009200490144C6E
:101810006946200000F028F84FF48050009009201D
:1018200004906946200000F01FF804200090092071
:10183000049069460B4800F017F84FF400500090F0
:10184000092004906946200000F00EF806B010BD93
:101850003838024018380240303802400004024054
:10186000000C0240001002402DE9F8410022002344
:10187000002400260025102D80F00B81012717FA87
:1018800005F213000A681A4014009C4240F0FF80E1
:101890004A68022A02D04A68122A1FD12A00D208B6
:1018A00000EB8202D2F820C05FF00F0E15F00702A5
:1018B000D2B292001EFA02FE3CEA0E0CD1F810E001
:1018C00015F00702D2B292001EFA02FE5EEA0C0C7C
:1018D00066462A00D20800EB82021662D0F800C0E9
:1018E0005FF0030E2A00D2B252001EFA02F23CEA66
:1018F000020C91F8048018F003082A00D2B25200BA
:1019000018FA02F858EA0C0CC0F800C04A68012A1C
:1019100008D04A68022A05D04A68112A02D04A68CB
:10192000122A1BD186682A00D2B252001EFA02F295
:101930009643D1F80C802A00D2B2520018FA02F86D
:1019400058EA060686604268AF40BA434F68C7F35C
:101950000017AF403A439446C0F804C0C6682A0056
:10196000D2B252001EFA02FE36EA0E068F682A0034
:10197000D2B2520097403E43C6604A68D20040F15E
:101980008680DFF81421176857F4804717601268C3
:1019900012F480420092009ADFF800C12A009208F7
:1019A0005CF822705FF00F0E15F00302D2B29200C5
:1019B0001EFA02FE37EA0E07DFF8E420904201D15A
:1019C000002631E0DFF8DC20904201D101262BE037
:1019D000DFF8D420904201D1022625E0DFF8CC20A8
:1019E000904201D103261FE0DFF8C420904201D1CC
:1019F000042619E02F4A904201D1052614E02E4A10
:101A0000904201D106260FE02C4A904201D10726D0
:101A10000AE02B4A904201D1082605E0294A90426B
:101A200001D1092600E00A26F6B215F00302D2B26F
:101A30009200964037432A0092084CF82270224EBA
:101A40003268A243D1F804C05FEACC3C00D52243FF
:101A500032601E4F3E68A643D1F804C05FEA8C3C5A
:101A600000D526433E601A4F3A68A243D1F804C01D
:101A70005FEACC2C00D522433A60164F3E68A6435D
:101A8000D1F804C05FEA8C2C00D526433E606D1C63
:101A9000F1E6BDE8F1810000443802400838014019
:101AA000000002400004024000080240000C024016
:101AB000001002400014024000180240001C0240C6
:101AC0000020024000240240003C0140043C014050
:101AD000083C01400C3C0140BFF34F8FBFF36F8FB8
:101AE000002049490860BFF34F8FBFF36F8F47480D
:101AF000016851F400310160BFF34F8FBFF36F8F66
:101B00007047BFF34F8FBFF36F8F4048016831F4C8
:101B10000031016000203C490860BFF34F8FBFF3E4
:101B20006F8F704710B4002039490860BFF34F8FA2
:101B300038480168C1F34E32C1F3C900030043F6CF
:101B4000E07010EA421050EA8370334C20601800B5
:101B5000431E0028F3D11000421E0028ECD1BFF331
:101B60004F8F2A48046854F480340460BFF34F8FC9
:101B7000BFF36F8F10BC704710B400202449086079
:101B8000BFF34F8F2148016831F480310160BFF30A
:101B90004F8F20480168C1F34E32C1F3C9000300E2
:101BA00043F6E07010EA421050EA83701B4C20604C
:101BB0001800431E0028F3D11000421E0028ECD16B
:101BC000BFF34F8FBFF36F8F10BC704780B500F02D
:101BD00072F800F07DF800F030F800F027F80028E7
:101BE00001D000F029F800F06CF800200C490860E2
:101BF0000C480D49096801605FF01041096881F3E4
:101C0000088800688047FEE750EF00E014ED00E030
:101C100084ED00E080ED00E060EF00E074EF00E0B4
:101C200010E000E0A80000200400009010B500249F
:101C3000FFF7FCFB204310BDFEE730B591B0002458
:101C4000012005905FF48030069002200B905FF435
:101C500080000C9019200D904FF4D8700E90022047
:101C60000F900820109005A8FEF720FF050028001F
:101C7000C0B2002800D0FEE700F03EF804002000CB
:101C8000C0B2002800D0FEE70F2000900220019093
:101C9000002002904FF4A05003904FF48050049025
:101CA00006216846FFF7E5F80100C9B2002900D017
:101CB000FEE711B030BD80B5FFF70EFFFFF732FF32
:101CC00001BD80B5FFF71DFFFFF756FF01BD000006
:101CD00080B50748016851F4807101600320FFF767
:101CE00074FB0F20FFF7CEF900F004F8002002BDCE
:101CF000003C0240704700007CB500241B4801688E
:101D000051F080510160006810F080500090009800
:101D1000154E306850F480303060FEF755FE0500F7
:101D2000104C2068C00308D4FEF74EFE401B40F262
:101D3000E9318842F4D3032013E0306850F40030D6
:101D40003060FEF741FE06002068800308D4FEF7ED
:101D50003BFE801B40F2E9318842F5D3032000E0CE
:101D6000002076BD04700040007000404038024002
:101D70000F48016851F4700101600E49086850F085
:101D80000100086000200C4A10600A680B480240FD
:101D90000A600B480B4A1060086830F48020086025
:101DA0000020094908605FF000600849086070473A
:101DB00088ED00E00038024008380240FFFFF6FEE0
:101DC00010300024043802400C38024008ED00E0D6
:101DD00030B450F8041B79B10268436802440830FB
:101DE000DC0744BFA9F10104E31852F8045B43F88F
:101DF000045B091FF9D1ECE730BC704710B5074907
:101E000079441831064C7C44163404E00A68081DF5
:101E1000114488470146A142F8D110BD2C000000B2
:101E20004C0000004EF68851CEF20001086840F4E4
:101E300070000860BFF34F8FBFF36F8F4FF00070DB
:101E4000E1EE100A704700008FEBFFFFA4000000D6
:101E50000C0000200000000079FFFFFF0C000000D4
:101E6000B0000000000000200000000000F00DF8AD
:101E7000002801D0FFF7C2FFAFF300800020AFF3CE
:101E80000080FFF7A3FE00F002F80120704700F089
:101E900001B800000746384600F002F8FBE70000F2
:101EA00080B5AFF30080024A11001820ABBEFBE7FB
:101EB0002600020003480168034A1278891801606D
:101EC000704700BFAC000020080000207047FEE70C
:101ED000FEE7FEE7FEE770477047704780B5FFF703
:101EE000E9FF01BD00000000000000000102030442
:101EF000060708090148804701480047711D00088E
:101F0000051F0008AFF30080FFF78CFFFFF7AEFF5F
:101F1000100000000024F40001000000FFF7FEBFE5
:101F2000FFF7FEBFFFF7FEBFFFF7FEBFFFF7FEBFE5
:101F3000FFF7FEBFFFF7FEBFFFF7FEBFFFF7FEBFD5
:101F4000FFF7FEBFFFF7FEBFFFF7FEBFFFF7FEBFC5
:101F5000FFF7FEBFFFF7FEBFFFF7FEBFFFF7FEBFB5
:101F6000FFF7FEBFFFF7FEBFFFF7FEBFFFF7FEBFA5
:101F7000FFF7FEBFFFF7FEBFFFF7FEBFFFF7FEBF95
:101F8000FFF7FEBFFFF7FEBFFFF7FEBFFFF7FEBF85
:101F9000FFF7FEBFFFF7FEBFFFF7FEBFFFF7FEBF75
:101FA000FFF7FEBFFFF7FEBFFFF7FEBFFFF7FEBF65
:101FB000FFF7FEBFFFF7FEBFFFF7FEBFFFF7FEBF55
:101FC000FFF7FEBFFFF7FEBFFFF7FEBFFFF7FEBF45
:101FD000FFF7FEBFFFF7FEBFFFF7FEBFFFF7FEBF35
:101FE000FFF7FEBFFFF7FEBFFFF7FEBFFFF7FEBF25
:101FF000FFF7FEBFFFF7FEBFFFF7FEBFFFF7FEBF15
:10200000FFF7FEBFFFF7FEBFFFF7FEBFFFF7FEBF04
:10201000FFF7FEBFFFF7FEBFFFF7FEBFFFF7FEBFF4
:10202000FFF7FEBFFFF7FEBFFFF7FEBFFFF7FEBFE4
:10203000FFF7FEBFFFF7FEBFFFF7FEBFFFF7FEBFD4
:10204000FFF7FEBFFFF7FEBFFFF7FEBFFFF7FEBFC4
:10205000FFF7FEBFFFF7FEBFFFF7FEBFFFF7FEBFB4
:10206000FFF7FEBFFFF7FEBFFFF7FEBFFFF7FEBFA4
:10207000FFF7FEBFFFF7FEBFFFF7FEBFFFF7FEBF94
:10208000FFF7FEBFFFF7FEBFFFF7FEBFFFF7FEBF84
:10209000FFF7FEBFFFF7FEBFFFF7FEBFFFF7FEBF74
:0420A000FFF7FEBF89
:0200000490006A
:1000000000000520010D00907531009077310090BF
:10001000793100907B3100907D310090000000002C
:1000200000000000000000000000000091C20090ED
:100030007F3100900000000031C3009095C3009014
:10004000510D0090510D0090510D0090510D0090F8
:10005000510D0090510D0090510D0090510D0090E8
:10006000510D0090510D0090510D0090510D0090D8
:10007000510D0090510D009081310090510D009074
:10008000510D0090510D0090510D00908D31009058
:1000900099310090510D0090510D00909D310090CC
:1000A000510D0090510D0090510D0090510D009098
:1000B000C5310090510D0090510D0090510D0090F0
:1000C000510D0090510D0090510D0090510D009078
:1000D000510D0090510D0090510D0090510D009068
:1000E000D1310090510D0090510D0090510D0090B4
:1000F000510D0090510D0090510D0090510D009048
:10010000510D0090510D0090510D0090510D009037
:10011000510D0090510D0090D9310090510D00907B
:10012000510D0090E5310090510D0090510D00905F
:10013000510D0090510D0090510D0090510D009007
:10014000510D0090510D0090510D0090510D0090F7
:10015000510D0090510D0090510D0090F131009023
:10016000510D0090510D0090510D0090510D0090D7
:10017000510D0090510D0090510D0090510D0090C7
:10018000510D0090510D0090510D0090510D0090B7
:10019000510D0090510D0090510D0090510D0090A7
:1001A000FD310090510D009009320090510D0090EA
:1001B000510D0090510D0090510D0090510D009087
:0801C000510D0090510D00905B
:1001D00010B5054C237833B9044B13B10448AFF381
:1001E00000800123237010BD580100200000000092
:1001F000745A029008B5034B1BB103490348AFF38F
:10020000008008BD000000005C010020745A0290CC
:1002100001F0FF01102A2BDB10F0070F08D010F8B7
:10022000013B013A8B422DD010F0070F42B3F6D1BB
:10023000F0B441EA012141EA014122F007047FF0D4
:1002400000070023F0E80256083C85EA010586EA2B
:10025000010685FA47F5A3FA87F586FA47F6A5FA67
:1002600087F68EB9EED1F0BC01F0FF0102F0070273
:1002700032B110F8013B013A83EA010313B1F8D11E
:100280000020704701387047002D06BF35460338FF
:10029000073815F0010F07D1013015F4807F02BF38
:1002A000013015F4C03F0130F0BC0138704700BF89
:1002B00070B54FF0FF0C4CF4E06C1CEA11541DBFFC
:1002C0001CEA135594EA0C0F95EA0C0F00F0DEF8C7
:1002D0002C4481EA030621EA4C5123EA4C5350EAAC
:1002E000013518BF52EA033541F4801143F48013FD
:1002F00038D0A0FB02CE4FF00005E1FB02E506F08E
:100300000042E0FB03E54FF00006E1FB03569CF0E2
:10031000000F18BF4EF0010EA4F1FF04B6F5007FE8
:1003200064F5407404D25FEA4E0E6D4146EB06065A
:1003300042EAC62141EA55514FEAC52040EA5E50E3
:100340004FEACE2EB4F1FD0C88BFBCF5E06F1ED88D
:10035000BEF1004F08BF5FEA500E50F1000041EBC4
:10036000045170BD06F0004646EA010140EA020071
:1003700081EA0301B4EB5C04C2BFD4EB0C0541EA93
:10038000045170BD41F480114FF0000E013C00F3A8
:10039000AB8014F1360FDEBF002001F0004170BDCC
:1003A000C4F10004203C35DA0C341BDC04F11404E5
:1003B000C4F1200500FA05F320FA04F001FA05F271
:1003C00040EA020001F0004221F0004110EBD3703E
:1003D00021FA04F642EB06015EEA430E08BF20EA6A
:1003E000D37070BDC4F10C04C4F1200500FA04F30D
:1003F00020FA05F001FA04F240EA020001F000419F
:1004000010EBD37041F100015EEA430E08BF20EA11
:10041000D37070BDC4F1200500FA05F24EEA020E59
:1004200020FA04F301FA05F243EA020321FA04F088
:1004300001F0004121FA04F220EA020000EBD3703F
:100440005EEA430E08BF20EAD37070BD94F0000F3F
:100450000FD101F00046400041EB010111F4801F73
:1004600008BF013CF7D041EA060195F0000F18BF24
:10047000704703F00046520043EB030313F4801F60
:1004800008BF013DF7D043EA0603704794EA0C0F1A
:100490000CEA135518BF95EA0C0F0CD050EA410630
:1004A00018BF52EA4306D1D181EA030101F00041AD
:1004B0004FF0000070BD50EA410606BF10461946D5
:1004C00052EA430619D094EA0C0F02D150EA0136E1
:1004D00013D195EA0C0F05D152EA03361CBF104622
:1004E00019460AD181EA030101F0004141F0FE41C1
:1004F00041F470014FF0000070BD41F0FE4141F445
:10050000780170BD81F0004102E000BF83F000433C
:1005100030B54FEA41044FEA430594EA050F08BF9E
:1005200090EA020F1FBF54EA000C55EA020C7FEA62
:10053000645C7FEA655C00F0E2804FEA5454D4EBDF
:100540005555B8BF6D420CDD2C4480EA020281EAA9
:10055000030382EA000083EA010180EA020281EAE1
:100560000303362D88BF30BD11F0004F4FEA013133
:100570004FF4801C4CEA113102D0404261EB410142
:1005800013F0004F4FEA03334CEA133302D05242C8
:1005900063EB430394EA050F00F0A780A4F1010484
:1005A000D5F1200E0DDB02FA0EFC22FA05F28018BE
:1005B00041F1000103FA0EF2801843FA05F35941A4
:1005C0000EE0A5F120050EF1200E012A03FA0EFC23
:1005D00028BF4CF0020C43FA05F3C01851EBE3714D
:1005E00001F0004507D54FF0000EDCF1000C7EEB6A
:1005F00000006EEB0101B1F5801F1BD3B1F5001FA8
:100600000CD349085FEA30004FEA3C0C04F10104C6
:100610004FEA445212F5800F80F09A80BCF1004FEF
:1006200008BF5FEA500C50F1000041EB045141EA71
:10063000050130BD5FEA4C0C404141EB0101013C3A
:1006400028BFB1F5801FE9D291F0000F04BF014629
:100650000020B1FA81F308BF2033A3F10B03B3F1FB
:1006600020020CDA0C3208DD02F1140CC2F10C028B
:1006700001FA0CF021FA02F10CE002F11402D8BFE9
:10068000C2F1200C01FA02F120FA0CFCDCBF41EAB5
:100690000C019040E41AA2BF01EB0451294330BD84
:1006A0006FEA04041F3C1CDA0C340EDC04F1140461
:1006B000C4F1200220FA04F001FA02F340EA030038
:1006C00021FA04F345EA030130BDC4F10C04C4F17E
:1006D000200220FA02F001FA04F340EA030029465E
:1006E00030BD21FA04F0294630BD94F0000F83F4A8
:1006F000801306BF81F480110134013D4EE77FEA8B
:10070000645C18BF7FEA655C29D094EA050F08BFD6
:1007100090EA020F05D054EA000C04BF19461046B7
:1007200030BD91EA030F1EBF0021002030BD5FEAFB
:10073000545C05D14000494128BF41F0004130BD23
:1007400014F580043CBF01F5801130BD01F0004577
:1007500045F0FE4141F470014FF0000030BD7FEAEA
:10076000645C1ABF194610467FEA655C1CBF0B46E5
:10077000024650EA013406BF52EA033591EA030FFC
:1007800041F4002130BD00BF90F0000F04BF0021F4
:10079000704730B54FF4806404F132044FF0000527
:1007A0004FF0000150E700BF90F0000F04BF0021A0
:1007B000704730B54FF4806404F1320410F0004506
:1007C00048BF40424FF000013EE700BF42004FEA01
:1007D000E2014FEA31014FEA02701FBF12F07F437E
:1007E00093F07F4F81F06051704732F07F4208BF35
:1007F000704793F07F4F04BF41F40021704730B53C
:100800004FF4607401F0004521F000411CE700BF87
:1008100050EA010208BF704730B54FF000050AE00A
:1008200050EA010208BF704730B511F0004502D50B
:10083000404261EB41014FF4806404F132045FEA0D
:10084000915C3FF4D8AE4FF003025FEADC0C18BFB6
:1008500003325FEADC0C18BF033202EBDC02C2F1A8
:10086000200300FA03FC20FA02F001FA03FE40EA3A
:100870000E0021FA02F11444BDE600BF4A0011D275
:1008800012F5001211D20DD56FF47873B3EB6252EA
:100890000ED44FEAC12343F0004343EA505323FAF6
:1008A00002F070474FF00000704750EA013002D16B
:1008B0004FF0FF3070474FF0000070474FEA4102A1
:1008C000B2F1E04324BFB3F5001CDCF1FE5C0DD9AE
:1008D00001F0004C4FEAC0024CEA5070B2F1004FF8
:1008E00040EB830008BF20F00100704711F0804FFB
:1008F00021D113F13872BCBF01F00040704741F4C0
:1009000080114FEA5252C2F11802C2F1200C10FAC3
:100910000CF320FA02F018BF40F001004FEAC123A7
:100920004FEAD32303FA0CFC40EA0C0023FA02F34B
:100930004FEA4303CCE77FEA625307D150EA013321
:100940001EBF4FF0FE4040F44000704701F00040F1
:1009500040F0FE4040F40000704700BF7BB972B920
:100960000029BEBF00204FF0004106E008BF00286C
:100970001CBF6FF000414FF0FF3000F0BFB9ADF188
:10098000080C6DE904CE002909DB002B1ADB00F00E
:100990004DF8DDF804E0DDE9022304B07047404281
:1009A00061EB4101002B1BDB00F040F8DDF804E0B7
:1009B000DDE9022304B0404261EB4101524263EBA6
:1009C00043037047524263EB430300F02FF8DDF816
:1009D00004E0DDE9022304B0404261EB41017047CD
:1009E000524263EB430300F021F8DDF804E0DDE957
:1009F000022304B0524263EB4303704753B94AB930
:100A0000002908BF00281CBF4FF0FF314FF0FF3016
:100A100000F074B9ADF1080C6DE904CE00F006F8F1
:100A2000DDF804E0DDE9022304B070472DE9F0476A
:100A3000089D04468E46002B4DD18A42944669D9C2
:100A4000B2FA82F252B101FA02F3C2F1200120FAA5
:100A500001F10CFA02FC41EA030E94404FEA1C48F3
:100A6000210CBEFBF8F61FFA8CF708FB16E341EAEF
:100A7000034306FB07F199420AD91CEB030306F175
:100A8000FF3080F01F81994240F21C81023E634496
:100A90005B1AA4B2B3FBF8F008FB103344EA03443A
:100AA00000FB07F7A7420AD91CEB040400F1FF334F
:100AB00080F00A81A74240F207816444023840EA8C
:100AC0000640E41B00261DB1D4400023C5E90043C5
:100AD0003146BDE8F0878B4209D9002D00F0EF8048
:100AE0000026C5E9000130463146BDE8F087B3FA7B
:100AF00083F6002E4AD18B4202D3824200F2F98063
:100B0000841A61EB030301209E46002DE0D0C5E965
:100B1000004EDDE702B9FFDEB2FA82F2002A40F0B1
:100B20009280A1EB0C014FEA1C471FFA8CFE0126B4
:100B3000200CB1FBF7F307FB131140EA01410EFB58
:100B400003F0884208D91CEB010103F1FF3802D2FF
:100B5000884200F2CB804346091AA4B2B1FBF7F0F9
:100B600007FB101144EA01440EFB00FEA64508D91C
:100B70001CEB040400F1FF3102D2A64500F2BB8059
:100B80000846A4EB0E0440EA03409CE7C6F12007A8
:100B9000B34022FA07FC4CEA030C20FA07F401FAEE
:100BA00006F31C43F9404FEA1C4900FA06F3B1FB77
:100BB000F9F8200C1FFA8CFE09FB181140EA0141DC
:100BC00008FB0EF0884202FA06F20BD91CEB010179
:100BD00008F1FF3A80F08880884240F28580A8F1D1
:100BE00002086144091AA4B2B1FBF9F009FB101123
:100BF00044EA014100FB0EFE8E4508D91CEB0101C1
:100C000000F1FF346CD28E456AD90238614440EA63
:100C10000840A0FB0294A1EB0E01A142C846A646E3
:100C200056D353D05DB1B3EB080261EB0E0101FA6C
:100C300007F722FA06F3F1401F43C5E900710026C9
:100C40003146BDE8F087C2F12003D8400CFA02FC1F
:100C500021FA03F3914001434FEA1C471FFA8CFE2F
:100C6000B3FBF7F007FB10360B0C43EA064300FB1F
:100C70000EF69E4204FA02F408D91CEB030300F1BD
:100C8000FF382FD29E422DD9023863449B1B89B274
:100C9000B3FBF7F607FB163341EA034106FB0EF3FD
:100CA0008B4208D91CEB010106F1FF3816D28B42AA
:100CB00014D9023E6144C91A46EA004638E72E4676
:100CC000284605E70646E3E61846F8E64B45A9D26E
:100CD000B9EB020864EB0C0E0138A3E74646EAE7DD
:100CE000204694E74046D1E7D0467BE7023B61448B
:100CF00032E7304609E76444023842E7704700BFF4
:100D0000DFF834D0002103E00C4B5B584350043132
:100D10000B480C4B42189A42F6D30B4A02E00023D0
:100D200042F8043B094B9A42F9D306F0EFF923F05D
:100D30003BFE02F021F8704700000520E496029087
:100D40000000002058010020580100201C5C0120F8
:100D5000FEE7704708B500F02DFDBDE8084000F043
:100D6000B5BC00F029BD4068704741607047000085
:100D70004FF0E022D2F8FC3D43F08073C2F8FC3D16
:100D8000054B064AD3F8B01F0A43C3F8B02F1A68C0
:100D900042F001021A607047001000E055CEACC569
:100DA000511A01EB5301B1FBF3F07047014B586846
:100DB000704700BF001000E0704710B504460C21DA
:100DC00022F03FFE204610BD036810B51B690446A3
:100DD00031B19847A26863689B1A1844606010BDDF
:100DE0009847A060FBE7704730B58DB00D461446BC
:100DF00000212C2201A823F019FE01A806F0C8F852
:100E00009DF8040030B1BDF8063001202B60BDF81C
:100E1000103023600DB030BD10B50446042122F01F
:100E200010FE204610BD000008B54FF488714FF445
:100E3000F07006F057F828B1034B2021034A04480C
:100E400023F068FD08BD00BFFC5A02901D5B0290B4
:100E5000475B029058B9064B00F1804010211A6898
:100E600000F50130B2FA82F2520907F0ABBC7047CC
:100E70007401002058B9064B00F1804010211A6817
:100E800000F50130003A18BF012207F09BBC704703
:100E90007401002030B900F18040102100F50130CC
:100EA00007F095BC704708B550B900F1804010219B
:100EB00000F5013007F080FC431E5842584108BD40
:100EC0000020F9E770B5084D00240126E0B2FFF7D5
:100ED000EAFF18B12B68012B18BF2E6001340435CE
:100EE000052CF3D170BD00BF74010020012380F8F0
:100EF000741080F8753070470020704741640039E5
:100F0000024B18BF01211970704700BF6F590120B3
:100F100000207047836B0BB10846184770474FF6A7
:100F2000FF707047406803689B691847704700006E
:100F300038B50446FFF7C6FF204600F073FD23686E
:100F4000094A4FF04041D3F888502046074BA84744
:100F50000023074D84F84A302846FFF709FF012394
:100F6000256184F86C3038BD00FC03C000F807C070
:100F70008401002008B503680446D3F88030984700
:100F8000236820469B6F984700F032F9236820467B
:100F90001B6F98474FF48051064807F018FC082152
:100FA000054807F014FC00F023F9236820461B6F66
:100FB0009847F8E7002002400028024010B5044698
:100FC0000EF008F823682046D3F8AC30BDE8104096
:100FD000184700F0E1BC00F0E5BC000070B500F07F
:100FE00047FD10490023C1F88430BFF34F8FD1F87B
:100FF000803043F6E074C3F3C900C3F34E335B01A2
:1010000003EA0406024646EA8275013AC1F87452C0
:10101000F9D2203B13F1200FF2D1BFF34F8FBFF372
:101020006F8F70BD00ED00E000F092BC00F02CBDB1
:1010300000F034BD00F096BC0DF032BA10B5044695
:101040007C2122F0FEFC204610BD90F877301BB1C9
:10105000406803681B6818471846704790F83410BA
:101060000D4B10B590F874401A788C4209D03AB9FB
:101070000A490B4A08881488108001220C801A70D3
:1010800010BD002AFCD0064A0449148808880C8048
:1010900010800022F3E700BF685901206659012043
:1010A0006459012070B50D46194635B9094B40F217
:1010B000D221094A094823F02DFCC0E90F52003A19
:1010C000074B18BF01221A700368BDE87040D3F8BF
:1010D0008C301847B45B0290EC5B02903A5C029053
:1010E0006E59012008B5094B1B888B4203D8084B69
:1010F0001B88934205D9074B9E21074A074823F0D6
:1011000009FC074B1980074B1A8008BD6459012060
:10111000665901207F5C0290E25C02903A5C02908A
:101120006A5901206C590120014608B5034B186823
:1011300001B101210DF068FF012008BD70590120A7
:10114000034B00225A609A60024A1A60704700BF3F
:1011500084010020DC5A02900121002208B50846D3
:101160000AF048FD0A4B186028B90A4B28210A4AA0
:101170000A4823F0CFFB0022042101200AF018FEC8
:10118000074B186018B9074B2C21034AF0E708BD3C
:1011900094010020005E0290495E0290785E029009
:1011A00090010020CC5E0290024B4FF0FF31186896
:1011B0000AF076BD94010020014B18680AF0AABD20
:1011C00094010020024B002118680AF069BD00BF9D
:1011D00094010020FFF7F0BF0023034803491A469B
:1011E00000680AF02BBE00BF900100200400002020
:1011F00013B50023074C01A91A4620680AF060FEC7
:101200004FF0FF33002201A920680AF059FE02B016
:1012100010BD00BF9001002003685B6C18470120DF
:10122000704703689B6A18470D4B82B01A6B42F4F3
:1012300000021A631A6B02F400020192019A1A6901
:1012400042F400021A611A6922F400021A61054B85
:10125000054A1A614FF08062044B9A6002B07047F1
:1012600000380240A4410020B112009000E100E0EB
:1012700040F2EF3070470000054B4FF08062036092
:10128000044BC3F88820BFF34F8FBFF36F8F7047B5
:101290007060029000E100E010B504464FF45A611E
:1012A000FFF7EAFF204622F0CCFB204610BD0000ED
:1012B000024B1B68586803685B6918477059012026
:1012C00070B504460A4B0C3000262546602260604B
:1012D0002672667245F8203B29460DF0E9FF04F5B9
:1012E0005A63EE602435AB42FBD1204670BD00BF8F
:1012F0007060029008B50B290BD8DFE801F01206E8
:10130000100A0A0A0A0808080808012008BD052072
:10131000FCE7054B6621054A054823F0FBFA00204F
:10132000F4E70220F2E700BF0E5F0290295F02900F
:10133000735F029008B50A2909D8DFE801F01006AA
:101340000E080808080606060600012008BD054B21
:101350008721054A054823F0DDFA0020F6E7022040
:10136000F4E700BF0E5F0290C55F0290735F0290CA
:101370002DE9F8434F7F0C4681463946FFF7BAFF07
:1013800094F81E80054648464146FFF7B3FF4146A4
:1013900006464846FFF7CEFFA18A628B424B521A9F
:1013A0001A649A61228B521A1A61E28A586342EADD
:1013B000014220695A646268D863DA60216894F84F
:1013C0001CC080294FEA0C6226D010D8202945EA9B
:1013D000020462D0402960D004295ED02A43324BF7
:1013E000474542F40032DA615BD0304A40E0B1F563
:1013F000807F07D0B1F5007FF0D142F4003242F097
:10140000090203E042F4003242F00A02DA61E268C3
:101410001A625E6258612AE0A4682A43211D42F4E0
:101420000032D962DA6122785E62586142B1012AE3
:1014300021D01F4B40F211111E4A1F4823F06AFAB7
:10144000DA690120618822F47F42013922F010021A
:1014500042EA0122DA61144BDA6942F02002DA61D1
:10146000DA699206FCD410229A600028BDD0134A93
:101470001A60BDE8F8836288BCF1FF00D96902F107
:10148000FF3418BF012021F47F4222F0100242EA0B
:10149000042242F01002DA61DDE744F40034DC613A
:1014A000B7E740F20122E3E700B002400102010089
:1014B000106002902A600290735F029001020200A5
:1014C00070B50C46897FFFF735FF174BA68AE18A76
:1014D000628B41EA06412569921B58635964DD63BA
:1014E0001A642668E168082E0DD19A611A61586263
:1014F0000E4A207F42EA0062DA610D4A19625D619C
:10150000DD601A6070BD0022D86148091A610A0ABC
:1015100000F4FC60C1F3C40102F4784202430A43C0
:101520009A63044AEDE700BF00B0024009000100E1
:101530000102020001020300034B1A68D207FCD427
:1015400023229A60704700BF00B0024030B5104CB3
:101550002568ED07FCD423250904FF2BA56041F085
:1015600001014FF0020565636164E0630AD0094937
:10157000656241EA0363E361074B22626061E060F8
:10158000236030BDE561039BA363044BF8E700BF14
:1015900000B0024009000100010002000100030048
:1015A000012070470C2070470C2303FB010008301A
:1015B00070470C2303FB010008307047012070477F
:1015C00042F6E840704742F6E84303FB010008306A
:1015D000704742F6E84303FB0100083070470120E2
:1015E00070471020704700EB01100830704700EB87
:1015F000011008307047084602F0D4BE034B10B506
:10160000044603600CF0A3FC204610BD2861029044
:1016100010B50446FFF7F2FF1421204622F011FA1C
:10162000204610BD034B10B5044603600CF08FFC40
:10163000204610BDF460029010B50446FFF7F2FF9B
:1016400042F6F041204622F0FCF9204610BD000091
:10165000034B10B5044603600CF079FC204610BD26
:10166000C060029010B50446FFF7F2FF1821204633
:1016700022F0E7F9204610BD094B10B5044603607F
:1016800000F534501C30FFF7B9FF04F12C00FFF7D0
:10169000C9FF04F11400FFF7DBFF204610BD00BFB7
:1016A0005C61029008B50248FFF7E6FF08BD00BF85
:1016B0009C01002010B50446FFF7DEFF42F6906162
:1016C000204622F0BEF9204610BD00002DE9F3416E
:1016D00002F000F80024054602F000F82346014617
:1016E00022462846009415F03FFE264B264A204607
:1016F000264D1A6004F06EFB254815F09DFD2B78F1
:10170000BFF35B8FDB0736D4284622F09CF990B3F9
:10171000204C214F214B04F1140007F1180604F16D
:101720002C0823606060C4F80880E76026610CF034
:101730000FFC1B4B404663610CF00AFC194B38460A
:10174000E3620CF005FC04F50053174A03F55360FF
:10175000C3F81C2D04F0ECFC224607F114013046BE
:1017600004F0DCFC304602F01DFE104823F0F0F8D7
:10177000284622F074F90E4802B0BDE8F041FFF7A8
:10178000D7BB00BFD45901204C3E00209801002057
:10179000080000209C010020B82E00205C6102900F
:1017A000C0600290F460029028610290A51600903B
:1017B000D03D0020704700000148FFF7DBBB00BFB1
:1017C000D03D002070B5234E234B244C3046244D91
:1017D0002360FFF775FD284618F0D2FE214B00224A
:1017E0004FF4807120481A861A6683F86C201A67B5
:1017F000DC60C3E912121D49C3E919124FF0807170
:101800005967012183F8781019490B604FF4F07182
:101810000180184801804FF488711748C3E90422F9
:10182000C3E90622C3E90822C3E90A22C3E90E225A
:10183000C3E91022C3E91422C3E91622C3E90165F2
:1018400001800E4883F8342001800D490A700D4A4A
:101850001A6070BD30300020A45B02902C30002054
:10186000503E0020D03D00206459012001000001BD
:10187000705901206A590120665901206C590120D4
:1018800068590120305D02900148FFF7F5BC00BFA8
:10189000303000200020704781807047C180704741
:1018A00001817047418170477047704770477047AA
:1018B000704710B4C4880368121B84885B6D091BD1
:1018C00012B25DF8044B09B218474FF6FF738381DB
:1018D0004FF0FF3303621368C3611060704790F8E4
:1018E00025201AB190F8242002B11860704700201A
:1018F00070478B88838001207047704780F82610DE
:10190000704790F826007047002210B5B1F90840E2
:10191000B1F90A10028042808480C18010BD00228B
:10192000028042808280C28070470171704780EDE2
:10193000020A704701737047417370470120704776
:1019400080307047743070476C30704770470000CB
:10195000034B902283F85A2383F85823704700BF23
:1019600000E100E0094A0A49D3680A48C3F30A03C0
:10197000013B9BB20B801169C1F30A01013901805F
:101980001364536B43F001035363704700680140D5
:10199000D03E0020CE3E0020014BD3F8AC00704773
:1019A00000680140024B0122C3F8AC105A62704734
:1019B00000680140124A5369DB0370B51ED500234D
:1019C000C2F88430BFF34F8FD2F8803043F6E07412
:1019D000C3F3C900C3F34E335B0103EA04060146B7
:1019E00046EA81750139C2F87452F9D2203B13F1ED
:1019F000200FF2D1BFF34F8FBFF36F8F70BD00BFC9
:101A000000ED00E07047704710B504462C2122F02D
:101A100018F8204610BD10B50446A42122F011F894
:101A2000204610BD70B504460CF08FFD23685D6E36
:101A300012F0A2F901462046A84723682046054A2D
:101A4000D3F888504FF040410023AC46BDE87040C9
:101A5000604700BF00FC03C00CF05EBD90F84B3047
:101A600013B1024B01221A700CF062BDCC3E002073
:101A70000CF01CBD0CF077BE90F8252012B1036865
:101A80005B69184770470000034B4FF080629A6013
:101A90004FF080729A60704700E100E0084B4FF011
:101AA0008062C3F88820BFF34F8FBFF36F8F4FF072
:101AB0008072C3F88820BFF34F8FBFF36F8F7047DA
:101AC00000E100E0002370B5124E05468380124B02
:101AD0000360336893F876200AB1D86C00B998682F
:101AE0000368DB6A98473368B0FA80F4D86C6409FD
:101AF00030B10368DB6A9847002808BF44F001044E
:101B00002CB9064B2C21064A064822F003FF284632
:101B100070BD00BF705901206C6202906861029034
:101B2000C6610290FF61029070B5214E3578BFF317
:101B30005B8F15F0010538D1304621F084FF002875
:101B400033D01C4C1C4B04F11C00E5812360256143
:101B5000A58213F010FA04F140000EF0BFFF174BFE
:101B600020462364164B40F86C3BFFF7ABFF154B48
:101B70001548E3662433A56763676423C4F884507B
:101B8000C4F89050C4E922350023C4F89430C4F856
:101B90009830C4F89C30C4F8A0300C4BC4F88030A6
:101BA00022F0D6FE304621F05AFF024870BD00BF39
:101BB000C83E0020D43E0020688C02908C620290C7
:101BC000046302901C8C02904D190090FC8B0290D3
:101BD00010B5144C236823B3134B144A1B6C1188A3
:101BE0008B4213D1124B198807F0CAFA226892F877
:101BF0006630013382F86630FFF7EEFA20680DF0A8
:101C0000E9F90020BDE81040FFF724B907F0B8FA61
:101C1000206803681B6A98470020BDE81040FFF762
:101C200029B910BD7059012000680140D03E002044
:101C3000CE3E002030B585B0102200210024684639
:101C4000012522F0F3FE12484FF48033114A8460DC
:101C50000461846180F82040C462C460C56180F87A
:101C600030404561C0E900230B4B836205F0B4FAB4
:101C700008B101F05DF9694605480294CDE90045D7
:101C800005F03CFC08B101F053F905B030BD00BFD0
:101C9000783F0020002001400100000F10B588B0FF
:101CA00004461422002103A822F0C0FE2268104B33
:101CB0009A421BD103F58C3303A90E485A6C42F4A7
:101CC00080725A645A6C02F480720192019A1A6B03
:101CD00042F001021A6301221B6B03F0010302931D
:101CE000029B0323CDE9032306F0E0FB08B010BDFF
:101CF000002001400000024008B519480623DFF823
:101D00006CC04FF4403E4FF44012C0E900C30023C2
:101D100083618383C0E90233C0E904E205F09CFCDF
:101D200008B101F005F90F490C2301220C484B6161
:101D300000230A628B60C1E90333C1E90033C1E9C2
:101D4000063205F005FD08B101F0F2F8064B4FF43C
:101D5000CC621A600022C3E9022204221A6108BD83
:101D6000D040002068400020E43F00200064004094
:101D700010B588B004461422002103A822F056FEB4
:101D800022681B4B9A4230D103F5EA3303211948EC
:101D90001A6C42F000721A641A6C02F0007201921E
:101DA000019A1A6B42F002021A634FF440721B6BE5
:101DB00003F002030293029B0223CDE903230923CC
:101DC000CDE9061303A906F071FB002205211320BB
:101DD00005F05EFF132005F08DFF14200022052181
:101DE00005F056FF142005F085FF08B010BD00BFB8
:101DF0000064004000040240194B1A4A1B68127824
:101E000019491A70194A09881288D9825A80184AC1
:101E10001849126891ED007A5A60174A12781A72BE
:101E2000164A1268DA60164A128807EE902A154A96
:101E3000F8EE677AB2F900209A82C3ED047AF2EEE6
:101E4000077AB4EEE77AF1EE10FA4CBF01210021D7
:101E50005F2A1976D4BF002201225A76704700BF4C
:101E600048400020B540002074410020604100201F
:101E70002C4100201041002030410020B0400020C3
:101E80003A40002042400020F8B540F26522036845
:101E90000446934242D8B3F5147F0CD2F8BD6FF4D8
:101EA000C0621344032B00F2DE80DFE813F012015E
:101EB0004C01EB013102A3F51473152BEED801A2EE
:101EC00052F823F0D71F0090E51F0090EF1F0090FD
:101ED000F91F0090032000900D2000909D1E00909F
:101EE0009D1E00909D1E00909D1E00909D1E0090C6
:101EF0009D1E00909D1E00909D1E00909D1E0090B6
:101F00009D1E009017200090212000902B20009013
:101F1000352000903F2000904920009040F204625C
:101F20009342BBD8B3F5C06FB9D240F2822293423C
:101F300000F094800CD8B3F5207F00F08A8040F246
:101F400081229342AAD10079FEF71EFC9E4B46E007
:101F5000B3F5846F21D0B3F5A06F9FD102799B4B6D
:101F600040791A70FEF720FC93A3D3E90023FEF713
:101F70009FF9FEF7A3FC964BA2791860954B1A7057
:101F8000E279954B1A70227A944B1A70627A944BCC
:101F90001A70A27A934B1A7080E70279924B1A70EA
:101FA0004279924B1A708279914B1A70C279914B97
:101FB000007A1A70FEF7F8FB7FA3D3E90023FEF73F
:101FC00077F9FEF77BFC8C4B627A18608B4B1A70AA
:101FD000A27A8B4BDFE70079FEF7D6FB894BC3E98A
:101FE00000015BE70079FEF7CFFB874BF7E700794D
:101FF000FEF7CAFB854BF2E70079FEF7C5FB844B81
:10200000EDE70079FEF7C0FB824BE8E70079FEF7C9
:10201000BBFB814BE3E70079FEF7B6FB7F4BDEE7C6
:102020000079FEF7B1FB7E4BD9E70079FEF7ACFBF8
:102030007C4BD4E70079FEF7A7FB7B4BCFE7007919
:10204000FEF7A2FB794BCAE70079FEF79DFB784BC0
:10205000C5E70079FEF798FB764BC0E70079FEF7FD
:1020600093FB754BBBE7A088FEF79EFBFEF726FCB3
:1020700007EE900A714BFCEEE77A17EE900A188093
:10208000A079FEF791FB00226D4BFEF711F9FEF7E8
:1020900015FC6C4BE27918606B4BB4F908001A70B0
:1020A000FEF782FBFEF70AFC07EE900A674BFDEE97
:1020B000E77A17EE900A18806089FEF775FB40A357
:1020C000D3E90023FEF7F4F8FEF7F8FB604B186045
:1020D000E4E6604BA088D3E90067FEF765FB324673
:1020E0003B46FEF7E5F8FEF7E9FBFEF76FFB5A4BC0
:1020F000C3E90001E088FEF757FB32463B46FEF796
:10210000D7F8FEF7DBFBFEF761FB544BC3E9000198
:102110002089FEF749FB32463B46FEF7C9F8FEF739
:10212000CDFBFEF753FB4E4BC3E900016089FEF780
:102130003BFB3B463246FEF7BBF8FEF7BFFBFEF724
:1021400045FB484B4BE7A088FEF72EFBFEF7B6FB9E
:1021500007EE900A444BFCEEE77AA27917EE900A5C
:102160001880424B207A1A70E279414B1A70FEF7C0
:102170001BFB00223F4BFEF79BF8FEF79FFB3E4BFD
:102180001860607AFEF710FB00223A4BFEF790F8D9
:10219000FEF794FB394B1860B4F90A00FEF704FB14
:1021A000FEF78CFB07EE900A354BFDEEE77A17EE53
:1021B000900A188072E600BFC58F31772D21BF3F8E
:1021C000AF9811DE1E84903FC04000200C410020DB
:1021D00010410020334100203441002031410020D3
:1021E0003241002044400020404000202A4100208D
:1021F000B4400020764100204441002040410020AE
:1022000041410020004000200840002010400020F4
:1022100078410020384100205841002090400020A3
:10222000A04000205041002068410020A84000202C
:1022300048410020B8400020C840002060410020F4
:102240000000E03F70410020F840002028410020BD
:1022500008410020100000201840002020400020ED
:1022600028400020304000207441002038400020E9
:10227000304100200000B03F2C410020B040002041
:10228000424000203C4D95F90000FEF78DFA0022F7
:102290003A4BFEF70DF83A4BC3E900016878FEF7B8
:1022A00083FA31A3D3E90023FEF702F8354BC3E9E3
:1022B0000001A878FEF778FA00224FF07E53FDF770
:1022C000F7FF314BC3E90001E878FEF76DFA002211
:1022D0002A4BFDF7EDFF2D4BC3E900012089FEF7E6
:1022E00063FAFEF7EBFA07EE900A294BFCEEE77A69
:1022F00017EE900A18806089FEF756FAFEF7DEFAAC
:1023000007EE900A234BFCEEE77A17EE900A50E7AF
:102310002279214BE0881A706279204B1A70FEF7FF
:1023200043FA13A3D3E90023FDF7C2FFFEF7C6FA71
:1023300007EE900A1A4BFCEEE77A17EE900A188027
:102340002089FEF731FAFEF7B9FA07EE900A154B2D
:10235000FCEEE77AA27A17EE900A1880124B1A70F8
:10236000E27A124B17E600BF9A9999999999A93F79
:10237000D9CEF753E3A59B3FC03F00200000E03FCC
:102380000041002050400020204100201841002042
:102390005A4000205C400020B540002058400020FA
:1023A0003A40002062400020984000206440002015
:1023B00008B50D4A00210D4B0D4805F0C5FA08B1CE
:1023C00000F0B6FD0B4B09491868074B1A68034625
:1023D00043F8042B0A6842604A685A60FFF754FDCC
:1023E000BDE80840FFF708BDC83F0020C03F0020FF
:1023F000D04000203C40002008B50848084B03604E
:1024000000238380C0E905330123036205F0DEFC6D
:1024100018B1BDE8084000F08BBD08BD8041002028
:1024200000300240026882B0084B9A420BD1D3F8C8
:10243000302803F5006342F480521A631B6B03F4E7
:1024400080530193019B02B0704700BF00300240EF
:10245000134B07B51A6B05210E2042F480021A6354
:102460001A6B02F480020092009A1A6B42F4001276
:102470001A6300221B6B03F400130193019B05F008
:1024800007FC0E2005F036FC00220521392005F05E
:10249000FFFB392003B05DF804EB05F02BBC00BF57
:1024A0000038024008B50D4800230D4AC0E90A3340
:1024B000C0E90C33C0E90023C0E9023305F0F6FEA1
:1024C00008B100F035FD0121044805F0A7FF18B15F
:1024D000BDE8084000F02CBD08BD00BFA4410020AD
:1024E00000B002400E4B07B502689A4215D1A3F521
:1024F000F04305215A201A6B42F400021A630022AD
:102500001B6B03F400030193019B05F0C1FB5A20F0
:1025100003B05DF804EB05F0EDBB03B05DF804FB20
:1025200000B0024015480022154B04214FF0400C2A
:1025300000B5C0E90032102389B082600793C0E97A
:1025400003138021C0E905C101A9C0E90722C0E940
:102550000922CDE90133CDE90333CDE9053307F095
:10256000B7FB08B100F0E4FC04F0A2FC04F054FC5A
:1025700008B100F0DDFC09B05DF804FBEC4100207F
:10258000400100A0F0B5002387B003932A4B1E68DA
:10259000002E4ED10122022703250C241A6001A926
:1025A000264B27489A6B42F001029A639B6B03F01B
:1025B00001030093009B4FF68373CDE90454CDE9EA
:1025C000013705F073FF48F2331301A91D48059444
:1025D000CDE90137CDE9036505F068FF4CF20373DF
:1025E00001A919480594CDE90137CDE9036505F046
:1025F0005DFF4FF63F0301A914480594CDE901376B
:10260000CDE9036505F052FF242301A91048059484
:10261000CDE90137CDE9036505F048FF04230D48F6
:102620000DEB03010594CDE90137CDE9036505F014
:102630003DFF07B0F0BD00BFE84100200038024078
:102640000010024000180240000C0240001402403A
:10265000001C02400008024008B5144B1A6822BB57
:1026600001224FF6837112481A60124A936B23F0CD
:102670000103936305F0FEFF48F233110E4805F0A5
:10268000F9FF4CF203710D4805F0F4FF4FF63F01DE
:102690000B4805F0EFFF24210A4805F0EBFF042169
:1026A0000948BDE8084005F0E5BF08BDE441002049
:1026B000001002400038024000180240000C0240A6
:1026C00000140240001C02400008024008B56420CB
:1026D00009F076FAFBE708B5012009F071FAFBE78B
:1026E000044C08B5208804F037F8642009F068FA33
:1026F000F8E700BF604100201FB5194A02AB194E30
:1027000010685168184C194D03C396E8030000F097
:10271000A1FC51EC100BFEF7B1F8208095E8030006
:1027200000F098FC51EC100BFEF7A8F8104B80B2AB
:102730001049188023888DF80B001A0A8DF809308B
:10274000030A0D488DF8082002AA8DF80A3001AB63
:1027500005F0B2F84FF4FA7009F032FAD5E700BF8D
:102760008C5A0290DC6402905E400020E464029087
:1027700060400020E43F0020D0400020F7B5002456
:102780001D4D1E4F8DF80740284604F0CBFDC82193
:10279000284604F05CFE284604F0ADFE86B22846CA
:1027A00004F03AFE40F6B8339E4214D9012C0ED004
:1027B0009DF80730062B0AD001338DF8073000232F
:1027C00001240DF1070138681A4609F037FB64202F
:1027D00009F0F6F9D8E740F2A3639E4209D8012C2C
:1027E000F5D09DF80740002CF1D0013C8DF8074052
:1027F000E5E70024EBE700BF783F00203C420020E3
:1028000008B5642009F0DCF9FBE70000014900206D
:102810000AF002BF2911009008B5204A01210420C6
:1028200009F0C6FA1E4B1F4A01211860082009F062
:10283000BFFA1D4B1D4A002118601D4809F06AF9B6
:102840001C4B1D4A002118601C4809F063F91C4B01
:102850001C4A002118601C4809F05CF91B4B1C4AFB
:10286000002118601B4809F055F91B4B1B4A002139
:1028700018601B4809F04EF91A4B1B4A00211860DA
:102880001A4809F047F91A4B1A4A002118601A48E9
:1028900009F040F9194B186008BD00BFD4630290DD
:1028A00024420020A06402903C4200201064029068
:1028B000CD2600902C420020B0630290630D009062
:1028C00020420020EC630290012800902842002062
:1028D0007C640290E126009038420020346402902B
:1028E000F926009030420020B86402907D270090C5
:1028F0004042002058640290D726009034420020C5
:102900002DE9F04790B0142200216E4E0BA8DFF89D
:10291000C4A122F08BF86C4B3046DFF8BC911A6BE7
:1029200048F21001694F012542F0100200244FF4D3
:1029300000481A631A6B02F010020092009A1A6B98
:1029400042F002021A631A6B02F002020192019A2B
:102950001A6B42F001021A631A6B02F00102029232
:10296000029A1A6B42F040021A631A6B02F040029C
:102970000392039A1A6B42F400721A631A6B02F400
:1029800000720492049A1A6B42F008021A631A6BDE
:1029900002F008020592059A1A6B42F480621A63EB
:1029A0001A6B02F480620692069A1A6B42F02002B9
:1029B0001A631A6B02F020020792079A1A6B42F40C
:1029C00080721A631A6B02F480720892089A1A6B6A
:1029D00042F080021A631A6B02F080020992099A8F
:1029E0001A6B42F004021A6300221B6B03F004030B
:1029F0000A930A9B05F0E6FE504600224FF4004180
:102A000005F0E0FE48460022082105F0DBFE00222A
:102A100038464FF4805105F0D5FE10230BA93046FF
:102A2000CDE90B350323CDE90D4305F03FFD0BA99F
:102A30005046CDE90B85CDE90D4405F037FD08235F
:102A40000BA948464FF48819CDE90B35CDE90D4463
:102A500005F02CFD4FF480530BA93846CDE90B351A
:102A6000CDE90D4405F022FD4FF400630BA9384673
:102A7000CDE90B3902230D9305F018FD40230BA976
:102A800013480D95CDE90B3905F010FD0BA9304623
:102A9000CDE90B85CDE90D4405F008FD2246052161
:102AA000172005F0F5F8172005F024F92246052136
:102AB000282005F0EDF8282005F01CF910B0BDE83D
:102AC000F08700BF000402400038024000200240AE
:102AD00000180240000002400028024010B58EB0ED
:102AE00034220021002401A821F0A0FF2348244B18
:102AF0004FF0280C4FF0350E40F2152240F23521F0
:102B00008486046180F83640C0E900340923C0E9B6
:102B100005C30B23C0E907E340F21B13C0E90923F7
:102B200040F21D13C0E90244C0E90B1306F030FA6D
:102B300008B100F0FDF94FF4887302214FF4F072F0
:102B40004FF4806001940C93ADF834408DF836401A
:102B5000CDE90431FF21CDE906140521CDE9022498
:102B6000CDE90801CDE90A4201A90022034806F097
:102B7000DAFA08B100F0DCF90EB010BD44420020D2
:102B80000068014070B5ACB004461422002106A8CC
:102B900021F04CFF842200210BA821F047FF22687E
:102BA000464B9A4240F0878008230BA80B9364237E
:102BB00010930223CDE911330123159306F000FE93
:102BC00008B100F0B5F93E4B022400250E265A6CE0
:102BD00006A93C4842F080625A645A6C02F0806256
:102BE0000092009A1A6B42F010021A631A6B02F0FC
:102BF00010020192019A1A6B42F400721A631A6B66
:102C000002F400720292029A1A6B42F480621A6312
:102C10001A6B02F480620392039A1A6B42F040022C
:102C20001A631A6B02F040020492049A1A6B42F47F
:102C300080721A631B6B03F480730593059B10234A
:102C4000CDE90634CDE908540A9605F02FFC4EF67E
:102C5000FF7306A91C480A96CDE90634CDE908544D
:102C600005F024FCF72306A918480A96CDE9063496
:102C7000CDE9085405F01AFC4FF4805306A9144816
:102C8000CDE906340923CDE908540A9305F00EFC7A
:102C90004FF4464306A90F480A96CDE90634CDE91C
:102CA000085405F003FC58202A46052104F0F0FFE3
:102CB000582005F01FF82CB070BD00BF006801401F
:102CC0000038024000100240002402400028024068
:102CD000001802400020024010B594B010220021DC
:102CE00002240AA821F0A2FE1422002103A821F048
:102CF0009DFE1F4B012119201A6C42F080521A646C
:102D00001B6C03F080530193019B1A4B1A6842F429
:102D100040421A601B6803F440430293029B4FF445
:102D20008033CDE908134FF48003CDE90E434FF40F
:102D3000D873CDE9100308A8CDE9124406F076FA5D
:102D400000B1FEE706F03AFA00B1FEE70F234FF4B8
:102D5000A0520590072103A8CDE903344FF4805316
:102D6000CDE9062306F04EFC00B1FEE714B010BD1D
:102D700000380240007000408FB5002110226846E4
:102D8000012421F053FE1C2604F0D6FF4FF0005220
:102D90005E4B6846ADF80040032540F20117CDE9CF
:102DA00001235B4B039304F0E5FF4FF040438DF8A4
:102DB00001400024684601938DF808608DF80B40AF
:102DC000ADF80E4004F0D6FF022368468DF80B5094
:102DD0008DF801301623ADF80E708DF8083004F030
:102DE000C9FF4FF0104368468DF808600426019330
:102DF0008DF801508DF80B40ADF80E4004F0BAFF8D
:102E0000172368468DF801608DF808308DF80B5057
:102E1000ADF80E7004F0AEFF052368468DF80C4047
:102E20008DF8013013238DF8083004F0A3FF3046ED
:102E300004F090FFBFF34F8FBFF36F8F354AC2F896
:102E40005042BFF34F8FBFF36F8F536943F400338A
:102E50005361BFF34F8FBFF36F8FC2F88440BFF34E
:102E60004F8FD2F8803043F6E074C3F3C900C3F348
:102E70004E335B0103EA0406014646EA81750139D7
:102E8000C2F86052F9D2203B13F1200FF2D1BFF308
:102E90004F8F536943F480335361BFF34F8FBFF3B8
:102EA0006F8F04F063F9FFF717FFFFF729FDFFF7B6
:102EB000CFFAFFF7F7FAFFF735FBFFF70FFE00F049
:102EC0001FFBFEF719FF00F0A9FAFFF795FA00F0D3
:102ED000F3F900F02FF8FEF7ADFE00F02FFBFDF741
:102EE00039FFFDF736FF0C4804F0B8FC02210A4810
:102EF00004F0A1FD0121084804F09DFD08F0D0FD7B
:102F0000FFF78AFC08F0E6FDFEE700BF12000003B1
:102F10000100010100ED00E0D04000200268034BF9
:102F20009A4201D104F034B9704700BF001000404C
:102F3000FEE7000008B512484FF48273114A4FF4BF
:102F400080614FF4007CC0E900234FF4E063382235
:102F5000C0E90213C0E906C200230722C0E9043316
:102F6000C0E908338362C0E90B230823436307F0F9
:102F70005DF818B1BDE80840FFF7DABF08BD00BF33
:102F80004C430020003800402DE9F04188B006464F
:102F90001422002103A821F049FD3268284B9A42EF
:102FA0004AD103F5003302244FF0030805271A6CB9
:102FB00003A92448002542F480421A641A6C02F4E2
:102FC00080420092009A1A6B42F480721A631A6B64
:102FD00002F480720192019A1A6B42F002021A63A3
:102FE0001B6B03F002030293029BCDE90344CDE97E
:102FF000068705F05BFA4FF48043134803A907974F
:10300000CDE90334CDE90558104C05F04FFA104BCB
:103010002046C4E900354FF48063C4E90255C4E991
:103020000435C4E90655C4E9085504F043FF08B166
:10303000FFF77EFFB465A66308B0BDE8F08100BF6E
:10304000003800400020024000040240EC42002012
:103050005860024030B585B0044600226B4683E8D4
:103060000300BDF80450294605F0ACFBC82303A9B2
:103070000222094807F074F901222946204605F08A
:10308000A1FBBDF80C0040BAC0F34A10FDF77CFB71
:1030900041EC100B05B030BD4C4300200D4B82B00D
:1030A0000F216FF001001A6C42F080521A641A6C02
:1030B00002F080520092009A5A6C42F480425A64A4
:1030C00000225B6C03F480430193019B02B004F087
:1030D000DFBD00BF00380240214B1A6C42F01002E5
:1030E00070B51A6488B01B6C054601A903A803F0EB
:1030F00010030293029B06F045FB069B4BBB06F0B8
:1031000021FB184E184B336040F2E733F360174B46
:10311000B0FBF3F3013B3046736000233361B360CF
:10312000B36107F091FC044680B9304607F0B4FA69
:10313000044658B9362004F0DDFD0F2D0DD8224687
:103140002946362004F0A4FD094B1D60204608B036
:1031500070BD06F0F7FA4000D3E70124F6E700BFA0
:1031600000380240B04300200010004040420F00F1
:10317000700000207047FEE7FEE7FEE7FEE77047BD
:10318000014804F0D5BF00BFEC420020014804F024
:103190006FBC00BFD0400020FFF7F8BF402010B543
:1031A00005F020FB054906480B78006801330B70D9
:1031B0000023BDE810401A4608F040BEFC43002042
:1031C00024420020014807F0FBBA00BFB0440020B1
:1031D0004FF4006005F006BB014807F0F1BA00BFEC
:1031E000B0430020014804F0A3BF00BF0444002006
:1031F000014808F02BB800BF84450020014805F0C5
:1032000035BF00BF44420020014805F07DB800BF33
:10321000A44100200120704708B521F0ADFB162322
:1032200003604FF0FF3008BD08B521F0A5FB162361
:103230000360FEE770B50D4614460E46731B9C42B4
:1032400001DC204670BDAFF3008006F8010BF5E706
:1032500070B50D4614460E46731B9C4201DC204699
:1032600070BD16F8010BAFF30080F5E74FF0FF30AB
:1032700070474FF4005300204B60704701207047A7
:10328000002070470A4A116808B5034609B9094980
:1032900011601068694603448B4206D921F06CFB2B
:1032A0000C2303604FF0FF3008BD1360FCE700BF44
:1032B00000440020205C01201022002100B589B0CC
:1032C0000DEB020021F0B2FB16484FF47A724FF07A
:1032D00080410023C0E9001247F23052039383601B
:1032E000CDE90133C0E903238023836107F0ACFB00
:1032F00008B1FFF71DFE4FF4805304A90948049359
:1033000007F0C6FC08B1FFF713FE002301A905482A
:103310000193039307F0D6FE08B1FFF709FE09B049
:103320005DF804FBB044002037B503680546234A26
:10333000934229D1224B4FF48060224C40215A6C99
:1033400042F001025A645B6C1F4A03F001030093D0
:10335000009B4FF04063C4E900234FF40062002358
:10336000C4E904024FF400522046C4E90213C4E940
:103370000623C4E9083304F09DFD08B1FFF7D8FD2A
:103380006C62A56303B030BDB3F1804FFAD103F591
:103390000E3305211C201A6C42F001021A6400222F
:1033A0001B6C03F001030193019B04F071FC1C20D2
:1033B00003B0BDE8304004F09DBC00BF00000140F8
:1033C00000380240044400202864024010B586B052
:1033D00004461422002101A821F028FB22680D4B8D
:1033E0009A4215D103F59C3301A90B481A6B42F0A0
:1033F00001021A634FF480721B6B03F00103009308
:10340000009B0223CDE901230123059305F04EF82B
:1034100006B010BD000001400000024010B51022AF
:103420009AB0002400210DEB020021F0FFFA1C22CB
:10343000214608A80394CDE9014421F0F7FA2C2293
:1034400021460FA821F0F2FA2B482C4B84604461EE
:10345000C0E900344FF48773C0E9033480238361EB
:1034600007F0F2FA08B1FFF763FD4FF4805304A9A7
:103470002148049307F00CFC08B1FFF759FD1E48E2
:1034800007F012FB08B1FFF753FD002401A91A4809
:103490000394CDE9014407F015FE08B1FFF748FD9C
:1034A0006023002208A914480E94CDE90834CDE920
:1034B0000A44CDE90C4407F05FFB08B1FFF738FD83
:1034C00000234FF400520FA90B481393169319933E
:1034D000CDE914234FF00072CDE90F33CDE911335C
:1034E000CDE9172307F038FE08B1FFF721FD0248A8
:1034F000FFF76CFF1AB010BD6444002000000140CB
:1035000008B50C484FF4E1330B4AC0E9002300230F
:103510000C22C0E9023303614362C0E90523C0E91C
:10352000073308F0F2F918B1BDE80840FFF700BD15
:1035300008BD00BFFC4400200010014008B50C4845
:103540004FF4E1330B4AC0E9002300230C22C0E909
:10355000023303614362C0E90523C0E9073308F081
:10356000D4F918B1BDE80840FFF7E2BC08BD00BFC0
:103570008445002000140140F0B5ADB0044614228B
:10358000002106A821F052FA842200210BA821F084
:103590004DFA23683B4A93423ED140230BA80B933C
:1035A00006F00EF908B1FFF7C3FC374B02270026DF
:1035B00003255A6C072406A9344842F010025A64C5
:1035C0005A6C02F010020192019A1A6B42F0020248
:1035D0001A631A6B02F002020292029A1A6B42F00C
:1035E00001021A631B6B0A9403F001030393039B0C
:1035F0008023CDE90865CDE9063704F057FF4FF485
:10360000007306A922480A94CDE90637CDE908657A
:1036100004F04CFF2DB0F0BD1E4A9342FAD14FF496
:1036200000630BA80B9306F0CBF808B1FFF780FC02
:10363000154B002406A918485A6C42F020025A641F
:103640005A6C02F020020492049A1A6B42F00402AF
:103650001A63C0221B6B03F004030593059B02232E
:10366000CDE906230323CDE9084308230A9304F098
:103670001DFF22460521472004F00AFB472004F0E5
:1036800039FBC7E700100140003802400004024047
:10369000000002400014014000080240704710B5CD
:1036A0000446042120F0CDF9204610BD012908B5BB
:1036B00006D0022908D059B902F0D8FB006808BD2D
:1036C00002F0D4FB4068FAE702F0D0FB8068F6E72E
:1036D0000020F4E700487047006502900120704721
:1036E00013B5002451B1036801AA01948DF8034079
:1036F0009C680DF10303A04702B010BD0846FBE72C
:10370000C0897047008A7047C088704780887047BA
:10371000807A00F07F007047807AC0097047704758
:103720007047704770477047704730B585B0036881
:10373000044601816D460146D3F884303C34284666
:10374000984795E8070084E8070005B030BD30B51C
:1037500085B00368044641816D460146D3F8843044
:103760003C342846984795E8070084E8070005B0F0
:1037700030BD0022028042808280C280704780F883
:1037800036107047036870B504461B6B15469847A2
:103790002368204629465B6EBDE87040184700202C
:1037A000704700224FF0FF318260C0E9002170476E
:1037B000806C704770477047704710B50446082109
:1037C00020F03FF9204610BD10B504464C2120F0F2
:1037D00038F9204610BD0000034B10B504460360C5
:1037E0000EF006FE204610BD64670290074B07B539
:1037F000036001900EF0FCFD019842F6E84120F0D4
:1038000020F9019803B05DF804FB00BF64670290E3
:1038100008B5FEF731F908BD10B500F50054D4F82D
:10382000E42C0132022AC4F8E42C05D10368DB6AD7
:1038300098470023C4F8E43C10BD0000036870B54D
:103840005E6B0446114B8DB21B682BB9104B6C217B
:10385000104A114821F05EF81049828D0988914282
:1038600003D80F4B6D210B4AF3E713F812200D4BD1
:103870001B6853F8220003681B6B9847281A3346CD
:1038800001B22046BDE87040184700BFC85901206A
:10389000146502905665029091650290CC59012002
:1038A000D8650290D059012008B529B910F064FA02
:1038B000BDE8084000F086BD08BD036870B5044649
:1038C0001B6B154698472368204629465B6BBDE86D
:1038D0007040184770B504461D46BDF91060FFF7EB
:1038E000ECFF2368294620469B6B984723683146A6
:1038F0002046DB6BBDE87040184700000022C0E99D
:103900000122C0E90322C0E90522C0E907224FF4E1
:1039100080728284014A0260704700BF5C66029038
:1039200010B504462622002121F080F82046FFF73A
:10393000E5FF044B20462360FF2384F82630002354
:10394000A36210BD308D029010B5044626220021DE
:1039500021F06CF82046FFF7D1FF0A4B4FF47F02AD
:103960002046A3624FF6FF73A3850023C4E90C32FF
:10397000054A238722604FF0FF32E363A364C4E962
:10398000102310BDC4660290D466029010B50446A0
:103990002622002121F04AF82046FFF7AFFF084B0E
:1039A000204623604FF6FF73E3844FF07E53A362FB
:1039B000E362002323636363A363E363236410BDB3
:1039C000988D02902DE9F04F044600262DED0C8BCA
:1039D0008BB0A14611F0F8FD644B04F16C0A04F1C0
:1039E0009808E66304F1E40749F8403B4846FFF7CE
:1039F00097FF5046FFF794FF4046FFF7A5FF384674
:103A0000FFF7A2FF04F5987304F5187B251D1846EF
:103A100009EE103AFFF798FF04F5BE73184609EE59
:103A2000903AFFF791FF04F5E47318460AEE103A56
