:020000040800F2
:10000000B0080020F51E0008CD1E0008CF1E000815
:10001000D11E0008D31E0008D51E000800000000F5
:10002000000000000000000000000000D71E0008D3
:10003000D91E000800000000DB1E0008DD1E0008BD
:100040001D1F0008211F0008251F0008291F000888
:100050002D1F0008311F0008351F0008391F000838
:100060003D1F0008411F0008451F0008491F0008E8
:100070004D1F0008511F0008551F0008591F000898
:100080005D1F0008611F0008651F0008691F000848
:100090006D1F0008711F0008751F0008791F0008F8
:1000A0007D1F0008811F0008851F0008891F0008A8
:1000B0008D1F0008911F0008951F0008991F000858
:1000C0009D1F0008A11F0008A51F0008A91F000808
:1000D000AD1F0008B11F0008B51F0008B91F0008B8
:1000E000BD1F0008C11F0008C51F0008C91F000868
:1000F000CD1F0008D11F0008D51F0008D91F000818
:10010000DD1F0008E11F0008E51F0008E91F0008C7
:10011000ED1F0008F11F0008F51F0008F91F000877
:10012000FD1F000801200008052000080920000824
:100130000D200008112000081520000819200008D3
:100140001D20000821200008252000082920000883
:100150002D20000831200008352000083920000833
:100160003D200008412000084520000849200008E3
:100170004D20000851200008552000085920000893
:100180005D20000861200008652000086920000843
:100190006D200008712000087520000879200008F3
:1001A0007D200008812000088520000889200008A3
:1001B0008D20000891200008952000089920000853
:1001C0009D200008A12000087CB50400012600F055
:1001D000FBFB0500002C01D101205AE0206A4028D9
:1001E00094F84000012801D1022052E0012084F857
:1001F000400094F8410000280AD1002084F8400013
:10020000200000F0E0FB41F28831200000F0B4FA59
:100210002068006830F4F850A168491E50EA0120B7
:1002200021680860A06C00902B0000222021200093
:1002300000F0A4FA0100C9B2002926D121680A6899
:1002400014490A40616852EA0162E1680A43E169BF
:100250000A43216A0A4321680A6021684A680E49F4
:100260000A40216952EA014261690A43A1690A43CD
:1002700021684A602168096851F001012268116013
:1002800000216164012184F84110002184F84010AC
:10029000C0B276BD2FFFFF00FEF8E0FF10B50400EE
:1002A000002C01D101201AE094F84000012801D16E
:1002B000022014E0012084F8400020680068400813
:1002C000400021680860200000F084FB002060648A
:1002D000002084F84100002084F84000002010BD78
:1002E0002DE9F84304000D0016005FF0010800F04E
:1002F0006BFB0700A8690028E8690028286A002825
:1003000094F84000012801D102203DE0012084F84A
:10031000400094F8410001282FD1002060640220A1
:1003200084F8410000963B0000222021200000F0CC
:1003300025FA81464846C0B2002820D10022290073
:10034000200000F044FA686A002812D100963B00B1
:1003500001220221200000F011FA81464846C0B275
:1003600000280CD102202168C860012084F84100D7
:1003700005E0012084F8410001E05FF0020900205F
:1003800084F840004846C0B2BDE8F2832DE9F84346
:1003900005000C001600002700F016FB80462868B8
:1003A00010F1200995F84000012801D102205EE0FB
:1003B000012085F8400095F84100012850D1002027
:1003C0006864002C45D0122085F841002868006937
:1003D000401CE86228680069401CA8626C622868BA
:1003E000406930F0406029684861E86A002815D00B
:1003F0000096434601220421280000F0BFF90700BF
:100400003800C0B2002809D1686A411C69620078CE
:1004100089F80000E86A401EE862E6E73800C0B2EA
:10042000002812D10096434601220221280000F044
:10043000A5F907003800C0B2002806D102202968BB
:10044000C860280000F04CF90700012085F8410041
:1004500008E0686C50F0080068640120070001E0C3
:1004600002200700002085F840003800C0B2BDE837
:10047000F2832DE9FC4705000C001600002700F070
:10048000A3FA80462868D0F81890286810F1200A4E
:1004900095F84000012801D1022063E0012085F891
:1004A000400095F84100012855D100206864002CD7
:1004B0004AD0222085F8410028680069401CA863C2
:1004C00028680069401C68632C632868406930F024
:1004D000406050F08060296848612868C0F8189032
:1004E000A86B002815D0009643460122062128005B
:1004F00000F044F907003800C0B2002809D1286B89
:10050000411C29639AF800100170A86B401EA86373
:10051000E6E73800C0B2002812D100964346012217
:100520000221280000F02AF907003800C0B2002894
:1005300006D102202968C860280000F0D1F8070021
:10054000012085F8410008E0686C50F008006864FC
:100550000120070001E002200700002085F840008C
:100560003800C0B2BDE8F6872DE9FC4704000D0055
:1005700016001F005FF0010800F026FA8146A86906
:100580000028E8690028286A002894F8400001281B
:1005900001D102204CE0012084F8400094F8410091
:1005A00001283ED100206064422084F84100009779
:1005B0004B4600222021200000F0E0F88246504601
:1005C000C0B200282FD13068216888627068216825
:1005D0004862B0682168C8622068016831F440014F
:1005E0003069014351F4800120680160F068A8621D
:1005F0005FF000622900200000F0E9F800974B4608
:1006000001220821200000F0B9F882465046C0B20D
:10061000002808D108202168C860012084F8410022
:1006200001E05FF0020A002084F840005046C0B2AA
:10063000BDE8F6872DE9F84304000D0016005FF0D1
:10064000010800F0C1F90700A8690028E86900283E
:10065000286A002894F84000012801D102203DE0DA
:10066000012084F8400094F8410001282FD1002097
:100670006064822084F84100A06C00903B0000225E
:100680002021200000F07AF881464846C0B20028B8
:100690001FD12068016831F00801706801432068AB
:1006A0000160706808280BD1306821680863102049
:1006B0002168C8602068006850F4801021680860D4
:1006C0005FF040622900200000F081F801E05FF057
:1006D0000209002084F840004846C0B2BDE8F28319
:1006E0007CB50400002500F06FF9060094F8410085
:1006F00080073ED5002084F840002068006840074D
:1007000011D52068006830F0040021680860E06BB3
:1007100000F07EF905002800C0B2002803D0606C0C
:1007200050F0040060642068006850F00200216806
:100730000860A06C0090330001220221200000F02C
:100740001DF805002800C0B200280BD10220216846
:10075000C860A06C0090330000222021200000F02F
:100760000DF805002800C0B2002802D1012084F84D
:1007700041002800C0B276BD816470472DE9F04188
:1007800005000E0090461F00069C286880683042D5
:1007900001D0012000E000204146C0B2C9B2884229
:1007A00012D014F1010FF0D0002C04D000F00CF99D
:1007B000C01B8442E9D2042085F84100686C50F0E7
:1007C00001006864012000E00020BDE8F08110B461
:1007D0004B6A002B06D0B2F1406F03D08B6A5B1ED0
:1007E000046823618B69002B79D00B6A002B3ED003
:1007F0008B680468E361CB69002B20D0CC6A0B6B5B
:100800001C434B6B1C434B6A1C434B6954EA8344A7
:100810000B691C430B6A1C43CB681C43CB691C430C
:100820008B691C430B681C43144303685C61B2F181
:10083000406F00F0C6804B680468A361C1E0CC6AD9
:100840000B6B1C434B6B1C434B6A1C434B6954EAB8
:1008500083440B691C430B6A1C43CB691C438B69A3
:100860001C430B681C43144303685C61A9E0CB691B
:10087000002B1ED0CC6A0B6B1C434B6B1C434B6A8A
:100880001C434B6954EA83440B6A1C43CB681C43EA
:10089000CB691C438B691C430B681C4314430368DE
:1008A0005C61B2F1406F00F08C804B680468A3611A
:1008B00087E0CC6A0B6B1C434B6B1C434B6A1C439D
:1008C0004B6954EA83440B6A1C43CB691C438B6914
:1008D0001C430B681C43144303685C6171E00B6AA2
:1008E000002B39D08B680468E361CB69002B1DD0E5
:1008F000CC6A0B6B1C434B6B1C434B6A1C434B6910
:1009000054EA83440B691C430B6A1C43CB681C43A9
:10091000CB691C438B691C43144303685C61B2F1CF
:10092000406F4ED04B680468A3614AE0CC6A0B6B01
:100930001C434B6B1C434B6A1C434B6954EA834476
:100940000B691C430B6A1C43CB691C438B691C431A
:10095000144303685C6134E0CB69002B1BD0CC6A84
:100960000B6B1C434B6B1C434B6A1C434B6954EA97
:1009700083440B6A1C43CB681C43CB691C438B69C3
:100980001C43144303685C61B2F1406F19D04B689B
:100990000468A36115E04B6A002B12D0CC6A0B6B84
:1009A0001C434B6B1C434B6A1C434B6954EA834406
:1009B0000B6A1C43CB691C438B691C4314430368BB
:1009C0005C6110BC7047704701480068704700BF09
:1009D000AC000020704730B4002513E050F8042B21
:1009E000D30744BFA9F101039A18091F042942F84B
:1009F000045BFAD213468C0744BF15809B1CC907C1
:100A000048BF1D7050F8041B0029E7D130BC704767
:100A100070B50400A56DFFF7D7FF060094F8350008
:100A2000022806D080206065002084F83400012070
:100A30003BE02068006830F01600216808602068FC
:100A4000406930F0800021684861206C002802D1A4
:100A5000A06C002805D02068006830F008002168EC
:100A6000086020680068400840002168086020682D
:100A70000068C0070ED5FFF7A7FF801B0628F6D336
:100A800020206065002084F83400032084F83500BD
:100A900003200AE03F21E06D8140A960002084F836
:100AA0003400012084F83500002070BD2DE9FC41A0
:100AB00004000026002C01D10120D8E12078C007D5
:100AC0006DD5DFF89405016811F00C01042909D0F7
:100AD000006810F00C0008280ED1DFF880050068CF
:100AE000400209D5DFF86C050068800357D56068BF
:100AF000002854D10120BAE16068B0F5803F06D1EA
:100B0000DFF85005016851F48031016026E060682B
:100B100000280AD1DFF83C05016831F4803101601A
:100B2000016831F48021016018E06068B0F5A02F01
:100B30000AD1DFF82005016851F4802101600168C5
:100B400051F48031016009E0DFF80805016831F4F3
:100B500080310160016831F4802101606068002803
:100B60000ED0FFF731FF0500DFF8E80400688003CE
:100B700015D4FFF729FF401B6528F5D3032076E144
:100B8000FFF722FF0500DFF8CC040068800306D5DC
:100B9000FFF71AFF401B6528F5D3032067E1207893
:100BA000800752D5DFF8B004016811F00C0F09D0AE
:100BB000006810F00C00082816D1DFF8A0040068C7
:100BC000400211D4DFF88C040168890704D5E1687C
:100BD000012901D001204AE1016831F0F8012269C0
:100BE00051EAC201016030E0E06800281AD0DFF865
:100BF0006474386850F001003860FFF7E5FE0500C6
:100C00003868800706D4FFF7DFFE401B0328F7D3C0
:100C100003202CE1386830F0F800216950EAC10067
:100C2000386012E0DFF82C74386840084000386003
:100C3000FFF7CAFE05003868800706D5FFF7C4FE37
:100C4000401B0328F7D3032011E12078000728D5A3
:100C50006069002812D0DFF80874386850F001008D
:100C60003860FFF7B1FE05003868800719D4FFF738
:100C7000ABFE401B0328F7D30320F8E0DFF8E07356
:100C80003868400840003860FFF79EFE050038686D
:100C9000800706D5FFF798FE401B0328F7D30320F3
:100CA000E5E02078400740F18780DFF8C0733868BE
:100CB000C0000AD4386850F080503860386810F0AE
:100CC00080500090009801200600DFF8A483D8F837
:100CD0000000C00513D4D8F8000050F48070C8F8A4
:100CE0000000FFF771FE0500D8F80000C00506D42B
:100CF000FFF76AFE401B6528F6D30320B7E0A06823
:100D0000012806D1DFF86C03016851F00101016090
:100D100025E0A06800280AD1DFF8580301684908D7
:100D200049000160016831F00401016017E0A0682A
:100D300005280AD1DFF83C03016851F00401016085
:100D4000016851F00101016009E0DFF82803016842
:100D5000490849000160016831F004010160A068A0
:100D6000002810D0FFF730FE0500DFF80803006808
:100D7000800719D4FFF728FE401B41F289318842D1
:100D8000F3D3032073E0FFF71FFE0500DFF8E40252
:100D90000068800708D5FFF717FE401B41F2893134
:100DA0008842F3D3032062E03000C0B2012803D1AF
:100DB000386830F080503860A069002856D0DFF8DD
:100DC0009802006810F00C0008284DD0A069022895
:100DD00037D1DFF88072386830F080703860FFF704
:100DE000F3FD80463868800107D5FFF7EDFDB0EBD5
:100DF00008000328F6D3032039E0E169206A0143A3
:100E0000606A51EA8011A06A4008401E51EA004120
:100E1000E06A51EA006151F00051DFF840020160E0
:100E2000386850F080703860FFF7CEFD05003868F4
:100E300080011BD4FFF7C8FD401B0328F7D3032014
:100E400015E0DFF81072386830F080703860FFF716
:100E5000BBFD05003868800108D5FFF7B5FD401BD4
:100E60000328F7D3032002E0012000E00020BDE8C2
:100E7000F6812DE9F04104000D000026002C01D17F
:100E800001209FE0DFF8F071386810F00F00A842F1
:100E90000BD238680009000128433860386810F028
:100EA0000F00A84201D001208CE02078800719D5DE
:100EB0002078400705D5DFF8A001016851F4E05122
:100EC00001602078000705D5DFF88C01016851F436
:100ED00060410160DFF880110A6832F0F002A0681A
:100EE00002430A602078C00737D56068012806D120
:100EF000DFF860010068800311D4012062E06068BF
:100F0000022806D1DFF84C010068800107D40120D7
:100F100058E050480068800701D4012052E0DFF813
:100F20003881D8F800108908890060680143C8F842
:100F30000010FFF749FD0600D8F8000010F00C0083
:100F40006168B0EB810F08D0FFF73EFD801B41F2D6
:100F500089318842F0D3032034E0386810F00F0064
:100F600085420BD238680009000128433860386890
:100F700010F00F00A84201D0012023E020784007A4
:100F800006D535490A6832F4E052E06802430A6047
:100F90002078000707D53048016831F460412269A4
:100FA00051EAC201016000F00FF834492A4A126880
:100FB000C2F30312895CC8402B4908600F2000F07F
:100FC00061F80020BDE8F0812DE9F0410024002502
:100FD000002600272048006810F00C00002804D0EC
:100FE000042804D0082804D031E01E4830E024480A
:100FF0002EE0DFF86880D8F8000010F03F00040011
:10100000D8F8000040020CD5D8F80000C0F38810D2
:101010001B49A1FB00012200002300F059F8050044
:101020000BE0D8F80000C0F388100E49A1FB0001C6
:101030002200002300F04CF80500D8F80000C0F3AF
:101040000140401C40000600B5FBF6F000E00548FA
:10105000BDE8F08100380240083802400438024000
:10106000743802400024F40004000020403802409C
:101070000070004070380240003C0240E41E00084E
:1010800040787D0110B504004FF47A700D4909785D
:10109000B0FBF1F00C490968B1FBF0F000F0B0F9D9
:1010A000002801D001200CE0102C09D200222100E0
:1010B0005FF0FF3000F08FF904480460002000E08A
:1010C000012010BD080000200400002000000020C6
:1010D000BBBBE1B1B2F5803F80F07E80022A1ED911
:1010E0008C46B1FBF2F102FB11C31B0443EA10432F
:1010F000B3FBF2FC02FB1C3380B240EA0343B3FBB8
:10110000F2F002FB103240EA0C4000237047022A42
:1011100005D98446B0FBF2F002FB10C270474AB119
:1011200005D100F0010249085FEA30007047002253
:101130000023704700F078B90B0002000021002066
:101140007047904271EB030CF6D3B3F5803F2FD27A
:10115000F0B5B3FA83F7B1FA81F4A7F10F0E3D1B96
:101160005340CEF1200602FA0EF2F3415340B5F19E
:101170000F0746D80F3C2C444140C4F12006A04044
:10118000F1414140B1FBF3F603FB1611A2FB06450A
:10119000001BA94102D2761E8018594180EA010243
:1011A00021FA0EF362FA0EF200215A403046F0BDE9
:1011B00030B4B1FBF3FC03FB1C11A2FB0C45001B7C
:1011C000A94103D2ACF1010C8018594130BC024650
:1011D0000B46604600217047B2F1807F65D3F0B5C1
:1011E000B2FA82F7B1FA81F4C7F10F063D1B22FA79
:1011F00006F307F1110EF24120355A40B5F10F0701
:10120000B8D94140C4F12006A040F1414140B1FBB2
:10121000F3FC03FB1C11A2FB0C45001BA94103D2EC
:10122000BCF1010C801859410F2F12D30F3FC90395
:1012300041EA5041B1FBF3F603FB1611A2FB064550
:10124000D4EBC030A94102D2761E8018594146EA3B
:10125000CC3C07B34140C7F12006B840F1414140C2
:10126000B1FBF3F603FB1611A2FB0645001BA941D7
:1012700002D2761E8018594180EA010221FA0EF34B
:10128000C7F1200462FA0EF20CFA07F05A402CFA69
:1012900004F13043F0BD80EA010221FA0EF300218F
:1012A00062FA0EF260465A40F0BD8C46B1FBF2F194
:1012B00002FB11C31B0243EA1063B3FBF2FC02FB07
:1012C0001C331B024CEA002043EA1063B3FBF2FC20
:1012D00002FB1C331B024CEA002043EA1063B3FB01
:1012E000F2FC02FB1C331B024CEA002043EA1063B1
:1012F000B3FBF2FC02FB1C324CEA002000237047D7
:1013000010B410F00703DFF8044122684FF6FF0124
:101310000A40DFF8FC1051EA03210A43226010BCA6
:101320007047DFF8E8000068C0F30220704710B48F
:10133000020052B2002A05D40A01364B040064B2FE
:101340001A5508E00A01344B040064B214F00F048B
:10135000234403F8042C10BC704770B4030013F04E
:101360000704D4F10700052801D3042001E0D4F1DB
:101370000700251D072D01D2002500E0E51E0126EE
:1013800016FA00F0401E0140A94016FA05F56D1E40
:101390002A401143080070BC704710B50400601E5D
:1013A000B0F1807F01D301200EE0601E1B49086070
:1013B0000F215FF0FF30FFF7BAFF002018490860E7
:1013C000072018490860002010BD10B50400200057
:1013D000FFF796FF10BD2DE9F04104000D00160047
:1013E0000027FFF79EFF8046320029004046FFF7A6
:1013F000B4FF0100200040B2FFF799FFBDE8F08183
:1014000010B504002000FFF7C8FF10BD0CED00E090
:101410000000FA0500E400E018ED00E014E000E050
:1014200018E000E010E000E07047000010B5CC4C80
:10143000CC4820602000FEF731FF002801D00120B9
:1014400055E000F095F9C8480021C1610021016212
:1014500000214162002141610021C162002101633C
:10146000002141634FF40051C160C0480021016177
:101470000121C160102181605FF480014161012080
:1014800060600420A0601020E0608020B0FA80F04E
:10149000401E20614FF4A06060610020A061002028
:1014A000E061002020622000FEF78EFE002801D0BF
:1014B00001201CE0200000F01BF8002801D00120D2
:1014C00015E0200000F0ACF8002801D001200EE06B
:1014D000200000F04DF8002801D0012007E0200096
:1014E00000F028F8002801D0012000E0002010BD05
:1014F00070B504009C4D4FF48070A8616620286090
:101500000020686241F28836320029002000FEF790
:10151000E7FE002801D001200BE09920286032006E
:1015200029002000FEF7DCFE002801D0012000E0A9
:10153000002070BD1CB504008B494FF440708861D9
:10154000EB2008604FF44060C8615FF04070486273
:101550000A20486100200190002000906A46200087
:10156000FFF768F8002801D0012000E0002016BD38
:1015700030B58FB004004FF4807007908520019043
:1015800000200890002009905FF080700A900020F1
:10159000069001200B9000200C9000200D90002060
:1015A0000E9041F288352A0001A92000FEF798FE2E
:1015B000002801D0012031E02A0069462000FEF712
:1015C00058FF002801D0012028E0200000F09EF8FC
:1015D000002801D0012021E0812001909DF8001019
:1015E00011F00F010A225FF07060B0FA80F08240C3
:1015F00011438DF800102A0001A92000FEF770FEAB
:10160000002801D0012009E02A0069462000FEF7E9
:10161000BDFE002801D0012000E000200FB030BD49
:10162000F0B595B004004FF4807007900020099049
:101630000020069000200C9000200D9000200E90BD
:1016400010201190002013905FF48000149065200A
:101650000190002008905FF080750A9501200B90A2
:101660003F4E41F288373A0001A93000FEF738FEBC
:10167000002801D0012047E03A0069463000FEF71B
:10168000F8FE002801D001203EE006200190002055
:101690000A903A0001A93000FEF722FE002801D08E
:1016A000012031E002200F900220109001201290C2
:1016B000052001900A953B000FAA01A93000FEF712
:1016C00053FF002801D001201EE06120019001207D
:1016D0000B909DF8000010F03F0050F040008DF896
:1016E00000003A0001A93000FEF7FAFD002801D001
:1016F000012009E03A0069463000FEF747FE002865
:1017000001D0012000E0002015B0F0BD70B504004C
:10171000154D4FF44070A8610620286000206862D3
:1017200041F28836320029002000FEF7D9FD00285A
:1017300001D0012013E00D4A022010600220506009
:10174000052028605FF040706862330029002000A7
:10175000FEF70AFF002801D0012000E0002070BD44
:101760000C000020001000A0580000209000002075
:1017700010B586B03648016851F00201016000687A
:1017800010F00200059005983248016851F00201FE
:101790000160016831F0020101602F48016851F0D9
:1017A00002010160016811F00201059105990168CB
:1017B00051F008010160016811F0080105910599D7
:1017C000016851F010010160006810F010000590F0
:1017D0000598402000900A200490022001900120EA
:1017E0000290022003901D4C6946200000F03CF856
:1017F00004200090092004900020029069462000F7
:1018000000F032F84FF40060009009200490144C6E
:101810006946200000F028F84FF48050009009201D
:1018200004906946200000F01FF804200090092071
:10183000049069460B4800F017F84FF400500090F0
:10184000092004906946200000F00EF806B010BD93
:101850003838024018380240303802400004024054
:10186000000C0240001002402DE9F8410022002344
:10187000002400260025102D80F00B81012717FA87
:1018800005F213000A681A4014009C4240F0FF80E1
:101890004A68022A02D04A68122A1FD12A00D208B6
:1018A00000EB8202D2F820C05FF00F0E15F00702A5
:1018B000D2B292001EFA02FE3CEA0E0CD1F810E001
:1018C00015F00702D2B292001EFA02FE5EEA0C0C7C
:1018D00066462A00D20800EB82021662D0F800C0E9
:1018E0005FF0030E2A00D2B252001EFA02F23CEA66
:1018F000020C91F8048018F003082A00D2B25200BA
:1019000018FA02F858EA0C0CC0F800C04A68012A1C
:1019100008D04A68022A05D04A68112A02D04A68CB
:10192000122A1BD186682A00D2B252001EFA02F295
:101930009643D1F80C802A00D2B2520018FA02F86D
:1019400058EA060686604268AF40BA434F68C7F35C
:101950000017AF403A439446C0F804C0C6682A0056
:10196000D2B252001EFA02FE36EA0E068F682A0034
:10197000D2B2520097403E43C6604A68D20040F15E
:101980008680DFF81421176857F4804717601268C3
:1019900012F480420092009ADFF800C12A009208F7
:1019A0005CF822705FF00F0E15F00302D2B29200C5
:1019B0001EFA02FE37EA0E07DFF8E420904201D15A
:1019C000002631E0DFF8DC20904201D101262BE037
:1019D000DFF8D420904201D1022625E0DFF8CC20A8
:1019E000904201D103261FE0DFF8C420904201D1CC
:1019F000042619E02F4A904201D1052614E02E4A10
:101A0000904201D106260FE02C4A904201D10726D0
:101A10000AE02B4A904201D1082605E0294A90426B
:101A200001D1092600E00A26F6B215F00302D2B26F
:101A30009200964037432A0092084CF82270224EBA
:101A40003268A243D1F804C05FEACC3C00D52243FF
:101A500032601E4F3E68A643D1F804C05FEA8C3C5A
:101A600000D526433E601A4F3A68A243D1F804C01D
:101A70005FEACC2C00D522433A60164F3E68A6435D
:101A8000D1F804C05FEA8C2C00D526433E606D1C63
:101A9000F1E6BDE8F1810000443802400838014019
:101AA000000002400004024000080240000C024016
:101AB000001002400014024000180240001C0240C6
:101AC0000020024000240240003C0140043C014050
:101AD000083C01400C3C0140BFF34F8FBFF36F8FB8
:101AE000002049490860BFF34F8FBFF36F8F47480D
:101AF000016851F400310160BFF34F8FBFF36F8F66
:101B00007047BFF34F8FBFF36F8F4048016831F4C8
:101B10000031016000203C490860BFF34F8FBFF3E4
:101B20006F8F704710B4002039490860BFF34F8FA2
:101B300038480168C1F34E32C1F3C900030043F6CF
:101B4000E07010EA421050EA8370334C20601800B5
:101B5000431E0028F3D11000421E0028ECD1BFF331
:101B60004F8F2A48046854F480340460BFF34F8FC9
:101B7000BFF36F8F10BC704710B400202449086079
:101B8000BFF34F8F2148016831F480310160BFF30A
:101B90004F8F20480168C1F34E32C1F3C9000300E2
:101BA00043F6E07010EA421050EA83701B4C20604C
:101BB0001800431E0028F3D11000421E0028ECD16B
:101BC000BFF34F8FBFF36F8F10BC704780B500F02D
:101BD00072F800F07DF800F030F800F027F80028E7
:101BE00001D000F029F800F06CF800200C490860E2
:101BF0000C480D49096801605FF01041096881F3E4
:101C0000088800688047FEE750EF00E014ED00E030
:101C100084ED00E080ED00E060EF00E074EF00E0B4
:101C200010E000E0A80000200400009010B500249F
:101C3000FFF7FCFB204310BDFEE730B591B0002458
:101C4000012005905FF48030069002200B905FF435
:101C500080000C9019200D904FF4D8700E90022047
:101C60000F900820109005A8FEF720FF050028001F
:101C7000C0B2002800D0FEE700F03EF804002000CB
:101C8000C0B2002800D0FEE70F2000900220019093
:101C9000002002904FF4A05003904FF48050049025
:101CA00006216846FFF7E5F80100C9B2002900D017
:101CB000FEE711B030BD80B5FFF70EFFFFF732FF32
:101CC00001BD80B5FFF71DFFFFF756FF01BD000006
:101CD00080B50748016851F4807101600320FFF767
:101CE00074FB0F20FFF7CEF900F004F8002002BDCE
:101CF000003C0240704700007CB500241B4801688E
:101D000051F080510160006810F080500090009800
:101D1000154E306850F480303060FEF755FE0500F7
:101D2000104C2068C00308D4FEF74EFE401B40F262
:101D3000E9318842F4D3032013E0306850F40030D6
:101D40003060FEF741FE06002068800308D4FEF7ED
:101D50003BFE801B40F2E9318842F5D3032000E0CE
:101D6000002076BD04700040007000404038024002
:101D70000F48016851F4700101600E49086850F085
:101D80000100086000200C4A10600A680B480240FD
:101D90000A600B480B4A1060086830F48020086025
:101DA0000020094908605FF000600849086070473A
:101DB00088ED00E00038024008380240FFFFF6FEE0
:101DC00010300024043802400C38024008ED00E0D6
:101DD00030B450F8041B79B10268436802440830FB
:101DE000DC0744BFA9F10104E31852F8045B43F88F
:101DF000045B091FF9D1ECE730BC704710B5074907
:101E000079441831064C7C44163404E00A68081DF5
:101E1000114488470146A142F8D110BD2C000000B2
:101E20004C0000004EF68851CEF20001086840F4E4
:101E300070000860BFF34F8FBFF36F8F4FF00070DB
:101E4000E1EE100A704700008FEBFFFFA4000000D6
:101E50000C0000200000000079FFFFFF0C000000D4
:101E6000B0000000000000200000000000F00DF8AD
:101E7000002801D0FFF7C2FFAFF300800020AFF3CE
:101E80000080FFF7A3FE00F002F80120704700F089
:101E900001B800000746384600F002F8FBE70000F2
:101EA00080B5AFF30080024A11001820ABBEFBE7FB
:101EB0002600020003480168034A1278891801606D
:101EC000704700BFAC000020080000207047FEE70C
:101ED000FEE7FEE7FEE770477047704780B5FFF703
:101EE000E9FF01BD00000000000000000102030442
:101EF000060708090148804701480047711D00088E
:101F0000051F0008AFF30080FFF78CFFFFF7AEFF5F
:101F1000100000000024F40001000000FFF7FEBFE5
:101F2000FFF7FEBFFFF7FEBFFFF7FEBFFFF7FEBFE5
:101F3000FFF7FEBFFFF7FEBFFFF7FEBFFFF7FEBFD5
:101F4000FFF7FEBFFFF7FEBFFFF7FEBFFFF7FEBFC5
:101F5000FFF7FEBFFFF7FEBFFFF7FEBFFFF7FEBFB5
:101F6000FFF7FEBFFFF7FEBFFFF7FEBFFFF7FEBFA5
:101F7000FFF7FEBFFFF7FEBFFFF7FEBFFFF7FEBF95
:101F8000FFF7FEBFFFF7FEBFFFF7FEBFFFF7FEBF85
:101F9000FFF7FEBFFFF7FEBFFFF7FEBFFFF7FEBF75
:101FA000FFF7FEBFFFF7FEBFFFF7FEBFFFF7FEBF65
:101FB000FFF7FEBFFFF7FEBFFFF7FEBFFFF7FEBF55
:101FC000FFF7FEBFFFF7FEBFFFF7FEBFFFF7FEBF45
:101FD000FFF7FEBFFFF7FEBFFFF7FEBFFFF7FEBF35
:101FE000FFF7FEBFFFF7FEBFFFF7FEBFFFF7FEBF25
:101FF000FFF7FEBFFFF7FEBFFFF7FEBFFFF7FEBF15
:10200000FFF7FEBFFFF7FEBFFFF7FEBFFFF7FEBF04
:10201000FFF7FEBFFFF7FEBFFFF7FEBFFFF7FEBFF4
:10202000FFF7FEBFFFF7FEBFFFF7FEBFFFF7FEBFE4
:10203000FFF7FEBFFFF7FEBFFFF7FEBFFFF7FEBFD4
:10204000FFF7FEBFFFF7FEBFFFF7FEBFFFF7FEBFC4
:10205000FFF7FEBFFFF7FEBFFFF7FEBFFFF7FEBFB4
:10206000FFF7FEBFFFF7FEBFFFF7FEBFFFF7FEBFA4
:10207000FFF7FEBFFFF7FEBFFFF7FEBFFFF7FEBF94
:10208000FFF7FEBFFFF7FEBFFFF7FEBFFFF7FEBF84
:10209000FFF7FEBFFFF7FEBFFFF7FEBFFFF7FEBF74
:0420A000FFF7FEBF89
:0200000490006A
:1000000000000520550600901D2000901F20009044
:100010002120009023200090252000900000000067
:10002000000000000000000000000000016C0090D3
:100030002720009000000000A16C0090056D00904A
:10004000A5060090A5060090A5060090A5060090C4
:10005000A5060090A5060090A5060090A5060090B4
:10006000A5060090A5060090A5060090A5060090A4
:10007000A5060090A5060090A5060090A506009094
:10008000A5060090A5060090A5060090A506009084
:10009000A5060090A5060090A5060090A506009074
:1000A000A5060090A5060090A5060090A506009064
:1000B000A5060090A5060090A5060090A506009054
:1000C000A5060090A5060090A5060090A506009044
:1000D000A5060090A5060090A5060090A506009034
:1000E000A5060090A5060090A5060090A506009024
:1000F000A5060090A5060090A5060090A506009014
:10010000A5060090A5060090A5060090A506009003
:10011000A5060090A506009029200090A506009055
:10012000A5060090A5060090A5060090A5060090E3
:10013000A5060090A5060090A5060090A5060090D3
:10014000A5060090A5060090A5060090A5060090C3
:10015000A5060090A5060090A5060090A5060090B3
:10016000A5060090A5060090A5060090A5060090A3
:10017000A5060090A5060090A5060090A506009093
:10018000A5060090A5060090A5060090A506009083
:10019000A5060090A5060090A5060090A506009073
:1001A00035200090A506009041200090A506009003
:1001B000A5060090A5060090A5060090A506009053
:0801C000A5060090A5060090C1
:1001D00010B5054C237833B9044B13B10448AFF381
:1001E00000800123237010BD2801002000000000C2
:1001F00024F9019008B5034B1BB103490348AFF341
:10020000008008BD000000002C01002024F90190AE
:1002100001F0FF01102A2BDB10F0070F08D010F8B7
:10022000013B013A8B422DD010F0070F42B3F6D1BB
:10023000F0B441EA012141EA014122F007047FF0D4
:1002400000070023F0E80256083C85EA010586EA2B
:10025000010685FA47F5A3FA87F586FA47F6A5FA67
:1002600087F68EB9EED1F0BC01F0FF0102F0070273
:1002700032B110F8013B013A83EA010313B1F8D11E
:100280000020704701387047002D06BF35460338FF
:10029000073815F0010F07D1013015F4807F02BF38
:1002A000013015F4C03F0130F0BC0138704700BF89
:1002B0007BB972B90029BEBF00204FF0004106E0B3
:1002C00008BF00281CBF6FF000414FF0FF3000F066
:1002D000BFB9ADF1080C6DE904CE002909DB002B94
:1002E0001ADB00F04DF8DDF804E0DDE9022304B08C
:1002F0007047404261EB4101002B1BDB00F040F8EE
:10030000DDF804E0DDE9022304B0404261EB410185
:10031000524263EB43037047524263EB430300F0E6
:100320002FF8DDF804E0DDE9022304B0404261EB80
:1003300041017047524263EB430300F021F8DDF8BE
:1003400004E0DDE9022304B0524263EB430370474B
:1003500053B94AB9002908BF00281CBF4FF0FF312C
:100360004FF0FF3000F074B9ADF1080C6DE904CE28
:1003700000F006F8DDF804E0DDE9022304B0704780
:100380002DE9F047089D04468E46002B4DD18A4248
:10039000944669D9B2FA82F252B101FA02F3C2F17B
:1003A000200120FA01F10CFA02FC41EA030E94400C
:1003B0004FEA1C48210CBEFBF8F61FFA8CF708FB2D
:1003C00016E341EA034306FB07F199420AD91CEB05
:1003D000030306F1FF3080F01F81994240F21C8137
:1003E000023E63445B1AA4B2B3FBF8F008FB10337F
:1003F00044EA034400FB07F7A7420AD91CEB0404B4
:1004000000F1FF3380F00A81A74240F20781644483
:10041000023840EA0640E41B00261DB1D440002308
:10042000C5E900433146BDE8F0878B4209D9002D6C
:1004300000F0EF800026C5E9000130463146BDE8F6
:10044000F087B3FA83F6002E4AD18B4202D3824260
:1004500000F2F980841A61EB030301209E46002D0F
:10046000E0D0C5E9004EDDE702B9FFDEB2FA82F264
:10047000002A40F09280A1EB0C014FEA1C471FFAC2
:100480008CFE0126200CB1FBF7F307FB131140EAA9
:1004900001410EFB03F0884208D91CEB010103F176
:1004A000FF3802D2884200F2CB804346091AA4B238
:1004B000B1FBF7F007FB101144EA01440EFB00FE0C
:1004C000A64508D91CEB040400F1FF3102D2A64571
:1004D00000F2BB800846A4EB0E0440EA03409CE710
:1004E000C6F12007B34022FA07FC4CEA030C20FABD
:1004F00007F401FA06F31C43F9404FEA1C4900FADD
:1005000006F3B1FBF9F8200C1FFA8CFE09FB181159
:1005100040EA014108FB0EF0884202FA06F20BD9CC
:100520001CEB010108F1FF3A80F08880884240F21C
:100530008580A8F102086144091AA4B2B1FBF9F060
:1005400009FB101144EA014100FB0EFE8E4508D95B
:100550001CEB010100F1FF346CD28E456AD90238E0
:10056000614440EA0840A0FB0294A1EB0E01A142C5
:10057000C846A64656D353D05DB1B3EB080261EB33
:100580000E0101FA07F722FA06F3F1401F43C5E90D
:10059000007100263146BDE8F087C2F12003D84043
:1005A0000CFA02FC21FA03F3914001434FEA1C4785
:1005B0001FFA8CFEB3FBF7F007FB10360B0C43EA77
:1005C000064300FB0EF69E4204FA02F408D91CEB27
:1005D000030300F1FF382FD29E422DD90238634425
:1005E0009B1B89B2B3FBF7F607FB163341EA0341C5
:1005F00006FB0EF38B4208D91CEB010106F1FF3814
:1006000016D28B4214D9023E6144C91A46EA00460A
:1006100038E72E46284605E70646E3E61846F8E69C
:100620004B45A9D2B9EB020864EB0C0E0138A3E7E5
:100630004646EAE7204694E74046D1E7D0467BE7C6
:10064000023B614432E7304609E76444023842E73E
:10065000704700BFDFF834D0002103E00C4B5B583B
:10066000435004310B480C4B42189A42F6D30B4AC4
:1006700002E0002342F8043B094B9A42F9D303F00D
:10068000CFFA1EF0E9F801F03DF8704700000520B0
:100690004C3002900000002028010020280100209A
:1006A0001C490120FEE7704708B500F08FFDBDE84A
:1006B000084000F017BD00F08BBD406870474160F6
:1006C000704700004FF0E022D2F8FC3D43F0807309
:1006D000C2F8FC3D054B064AD3F8B01F0A43C3F8E5
:1006E000B02F1A6842F001021A607047001000E053
:1006F00055CEACC5511A01EB5301B1FBF3F0704775
:10070000014B5868704700BF001000E0704710B5FB
:1007100004460C211DF0EDF8204610BD036810B50D
:100720001B69044631B19847A26863689B1A184454
:10073000606010BD9847A060FBE7704730B58DB092
:100740000D46144600212C2201A81EF0C7F801A86E
:1007500003F0A8F99DF8040030B1BDF8063001207F
:100760002B60BDF8103023600DB030BD10B50446CD
:1007700004211DF0BEF8204610BD000008B54FF45E
:1007800088714FF4F07003F037F928B1034B202142
:10079000034A04481EF016F808BD00BFA4F90190F2
:1007A000C5F90190EFF90190032823D8DFE800F0A4
:1007B000020B131A104B102110481A68B2FA82F279
:1007C000520903F0EDBE0C4B40215A68B2FA82F296
:1007D00052090B48F5E7084B80219A68B2FA82F279
:1007E0005209F6E7044B40210648DA68B2FA82F271
:1007F0005209E6E7704700BF4401002000040240B0
:100800000008024000180240032823D8DFE800F067
:10081000020B131A104B102110481A68003A18BF27
:10082000012203F0BDBE0C4B40215A68003A18BFAC
:1008300001220B48F5E7084B80219A68003A18BF5F
:100840000122F6E7044B40210648DA68003A18BF57
:100850000122E6E7704700BF440100200004024087
:10086000000802400018024003280FD8DFE800F01B
:100870000206090B1021064803F097BE40210548E7
:10088000FAE78021FBE740210348F5E7704700BF06
:1008900000040240000802400018024008B5032886
:1008A00013D8DFE800F0020A0D0F1021084803F00A
:1008B00071FE431E5842584108BD40210548F6E7E5
:1008C0008021FBE740210448F1E70020F1E700BF69
:1008D00000040240000802400018024070B5084DB4
:1008E00000240126E0B2FFF7D9FF18B12B68012BD5
:1008F00018BF2E6001340435052CF3D170BD00BF44
:1009000044010020012380F8741080F8753070478E
:100910000020704741640039024B18BF0121197053
:10092000704700BF6F46012000207047836B0BB1FA
:100930000846184770474FF6FF70704740680368D5
:100940009B6918477047000038B50446FFF7C6FF9B
:10095000204600F073FD2368094A4FF04041D3F868
:1009600088502046074BA8470023074D84F84A309B
:100970002846FFF7A7FE0123256184F86C3038BDB7
:1009800000FC03C000F807C05401002008B503684C
:100990000446D3F880309847236820469B6F9847D9
:1009A00000F032F9236820461B6F98474FF48051BE
:1009B000064803F0FAFD0821054803F0F6FD00F0B3
:1009C00023F9236820461B6F9847F8E70020024070
:1009D0000028024010B5044608F08EFF2368204628
:1009E000D3F8AC30BDE81040184700F0E1BC00F08F
:1009F000E5BC000070B500F047FD10490023C1F8C8
:100A00008430BFF34F8FD1F8803043F6E074C3F3E6
:100A1000C900C3F34E335B0103EA0406024646EA0B
:100A20008275013AC1F87452F9D2203B13F1200FBC
:100A3000F2D1BFF34F8FBFF36F8F70BD00ED00E0B9
:100A400000F092BC00F02CBD00F034BD00F096BC6C
:100A500008F0B8B910B504467C211CF04AFF2046C6
:100A600010BD90F877301BB1406803681B681847C9
:100A70001846704790F834100D4B10B590F874403C
:100A80001A788C4209D03AB90A490B4A0888148866
:100A9000108001220C801A7010BD002AFCD0064A7A
:100AA0000449148808880C8010800022F3E700BFF6
:100AB00068460120664601206446012070B50D4657
:100AC000194635B9094B40F2D221094A09481DF0AF
:100AD00079FEC0E90F52003A074B18BF01221A7085
:100AE0000368BDE87040D3F88C3018474CFA019089
:100AF00084FA0190D2FA01906E46012008B5094BA4
:100B00001B888B4203D8084B1B88934205D9074B9F
:100B10009E21074A07481DF055FE074B1980074BD9
:100B20001A8008BD644601206646012017FB01902B
:100B30007AFB0190D2FA01906A4601206C460120AE
:100B4000014608B5034B186801B1012108F0EEFE1B
:100B5000012008BD70460120034B00225A609A60B4
:100B6000024A1A60704700BF5401002084F90190C6
:100B70000121002208B5084605F00CFD0A4B18605B
:100B800028B90A4B28210A4A0A481DF01BFE0022F8
:100B90000421012005F0C4FD074B186018B9074B6C
:100BA0002C21034AF0E708BD6401002098FC019065
:100BB000E1FC019010FD01906001002055FD0190C5
:100BC000024B4FF0FF31186805F03ABD6401002078
:100BD000014B186805F06EBD64010020024B002136
:100BE000186805F02DBD00BF64010020FFF7F0BFBD
:100BF0000023034803491A46006805F0D7BD00BF2B
:100C0000600100200400002013B50023074C01A957
:100C10001A46206805F00CFE4FF0FF33002201A9B0
:100C2000206805F005FE02B010BD00BF6001002085
:100C300003685B6C18470120704703689B6A18477C
:100C40000D4B82B01A6B42F400021A631A6B02F465
:100C500000020192019A1A6942F400021A611A69AB
:100C600022F400021A61054B054A1A614FF08062B6
:100C7000044B9A6002B0704700380240B83400203C
:100C8000C90C009000E100E040F2EF307047000036
:100C9000054B4FF080620360044BC3F88820BFF31C
:100CA0004F8FBFF36F8F7047ECFE019000E100E0C3
:100CB00010B504464FF45A61FFF7EAFF20461CF0D6
:100CC00018FE204610BD0000024B1B6858680368E0
:100CD0005B6918477046012070B504460A4B0C301A
:100CE00000262546602260602672667245F8203B29
:100CF000294608F06FFF04F55A63EE602435AB42D5
:100D0000FBD1204670BD00BFECFE019008B50B2959
:100D10000BD8DFE801F01206100A0A0A0A080808D0
:100D20000808012008BD0520FCE7054B6621054A9F
:100D300005481DF047FD0020F4E70220F2E700BF60
:100D400097FD0190B2FD0190FCFD019008B50A29C4
:100D500009D8DFE801F010060E08080808060606A4
:100D60000600012008BD054B8721054A05481DF0F6
:100D700029FD0020F6E70220F4E700BF97FD01906F
:100D80003FFE0190FCFD01902DE9F8434F7F0C469A
:100D900081463946FFF7BAFF94F81E80054648465B
:100DA0004146FFF7B3FF414606464846FFF7CEFFF0
:100DB000A18A628B424B521A1A649A61228B521A90
:100DC0001A61E28A586342EA014220695A64626801
:100DD000D863DA60216894F81CC080294FEA0C625D
:100DE00026D010D8202945EA020462D0402960D0DC
:100DF00004295ED02A43324B474542F40032DA617F
:100E00005BD0304A40E0B1F5807F07D0B1F5007F7C
:100E1000F0D142F4003242F0090203E042F4003221
:100E200042F00A02DA61E2681A625E6258612AE000
:100E3000A4682A43211D42F40032D962DA61227883
:100E40005E62586142B1012A21D01F4B40F211115C
:100E50001E4A1F481DF0B6FCDA690120618822F4A1
:100E60007F42013922F0100242EA0122DA61144B7A
:100E7000DA6942F02002DA61DA699206FCD41022C3
:100E80009A600028BDD0134A1A60BDE8F8836288D2
:100E9000BCF1FF00D96902F1FF3418BF012021F431
:100EA0007F4222F0100242EA042242F01002DA618C
:100EB000DDE744F40034DC61B7E740F20122E3E708
:100EC00000B00240010201008AFE0190A4FE0190E0
:100ED000FCFD01900102020070B50C46897FFFF70E
:100EE00035FF174BA68AE18A628B41EA06412569E4
:100EF000921B58635964DD631A642668E168082E02
:100F00000DD19A611A6158620E4A207F42EA00624E
:100F1000DA610D4A19625D61DD601A6070BD002200
:100F2000D86148091A610A0A00F4FC60C1F3C401DF
:100F300002F4784202430A439A63044AEDE700BF91
:100F400000B002400900010001020200010203009A
:100F5000034B1A68D207FCD423229A60704700BF63
:100F600000B0024030B5104C2568ED07FCD42325B5
:100F70000904FF2BA56041F001014FF002056563F4
:100F80006164E0630AD00949656241EA0363E36191
:100F9000074B22626061E060236030BDE561039B26
:100FA000A363044BF8E700BF00B002400900010052
:100FB0000100020001000300012070470C2070476F
:100FC0000C2303FB0100083070470C2303FB0100D6
:100FD000083070470120704742F22C20704742F2DF
:100FE0002C2303FB01000830704742F22C2303FB43
:100FF000010008307047012070471020704700EB57
:1010000001100830704700EB0110083070470846A7
:1010100001F0F6BE034B10B50446036007F029FC4F
:10102000204610BDA4FF019010B50446FFF7F2FF63
:10103000142120461CF05DFC204610BD034B10B56A
:101040000446036007F015FC204610BD70FF0190B8
:1010500010B50446FFF7F2FF42F2342120461CF09F
:1010600048FC204610BD0000034B10B50446036049
:1010700007F0FFFB204610BD3CFF019010B5044671
:10108000FFF7F2FF182120461CF033FC204610BD6C
:10109000094B10B50446036000F509502030FFF7F6
:1010A000B9FF04F12C00FFF7C9FF04F11400FFF7AA
:1010B000DBFF204610BD00BFD8FF019008B50248F5
:1010C000FFF7E6FF08BD00BF6C01002010B5044625
:1010D000FFF7DEFF42F2D43120461CF00AFC204626
:1010E00010BD00002DE9F34101F01EF80024054673
:1010F00001F01EF82346014622462846009410F0CF
:101100008BF8264B264A2046264D1A6002F01CF822
:1011100025480FF0E9FF2B78BFF35B8FDB0736D450
:1011200028461CF0E8FB90B3204C214F214B04F1E2
:10113000140007F1180604F12C0823606060C4F85D
:101140000880E760266107F095FB1B4B4046636112
:1011500007F090FB194B3846E36207F08BFB04F570
:101160000053174A03F51D70C3F8602202F0A8F877
:10117000224607F11401304602F098F8304601F09B
:101180003FFE10481DF03CFB28461CF0C0FB0E48FB
:1011900002B0BDE8F041FFF7D7BB00BFD446012045
:1011A0006033002068010020080000206C0100204E
:1011B000CC230020D8FF01903CFF019070FF0190EC
:1011C000A4FF0190BD100090E432002070470000A1
:1011D0000148FFF7DBBB00BFE432002070B5234EAF
:1011E000234B244C3046244D2360FFF775FD2846E1
:1011F00013F01EF9214B00224FF4807120481A860B
:101200001A6683F86C201A67DC60C3E912121D4964
:10121000C3E919124FF080715967012183F87810E2
:1012200019490B604FF4F0710180184801804FF4A8
:1012300088711748C3E90422C3E90622C3E90822DA
:10124000C3E90A22C3E90E22C3E91022C3E914222A
:10125000C3E91622C3E9016501800E4883F83420F2
:1012600001800D490A700D4A1A6070BD44250020A6
:101270003CFA01904025002064330020E432002035
:101280006446012001000001704601206A460120E9
:10129000664601206C46012068460120C8FB01908B
:1012A0000148FFF7F5BC00BF44250020002070472F
:1012B00081807047C18070470181704741817047CC
:1012C0007047704770477047704710B4C488036810
:1012D000121B84885B6D091B12B25DF8044B09B2C6
:1012E00018474FF6FF7383814FF0FF330362136893
:1012F000C3611060704790F825201AB190F824203F
:1013000002B118607047002070478B8883800120ED
:101310007047704780F82610704790F82600704795
:10132000002210B5B1F90840B1F90A1002804280DC
:101330008480C18010BD0022028042808280C280F1
:1013400070470171704780ED020A70470173704762
:101350004173704701207047803070477430704788
:101360006C30704770470000034B902283F85A237B
:1013700083F85823704700BF00E100E0094A0A499A
:10138000D3680A48C3F30A03013B9BB20B8011697F
:10139000C1F30A01013901801364536B43F0010367
:1013A0005363704700680140E4330020E2330020BB
:1013B000014BD3F8AC00704700680140024B01229A
:1013C000C3F8AC105A62704700680140124A536972
:1013D000DB0370B51ED50023C2F88430BFF34F8FF6
:1013E000D2F8803043F6E074C3F3C900C3F34E3340
:1013F0005B0103EA0406014646EA81750139C2F839
:101400007452F9D2203B13F1200FF2D1BFF34F8F6A
:10141000BFF36F8F70BD00BF00ED00E070477047F5
:1014200010B504462C211CF064FA204610BD10B5FE
:101430000446A4211CF05DFA204610BD70B5044698
:1014400007F015FD23685D6E0DF026F90146204674
:10145000A84723682046054AD3F888504FF04041FA
:101460000023AC46BDE87040604700BF00FC03C0ED
:1014700007F0E4BC90F84B3013B1024B01221A7014
:1014800007F0E8BCE033002007F0A2BC07F0FDBD88
:1014900090F8252012B103685B6918477047000077
:1014A000034B4FF080629A604FF080729A607047F1
:1014B00000E100E0084B4FF08062C3F88820BFF3E2
:1014C0004F8FBFF36F8F4FF08072C3F88820BFF348
:1014D0004F8FBFF36F8F704700E100E0002370B5BE
:1014E000124E05468380124B0360336893F87620D2
:1014F0000AB1D86C00B998680368DB6A984733680A
:10150000B0FA80F4D86C640930B10368DB6A98479C
:10151000002808BF44F001042CB9064B2C21064AD0
:1015200006481DF04FF9284670BD00BF70460120E7
:10153000E8000290E4FF0190420002907B000290DC
:1015400070B5214E3578BFF35B8F15F0010538D1AA
:1015500030461CF0D0F9002833D01C4C1C4B04F151
:101560001C00E58123602561A5820EF094F904F149
:10157000400009F043FF174B20462364164B40F808
:101580006C3BFFF7ABFF154B1548E3662433A567AB
:1015900063676423C4F88450C4F89050C4E92235CA
:1015A0000023C4F89430C4F89830C4F89C30C4F8D0
:1015B000A0300C4BC4F880301DF022F930461CF0EE
:1015C000A6F9024870BD00BFDC330020E8330020DC
:1015D000D02502900801029080010290842502909B
:1015E000651300906425029010B5144C236823B352
:1015F000134B144A1B6C11888B4213D1124B198860
:1016000003F09EFC226892F86630013382F866305F
:10161000FFF7EEFA206808F06FF90020BDE81040EF
:10162000FFF7C2B803F08CFC206803681B6A984778
:101630000020BDE81040FFF7E7B810BD704601205C
:1016400000680140E4330020E2330020014900201B
:1016500006F074BC410B009008B5642004F080FFD4
:10166000FBE7000010B594B01022002102240AA864
:101670001DF034F91422002103A81DF02FF91F4B8F
:10168000012119201A6C42F080521A641B6C03F07D
:1016900080530193019B1A4B1A6842F440421A602E
:1016A0001B6803F440430293029B4FF48033CDE95F
:1016B00008134FF48003CDE90E434FF4D873CDE9FE
:1016C000100308A8CDE9124403F090FC00B1FEE736
:1016D00003F054FC00B1FEE70F234FF4A052059035
:1016E000072103A8CDE903344FF48053CDE9062345
:1016F00003F068FE00B1FEE714B010BD00380240F0
:101700000070004080B598B0102200214FF00058C2
:101710000BA801241DF0E2F81C2602F04DFBBF4B84
:101720000BA8ADF82C40032540F20117CDE90C833E
:10173000BB4B0E9302F05EFB4FF040438DF82D4003
:1017400000240BA80C938DF834608DF83740ADF869
:101750003A4002F04FFB02230BA88DF837508DF86A
:101760002D301623ADF83A708DF8343002F042FB7C
:101770004FF010430BA88DF8346004260C938DF8BD
:101780002D508DF83740ADF83A4002F033FB172367
:101790000BA88DF82D608DF834308DF83750ADF8EA
:1017A0003A7002F027FB05230BA88DF838408DF81E
:1017B0002D3013238DF8343002F01CFB304602F03C
:1017C00009FBBFF34F8FBFF36F8F964AC2F85042A9
:1017D000BFF34F8FBFF36F8F536943F400335361EF
:1017E000BFF34F8FBFF36F8FC2F88440BFF34F8FAB
:1017F000D2F8803043F6E074C3F3C900C3F34E332C
:101800005B0103EA0406014646EA81750139C2F824
:101810006052F9D2203B13F1200FF2D1BFF34F8F6A
:10182000536943F480335361BFF34F8FBFF36F8F1E
:1018300002F026FA0024FFF715FF142200210BA85E
:101840001DF04CF8784B102178481A6B01274FF0A7
:101850000308102542F0100240261A631A6B02F0AA
:1018600010020092009A1A6B42F002021A631A6B7D
:1018700002F002020192019A1A6B42F040021A63CE
:101880001A6B02F040020292029A1A6B42F4007242
:101890001A631A6B02F400720392039A1A6B42F0F5
:1018A00008021A631A6B02F008020492049A1A6B77
:1018B00042F480621A631A6B02F480620592059A00
:1018C0001A6B42F020021A631A6B02F02002069291
:1018D000069A1A6B42F480721A631A6B02F48072D1
:1018E0000792079A1A6B42F001021A631A6B02F010
:1018F00001020892089A1A6B42F080021A631A6B6E
:1019000002F080020992099A1A6B42F004021A63EB
:1019100000221B6B03F004030A930A9B02F040FEB3
:1019200000220821424802F03BFE00224FF4805181
:10193000404802F035FE0022C0213F4802F030FE50
:10194000002240213D4802F02BFE0BA93748CDE98B
:101950000B57CDE90D4802F097FC08230BA934483A
:10196000CDE90B37CDE90D4402F08EFC4FF48053E6
:101970000BA93048CDE90B37CDE90D4402F084FCCA
:10198000C0230BA92C48CDE90B37CDE90D4802F057
:101990007BFC2A480BA9CDE90B67CDE90D4802F085
:1019A00073FC2748274B848003600762C0E9054425
:1019B00002F04CFA00B1FEE7234C244BC4E90200CC
:1019C000C4E90030C4E90A00C4E90C00204602F072
:1019D0005BFB00B1FEE73946204602F00DFC0346F2
:1019E00000B1FEE71A480BA91A4A83604661836278
:1019F0001195C0E900230422C0E903258022C0E933
:101A00000833C0E90623CDE90B55CDE90D55CDE9E5
:101A10000F5504F03DF8F8B1FEE700BF12000003D7
:101A20000100010100ED00E0003802400004024026
:101A30000028024000200240000802400018024036
:101A40009434002000300240B834002000B002403E
:101A5000A0350020400100A001F0B4FF01F066FFB6
:101A6000054600B1FEE7014634220BA8374C1CF0B6
:101A700035FF374B2826352740F2152C40F2352EFE
:101A80002046A586256184F83650C4E9003509232F
:101A9000C4E905630B23C4E9077340F21B13C4E9CF
:101AA00009C340F21D13C4E90255C4E90BE303F076
:101AB0004FF900B1FEE74FF4887302214FF4F07242
:101AC0004FF480650B90ADF85C008DF85E001693C6
:101AD000CDE90E31FF21CDE910100521CDE90C2013
:101AE000CDE91402CDE9125102460BA9204603F0BC
:101AF000FAF9034600B1FEE716484FF4E132164901
:101B000003614362C0E900120C22C0E90233C0E95C
:101B10000523C0E9073304F0C8FB00B1FEE7FEF778
:101B2000C3FDFEF7C0FD04F08BFC0C4A00210C48FD
:101B300004F0C0FC0B4B0C4A002118600B4804F069
:101B4000B9FC0B4B186004F095FCFEE7F83400205C
:101B500000680140D43500200010014008020290C6
:101B60005916009090340020E4010290B7060090CE
:101B70008C3400200268034B9A4201D102F092B8E3
:101B8000704700BF00100040FEE700000D4B82B020
:101B90000F216FF001001A6C42F080521A641A6C27
:101BA00002F080520092009A5A6C42F480425A64C9
:101BB00000225B6C03F480430193019B02B002F0AE
:101BC000A7B800BF00380240026882B0084B9A42B2
:101BD0000BD1D3F8302803F5006342F480521A6326
:101BE0001B6B03F480530193019B02B0704700BF4D
:101BF000003002400E4B07B502689A4215D1A3F59A
:101C0000F04305215A201A6B42F400021A630022A5
:101C10001B6B03F400030193019B02F079F85A2037
:101C200003B05DF804EB02F0A5B803B05DF804FB67
:101C300000B0024070B5ACB004461422002106A8E2
:101C40001CF04CFE842200210BA81CF047FE2268E9
:101C5000464B9A4240F08880082305200B9364236A
:101C600010930223CDE9113001230BA8159303F043
:101C700087FC08B1FFF788FF3D4B022400250E26A4
:101C80005A6C06A93B4842F080625A645A6C02F0D2
:101C900080620092009A1A6B42F010021A631A6B6B
:101CA00002F010020192019A1A6B42F400721A6358
:101CB0001A6B02F400720292029A1A6B42F480626A
:101CC0001A631A6B02F480620392039A1A6B42F051
:101CD00040021A631A6B02F040020492049A1A6BD3
:101CE00042F480721A631B6B03F480730593059BA7
:101CF0001023CDE90634CDE908540A9602F0C4FA5F
:101D00004EF6FF7306A91C480A96CDE90634CDE9C4
:101D1000085402F0B9FAF72306A918480A96CDE943
:101D20000634CDE9085402F0AFFA4FF4805306A907
:101D30001348CDE906340923CDE908540A9302F08B
:101D4000A3FA4FF4464306A90E480A96CDE9063495
:101D5000CDE9085402F098FA58202A46052101F0EE
:101D6000D7FF582002F006F82CB070BD0068014083
:101D700000380240001002400024024000280240C7
:101D80000018024000200240F0B5ABB00446142217
:101D9000002104A81CF0A2FD8422002109A81CF047
:101DA0009DFD2268204B9A423CD1402309A809930B
:101DB00003F0E6FB08B1FFF7E7FE1C4B0227002605
:101DC00003255A6C072404A9194842F010025A64EA
:101DD0005A6C02F010020192019A1A6B42F0020250
:101DE0001A631A6B02F002020292029A1A6B42F014
:101DF00001021A631B6B089403F001030393039B16
:101E00008023CDE90665CDE9043702F03DFA4FF4B1
:101E1000007304A907480894CDE90437CDE90665A5
:101E200002F032FA2BB0F0BD001001400038024041
:101E30000004024000000240F0B5002387B0039385
:101E40002A4B1E68002E4ED10122022703250C24A6
:101E50001A6001A9264B27489A6B42F001029A6347
:101E60009B6B03F001030093009B4FF68373CDE956
:101E70000454CDE9013702F007FA48F2331301A9FF
:101E80001D480594CDE90137CDE9036502F0FCF961
:101E90004CF2037301A919480594CDE90137CDE946
:101EA000036502F0F1F94FF63F0301A914480594C8
:101EB000CDE90137CDE9036502F0E6F9242301A954
:101EC00010480594CDE90137CDE9036502F0DCF94E
:101ED00004230D480DEB03010594CDE90137CDE94D
:101EE000036502F0D1F907B0F0BD00BF60360020F5
:101EF000003802400010024000180240000C02406E
:101F000000140240001C02400008024008B5144BB7
:101F10001A6822BB01224FF6837112481A60124AD6
:101F2000936B23F00103936302F092FA48F23311AA
:101F30000E4802F08DFA4CF203710D4802F088FA57
:101F40004FF63F010B4802F083FA24210A4802F0C1
:101F50007FFA04210948BDE8084002F079BA08BDBB
:101F60005C36002000100240003802400018024099
:101F7000000C024000140240001C02400008024015
:101F8000214B1A6C42F0100270B51A6488B01B6CB9
:101F9000054601A903A803F010030293029B03F076
:101FA000D1FA069B4BBB03F0ADFA184E184B3360C9
:101FB00040F2E733F360174BB0FBF3F3013B3046DD
:101FC000736000233361B360B36103F01FFF044605
:101FD00080B9304603F0C2FD044658B9362001F0FE
:101FE000C9FE0F2D0DD822462946362001F090FE5D
:101FF000094B1D60204608B070BD03F083FA400015
:10200000D3E70124F6E700BF003802406436002021
:102010000010004040420F00400000207047FEE7E3
:10202000FEE7FEE7FEE77047014803F0D9BD00BFB9
:1020300064360020014802F0F9BE00BFF8340020E9
:10204000014802F04FB800BFB834002001207047AB
:1020500008B51CF0E9FB162303604FF0FF3008BD04
:1020600008B51CF0E1FB16230360FEE770B50D46D2
:1020700014460E46731B9C4201DC204670BDAFF334
:10208000008006F8010BF5E770B50D4614460E46C4
:10209000731B9C4201DC204670BD16F8010BAFF3A8
:1020A0000080F5E74FF0FF3070474FF400530020F9
:1020B0004B60704701207047002070470A4A116842
:1020C00008B5034609B90949116010686946034417
:1020D0008B4206D91CF0A8FB0C2303604FF0FF30A5
:1020E00008BD1360FCE700BFB03600202049012086
:1020F000704710B5044604211BF0FBFB204610BDC1
:10210000012908B506D0022908D059B901F068F8AC
:10211000006808BD01F064F84068FAE701F060F873
:102120008068F6E70020F4E700487047400202901C
:102130000120704713B5002451B1036801AA01942E
:102140008DF803409C680DF10303A04702B010BD59
:102150000846FBE7C0897047008A7047C08870470F
:1021600080887047807A00F07F007047807AC009CD
:10217000704770477047704770477047704730B579
:1021800085B00368044601816D460146D3F884306A
:102190003C342846984795E8070084E8070005B0D6
:1021A00030BD30B585B00368044641816D460146B7
:1021B000D3F884303C342846984795E8070084E8F3
:1021C000070005B030BD0022028042808280C280BC
:1021D000704780F836107047036870B504461B6B73
:1021E000154698472368204629465B6EBDE8704037
:1021F00018470020704700224FF0FF318260C0E98D
:1022000000217047806C70477047704710B50446D6
:1022100008211BF06EFB204610BD10B504464C2172
:102220001BF067FB204610BD034B10B5044603604E
:102230000AF06EFD204610BD68040290074B07B5FA
:10224000036001900AF064FD019842F22C211BF01A
:1022500050FB019803B05DF804FB00BF68040290D6
:1022600008B5FFF715F908BD036870B55E6B044645
:10227000114B8DB21B682BB9104B6C21104A1148C1
:102280001CF0A0FA1049828D0988914203D80F4BA7
:102290006D210B4AF3E713F812200D4B1B6853F81E
:1022A000220003681B6B9847281A334601B2204668
:1022B000BDE87040184700BFC84601205402029094
:1022C00096020290D1020290CC460120180302909F
:1022D000D0460120036870B504461B6B154698472D
:1022E0002368204629465B6BBDE87040184770B5EF
:1022F00004461D46BDF91060FFF7ECFF2368294630
:1023000020469B6B9847236831462046DB6BBDE82F
:10231000704018470022C0E90122C0E90322C0E949
:102320000522C0E907224FF480728284014A0260CC
:10233000704700BF6003029010B5044626220021BA
:102340001CF0CCFA2046FFF7E5FF044B2046236043
:10235000FF2384F826300023A36210BD9826029044
:1023600010B50446262200211CF0B8FA2046FFF7DB
:10237000D1FF0A4B4FF47F022046A3624FF6FF7352
:10238000A3850023C4E90C32054A238722604FF05D
:10239000FF32E363A364C4E9102310BDC8030290B5
:1023A000D803029010B50446262200211CF096FAAC
:1023B0002046FFF7AFFF084B204623604FF6FF7320
:1023C000E3844FF07E53A362E362002323636363DD
:1023D000A363E363236410BD002702902DE9F04F4F
:1023E000834600242DED0E8B8DB0DA460DF07CFD7A
:1023F000ED4BCBF83C400BF5BE764AF8403B5046DF
:10240000FFF79AFF0BF16C030BF5A8650BF28459EB
:1024100018460EEE103AFFF78FFF0BF198030BF5FD
:10242000B9680BF10407184608EE103AFFF798FF59
:102430000BF1E403184608EE903AFFF791FF0BF515
:102440009873184609EE103AFFF78AFF3046FFF7F7
:1024500087FF0BF5E473184609EE903AFFF780FF0B
:102460000BF5057318460AEE103AFFF779FF0BF5E6
:10247000187318460AEE903AFFF772FF0BF52B73AC
:1024800018460BEE103AFFF76BFF0BF53E7318463C
:102490000BEE903AFFF764FF0BF5517318460CEE04
:1024A000103AFFF75DFF0BF5647318460CEE903A97
:1024B000FFF756FF0BF5777318460DEE103AFFF74E
:1024C0004FFF0BF5856318460DEE903AFFF748FF76
:1024D0000BF2744318460393FFF764FF0BF5976301
:1024E00018460493FFF75EFF0BF2FC431846059372
:1024F000FFF758FF2846FFF755FF4846FFF752FF02
:102500004046FFF74FFF0BF20C604FF4E1510AF029
:10251000F5FB4FF4887322462146504600934FF452
:10252000F073FFF7E4FE4FF07F4351463846CBF897
:1025300068300DF1180A06F0B1F94FF4887322469D
:1025400021461EEE100A00934FF4F073FFF7CFFE02
:102550004FF0FF331EEE101A3846CBF8943006F0D9
:102560009DF91E235F2218EE100A00934FF4D271DA
:102570003223FFF7BCFE4FF07F4318EE101A50468F
:10258000CBF8C830DBF89830ABF8CC40D3F88430C7
:1025900098470BF1D4039AE8070083E80700834BC0
:1025A0004FF002020AA918EE100A0A93ADF82C2087
:1025B00009F04CF818EE101A384606F06FF90F23A0
:1025C00018EE900A502200934FF4B9716423FFF77C
:1025D0008EFE4FF00202DBF8E4304FF07F415046B0
:1025E000ABF81821CBF8141118EE901AD3F88430F8
:1025F00098470BF590739AE8070083E807004FF0BF
:1026000004016A4B18EE900AADF82C100AA90A933F
:1026100009F01CF818EE901A384606F03FF91E2112
:10262000232219EE100A009150234FF4C371FFF7D3
:102630005EFEDBF830314FF07F415046ABF864412D
:10264000CBF8601119EE101AD3F8843098470BF5C7
:10265000B6739AE8070083E807004FF00301534B75
:1026600019EE100AADF82C100AA90A9308F0EEFF33
:1026700019EE101A384606F011F9122330461422CA
:1026800000934FF4B9716423FFF731FE4FF002025B
:10269000DBF87C314FF07F415046ABF8B021CBF8EE
:1026A000AC113146D3F8843098470BF5DC739AE8C7
:1026B000070083E807004FF005013C4B3046ADF8BA
:1026C0002C100AA90A9308F0C1FF3146384606F0DB
:1026D000E5F8D72219EE900A0A21FFF7FBFDDBF897
:1026E000C8314FF07F415046ABF8FC41CBF8F811B0
:1026F00019EE901AD3F8843098470BF501732B4EDE
:102700009AE8070083E8070006230AA919EE900A51
:102710000A96ADF82C3008F099FF19EE901A384659
:1027200006F0BCF81AEE100AC8220A21FFF7D2FD03
:102730004FF07F434FF002021AEE101ACBF84432EA
:102740005046DBF81432ABF84822D3F8843098476F
:102750000BF514739AE8070083E8070009230AA918
:102760001AEE100A0A96ADF82C3008F06FFF1AEE38
:10277000101A384606F092F89B221AEE900A0A21A7
:10278000FFF7A8FD4FF07F431AEE901A5046CBF8A2
:102790009032DBF86032ABF89442D3F8843098473B
:1027A0000BF5277304E000BF68040290C803029091
:1027B0009AE807000A960A2683E807000AA91AEE93
:1027C000900AADF82C6008F041FF1AEE901A3846D6
:1027D00006F064F831461BEE100A8C22FFF77AFDF2
:1027E0004FF00202DBF8AC324FF07F415046ABF8BD
:1027F000E022CBF8DC121BEE101AD3F88430984795
:102800000BF53A739AE8070083E80700C94B0AA959
:102810001BEE100A0A930823ADF82C3008F016FFBF
:102820001BEE101A384606F039F85F2231461BEECF
:10283000900AFFF74FFDDBF8F8324FF07F4150462A
:10284000ABF82C43CBF828131BEE901AD3F8843046
:1028500098470BF54D739AE8070083E80700B54BDE
:102860000AA91BEE900A0A930B23ADF82C3008F04E
:10287000EDFE1BEE901A384606F010F831461CEEBD
:10288000100A5022FFF726FD4FF00202DBF8443316
:102890004FF07F415046ABF87823CBF874131CEE11
:1028A000101AD3F8843098470BF560739AE8070044
:1028B00083E807004FF007019E4B1CEE100AADF8AD
:1028C0002C100AA90A9308F0C1FE1CEE101A384613
:1028D00005F0E4FF232231461CEE900AFFF7FAFCD4
:1028E000DBF890334FF07F415046ABF8C443CBF850
:1028F000C0131CEE901AD3F8843098470BF573730D
:102900009AE8070083E807004FF00101894B1CEEAD
:10291000900AADF82C100AA90A9308F097FE1CEE55
:10292000901A384605F0BAFF31461DEE100A1422FF
:10293000FFF7D0FC4FF00202DBF8DC334FF07F41B1
:102940005046ABF81024CBF80C141DEE101AD3F837
:10295000843098470BF58363764E9AE8070083E846
:1029600007000C230AA91DEE100A0A96ADF82C30B8
:1029700008F06CFE1DEE101A384605F08FFF962306
:1029800019221DEE900A0093CA214D23DFF8DCA125
:10299000FFF7ADFC4FF07F430AA91DEE900ACBF87C
:1029A00058344FF0FF33ABF85C44CBF86834CBF8C5
:1029B0006444CBF86C440A960026ADF82C4008F02D
:1029C00045FE1DEE901A384605F068FF2146039833
:1029D00008F06AFF1F230398BF220093A02135232C
:1029E000554CFFF784FC039B039A3846C3F828A094
:1029F000DC621146DE631E64504B16635363504B1A
:102A0000936305F04BFF0498012108F04DFF2A2342
:102A10000498BF22009340F211112F23FFF767FCA7
:102A2000049B049A38469C623724C3F82CA01146B4
:102A3000DE631E64434B16635363434B936305F09D
:102A40002DFF0598042108F02FFF28230598072261
:102A50000093A0231946FFF74AFC059A3B4B3846E2
:102A60001146D66393623A4B1664D362394B1663B0
:102A70005363394B936305F011FF2846022108F098
:102A800013FF9522284634234FF4BD710094FFF7BD
:102A90002EFC324B29463846AB62314BEE63EB627B
:102AA000304B2E646B63AB632E6305F0F7FE2E4D47
:102AB0004846052108F0F8FE23239522484640F2B7
:102AC000B9110094FFF713FC49463846C9F828505D
:102AD000C9F82C50C9F83C60C9F84060C9F83460A6
:102AE000C9F83860C9F8306005F0D8FE40460321C7
:102AF00008F0DAFE2323D422404640F2B9110094B4
:102B0000FFF7F5FB38464146C8F828A0C8F82C5016
:102B1000C8F83C60C8F84060C8F83460C8F838604D
:102B2000C8F8306005F0BAFE58460DB0BDEC0E8B0B
:102B3000BDE8F08FC8030290295C8F3D0000B841CA
:102B4000000048410000D8410000F041C3F5A83E14
:102B500085EBD13E0000A0420000A041CDCCCC3D91
:102B6000AE47E13D0000C841EC51B83D0AD7A33D56
:102B70007047704700F598730868496803C3704749
:102B8000704770474160704770470000064BC0F8BF
:102B90004801C0F84C310023C0F8503100F5A27351
:102BA000C0F84031704700BF4D2C009001230372E4
:102BB00070477047704710B441680346C2689B680D
:102BC000541001EB6200D20748BF0A595DF8044B6C
:102BD00048BFD358184743682BB183682BB9C068E6
:102BE00000F001007047184670470120704710B58B
:102BF00004460C211AF07DFE204610BD10B5044697
:102C000010211AF076FE204610BD10B504464FF490
:102C1000AE711AF06EFE204610BD08B50BF03CFDFB
:102C2000BDE808400CF082B910B50446D0F8400168
:102C300058B10368DB68984738B1D4F8400103689D
:102C40009B6898470023C4F8403110BD2DE9F14F2F
:102C5000D0E9555A0746A86803681B6A984742F2AC
:102C60002B23984205D8464BA321464A46481BF0E1
:102C7000A9FD686803681B6A98470F2803D8434B6F
:102C8000A421404AF2E7E86803681B6A98470B28CA
:102C900003D83F4BA5213B4AE8E7DFF8FC900BF057
:102CA000FBFC04300BF01DFDD9F8000010B10368E7
:102CB000DB689847D9F8000010B103681B68984793
:102CC000DFF8D880D8F8000010B103685B69984736
:102CD000D7F83C0110B103685B689847D8F800004A
:102CE00010B103681B689847D7F83C0110B103681E
:102CF0009B689847E86800214FF0000B03685B6A07
:102D00009847244B0446C0F804B00360594680F845
:102D100008B0A86803685B6A9847064600F0A6FA00
:102D20006868594603685B6A98470546314600F073
:102D300077FAC9F80040C7F83C51C8F80060E5B11F
:102D40002B1DCAF8003030463368C5F808A0DB6890
:102D5000F56398472B6828461B68984721463046FC
:102D60000DF06EFA236820461B69984723682046B9
:102D70005B6901B0BDE8F04F18472B46E1E700BFA3
:102D80009404029022050290300602907706029089
:102D90001A0702902C080290B8460120B446012080
:102DA000F8B5044617460E460BF03CFD104B0025C7
:102DB0001C6029460F4BC4E955760F4E23603068DE
:102DC0000E4BC4E95355C4E951350368C4E94F5566
:102DD0009B689847284600F0B7F9336893F8762047
:102DE0000AB1D86C00B9986813F009F92046F8BD0B
:102DF000C4460120E007029070460120C8070290F7
:102E0000064BC0F84801C0F84C310023C0F85031DF
:102E100000F5A273C0F84031704700BF4D2C009000
:102E2000406A7047806A704770478B88C069DB0AC8
:102E30000A6850F823001044704710B5C2B1137BE4
:102E4000B3B1547BD27A240204F4E0641443026ADE
:102E500098B202EB840213888B4202D192F90200ED
:102E600010BD05D80138043280B20028F3D1F7E74D
:102E70000020F5E710B504462C211AF03AFD204653
:102E800010BD000030B58BB00446BDF86050089509
:102E9000BDF85C5007959DF8505006959DF84C5034
:102EA00005959DF8485004959DF8445003959DF86C
:102EB000405002959DF83C500195BDF83850009562
:102EC0000CF018FE064B20462360159BE361169B11
:102ED0002362199B63621A9BA3620BB030BD00BFD3
:102EE0005008029000487047A808029006207047DA
:102EF0007047000030B5164D8FB02C78BFF35B8F54
:102F000014F0010421D128461AF0F5FCE8B13F2362
:102F1000012210490993104B10480893104B0A9452
:102F20000594CDE906430423CDE90332962302221A
:102F30000093CDE90B44CDE90144FFF7A3FF094815
:102F40001BF05EFC28461AF0E2FC04480FB030BDCE
:102F5000B4360020981F10900C300290B836002034
:102F600018300290F12E00907047000030B5174DD8
:102F70008FB02C78BFF35B8F14F0010422D1284668
:102F80001AF0B9FCF0B13F23152211490993114BF6
:102F900011480893114B0A94079301230194049359
:102FA000CDE905330423CDE902430F23CDE90B44DA
:102FB00000931223FFF766FF09481BF021FC284607
:102FC0001AF0A5FC04480FB030BD00BFE436002065
:102FD000B41F109010300290E83600201C30029090
:102FE000692F00907047000030B5164D8FB02C78D7
:102FF000BFF35B8F14F0010421D128461AF07BFC4B
:10300000E8B13F23012210490993104B104808935F
:10301000104B0A940594CDE906430423CDE903320D
:103020001E2308220093CDE90B44CDE90144FFF7AC
:1030300029FF09481BF0E4FB28461AF068FC044805
:103040000FB030BD14370020DC20109014300290F7
:103050001837002020300290E52F009000207047A4
:10306000002070470EB403B503AB002153F8042BC6
:1030700001930CF02BFA02B05DF804EB03B070473B
:103080000CB407B504AB53F8042B01930CF01EFAF3
:1030900003B05DF804EB02B070470000436C10B55C
:1030A000044673B3038F2BB9184BC521184A19482E
:1030B0001BF088FBC38E00EB43035B8C0BB30DF05E
:1030C000D7FD238F012B03D8134BCB21134AEEE7F7
:1030D000E28E40F63F10531C9BB2092B194688BF65
:1030E000A3F10A0104EB4101498C814209D10A2B69
:1030F00004EB420228BF0023508C04EB43035884A6
:1031000051842046BDE810400DF0B4BC9C210290D3
:10311000A5210290502202909A220290A8220290A9
:103120000DF071BC10B586B002AC84E806001A46FA
:103130000AAB214605930193099B0093089B0AF073
:1031400069FE06B010BD000038B518BB124B13481D
:103150001B681349B3B11A689C681A441C44026086
:103160005A681A440A600F4B00221A8000F038F89F
:10317000054600F033F80C4B1C600C4B1D600C4BEB
:10318000188007E00B4B03600B4B0B600B4B1C686C
:10319000002CE8D138BD00BF44370020483700205C
:1031A0004C37002050370020C8460120D04601206F
:1031B000CC460120802110904C2110906422109068
:1031C000044B1B6853F82100034B1B6803EB4000C2
:1031D000704700BF4C370020483700200D20704753
:1031E000004870475437002010B5054CFFF7FCFE2F
:1031F0002060FFF77FFE6060FFF7B8FEA06010BDA3
:1032000054370020704704387047704710B50446A3
:1032100010211AF06EFB204610BDA0F10400F5E766
:103220000022C1608260044A10B502F10804203215
:103230000460426010BD00BF7C2302907047000014
:10324000034B10B504460360FEF7EEFF204610BDA9
:10325000AC23029010B50446FFF7F2FF42F22C2196
:1032600020461AF046FB204610BD000010B504466B
:10327000FFF7B4F8014B2046236010BDAC23029049
:10328000FEF7C2BF704710B504464FF4AE711AF096
:1032900030FB204610BD10B50446D0F8580100F0B0
:1032A00012F82046BDE810400BF078BA10B504467D
:1032B000FFF776FD014B2046236010BDE02302900E
:1032C000002202607047704770470020704700007E
:1032D00010B5054CC82000F021FA23781BB900F086
:1032E000F3F90123237010BD6237002013B50024C9
:1032F0000221C0B28DF8074000F0FAF98DF80700FE
:103300009DF8073003F00F038DF807309DF8073064
:10331000052B01D98DF807409DF80720034B9DF838
:1033200007005A7000229A7002B010BD6237002068
:103330002DE9F74F2F4D164600230F46AC786A78DB
:103340008DF80730A2424DD9092C4ED804EB440326
:103350005B00DBB2191D03F1030B03F1060A053311
:10336000C9B25FFA8BFB5FFA8AFA5FFA83F8C4B2DC
:10337000DFF88490204600F0BBF98DF807009DF837
:10338000073059462046A9F8003000F0B1F98DF811
:10339000070051469DF807302046B9F800201B026F
:1033A00003F4706313433B80A9F8003000F0A0F9E8
:1033B0008DF8070041469DF807302046A9F80030F7
:1033C00000F096F98DF807009DF80730B9F8002055
:1033D0001B0203F470631343A9F800303380AB7809
:1033E0000133AB7003B0BDE8F08F98469A469B4618
:1033F0001946BCE762370020603700200122A42173
:10340000C0B200F063B90022A421C0B200F05EB9DE
:10341000FFF7F9BF7047000037B500230F4C054692
:103420008DF8073023781BB900F04EF90123237083
:103430000324EDB2013CA821284600F059F914F00C
:10344000FF048DF807009DF80730DBB203D19DF82B
:10345000070003B030BD512BECD1F8E762370020F4
:10346000002313B50C46C0B201218DF8073000F0DF
:103470003FF98DF807009DF80730236002B010BDBA
:103480002DE9F3411D461D4B002416465B788DF84F
:1034900007408B422CD909292DD801EB41014C0062
:1034A000E4B2E11CE71D0834C9B2FFB2E4B25FFA2E
:1034B00080F8404600F01CF98DF807009DF80730B1
:1034C0003946089A40469B09136000F011F98DF8BF
:1034D00007009DF8073021464046336000F008F9A8
:1034E0008DF807009DF80720120902F004022A60F7
:1034F00002B0BDE8F08127462146D8E762370020B8
:1035000070B58AB0054601F099FB002840F096801E
:103510004B4B00264B4C9D426E610CBF4A4A4B4AB6
:103520009D422A604A4AC5E901264FF00102C5E9D9
:103530000766C5E90326236B43D143F0800380204F
:103540004FF0020C05A92363236B079603F0800359
:103550000193019B1223CDE9050304233D48CDE9E6
:1035600008C300F091FE4FF4807305A93948059314
:1035700000F08AFE236C32460F21482043F40003FA
:103580002364236C03F400030293029B236A43F435
:1035900000032362236A23F40003236200F0B8FBD4
:1035A000482000F0E7FB492032460F2100F0B0FB35
:1035B000492000F0DFFB28460AB0BDE8704001F06A
:1035C00019B943F002034FF48072022122482363A9
:1035D000236B079603F002030393039B1223CDE9A9
:1035E00005230423CDE9081305A900F04DFE4FF48F
:1035F000007305A91848059300F046FE236C324677
:103600000F211F2043F400132364236C03F40013E1
:103610000493049B236A43F400132362236A23F474
:103620000013236200F074FB1F2000F0A3FB202096
:1036300032460F2100F06CFB2020BAE70AB070BDC3
:103640006837002000380240005C00400054004011
:1036500032279140001C02400004024030B54FF474
:103660007A7485B005460294BDF824400194089C04
:10367000009401F02BF9044628B1284601F00CF91A
:103680002846FFF73DFF204605B030BD30B54FF46A
:103690007A7485B005460294BDF824400194089CD4
:1036A000009401F0EDF9044628B1284601F0F4F841
:1036B0002846FFF725FF204605B030BD0148FFF73B
:1036C0001FBF00BF68370020FFF7F8BF1FB58DF898
:1036D0000F200DF10F02012300920A4601460193CB
:1036E0000248FFF7BBFF05B05DF804FB6837002018
:1036F0001FB500230A460DF10F018DF80F3001238D
:103700000091014601930448FFF7C0FF9DF80F00A8
:1037100005B05DF804FB00BF6837002000F0D4BAA4
:103720002DE9F743214C0126214D4FF000081027C9
:10373000214681464FF6FF722846CDF80480C4E941
:103740000067C4E9026802F0D1F9304600F0BCFA23
:10375000022321464FF6FF722846C4E90037C4E928
:10376000026802F0C3F9032321464FF6FF72284690
:10377000C4E900370823C4E9023802F0B7F94FF46E
:10378000087321464FF6FF72019304232846A66072
:10379000C4E90037019BE36002F0A8F949462846D6
:1037A00003B0BDE8F04302F0C0B900BFBC37002051
:1037B000A8380020544B9A6B42F0010270B59A630E
:1037C0008EB09A6B064609A9504802F00102504C8F
:1037D00000250192019A1A6B42F480021A631A6B57
:1037E00002F480020292029A1A6B42F004021A63F7
:1037F0001A6B02F004020392039A1A6B42F0080259
:103800001A631A6B02F008020492049A1A6B42F0CF
:1038100010021A631A6B02F010020592059A1A6BD5
:1038200042F020021A631A6B02F020020692069AF6
:103830001A6B42F040021A631A6B02F040020792C0
:10384000079A1A6B42F080021A6301221B6B03F085
:1038500080030893089B0223CDE90A320C930C23C2
:103860000D930823099300F00FFD4CF2037309A98F
:103870002848099300F008FD4FF6837309A92648EC
:10388000099300F001FD4FF63F0309A9234809936E
:1038900000F0FAFC48F2331309A92148099300F01B
:1038A000F3FC282309A91F48099300F0EDFC8023AD
:1038B0004FF400714FF4805025633463E561A663D3
:1038C000C4E901534FF48063C4E903134FF4804308
:1038D000C4E905034FF400332046C4E90835032347
:1038E000C4E90A35104B236000F0A4FB204600F029
:1038F00021FB2A460F21382000F00AFA382000F078
:1039000039FA0EB070BD00BF003802400008024016
:1039100048380020000C0240001002400014024011
:1039200000180240001C02401064024038B5194CD7
:103930000721194B0422194D4FF400602360022324
:10394000E260AB61C5E90031C5E90221C5E9043394
:10395000102240230021C4E904234FF48073A162A4
:10396000C4E906314FF48053C4E908032046C4E992
:103970000111FFF71FFF29462046094C02F088F885
:10398000003818BF0120207040F20360FFF7C8FE26
:10399000207838BDA8380020400100A0CC37002096
:1039A0003500002008B5382000F0F2F9034B044838
:1039B0000360BDE8084000F03DBB00BF106402405A
:1039C000E837002038B5094C094B2046094D2360E3
:1039D00002F07EF800384FF0000118BF0120287077
:1039E0002046FFF7DFFF287838BD00BFA838002049
:1039F000400100A0340000200D4B10B5188070204D
:103A00000C4B0D4C198023689847636870209847C9
:103A100051280BD1094B702008221C60084B1870EC
:103A2000084B1A70E3689847002010BD0320FCE79C
